:100000000203160080FD05264AFFFF80FE75B5FF3E
:100010008025FF80FE020F57801DFF80FE1238AE44
:1000200002107080FEE5645401FF2280FE456E746C
:1000300065722049435000E4F5AB75AC2075AD08FE
:1000400022FFFF80FE0219340222A280FEE4F55D49
:1000500002211980FE0222A2FFFFFF022062FFFFA1
:10006000FFFFFF0223C5FFFFFFFFFF02201FFFFF6F
:10007000FFFFFF046DC53121000007033003340387
:1000800046FFFF0360BB010689828A83E02250029B
:10009000E722BBFE02E32289828A83E49322BC002A
:1000A0000BBE0029EF8DF084FFADF022E4CCF87593
:1000B000F008EF2FFFEE33FEEC33FCEE9DEC9840A2
:1000C00005FCEE9DFE0FD5F0E9E4CEFD22EDF8F53E
:1000D000F0EE8420D21CFEADF075F008EF2FFFED9E
:1000E00033FD4007985006D5F0F222C398FD0FD596
:1000F000F0EA22A3F8E0C5F025F0F0E58215827061
:10010000021583E0C838F0E822ECF608EDF608EEB8
:10011000F608EFF622D083D082F8E49370127401CF
:1001200093700DA3A393F8740193F5828883E4730D
:100130007402936860EFA3A3A380DF8A838982E4BB
:1001400073EF4E6012EF60010EEDBB010B89828AE6
:1001500083F0A3DFFCDEFA2289F05007F709DFFC09
:10016000A9F022BBFEFCF309DFFCA9F022E709F6A7
:1001700008DFFA8046E709F208DFFA803E88828CC1
:1001800083E709F0A3DFFA8032E309F608DFFA809B
:100190006EE309F208DFFA806688828C83E309F057
:1001A000A3DFFA805A89828A83E0A3F608DFFA8007
:1001B0004E89828A83E0A3F208DFFA804280D280EF
:1001C000FA80C680D4805580F28029801080A68075
:1001D000EA809A80A880DA80E280CA802988848CAC
:1001E0008589828A83E493A30592F0A31592DFF5B3
:1001F000DEF3800B89828A83E493A3F608DFF9ECAF
:10020000FAA9F0EDFB2288848C8589828A83E0A399
:100210000592F0A31592DFF6DEF480E389828A83EB
:10022000E493A3F208DFF980D688F0EF60010E4E68
:1002300060CD88F0ED2402B4040050C3F582EB24B5
:1002400002B4040050B923234582239001BD737882
:100250000030AF04C2AF78018FE5C2C030C0FDE806
:100260006002D2AF22780030AF04C2AF780175E5EA
:10027000FFC2C030C0FDAFE5E86002D2AF22ED6042
:100280001D780030AF04C2AF78018E838F82E0F515
:10029000E5C2C030C0FDA3DDF5E86002D2AF22EDBB
:1002A0006020780030AF04C2AF78018E838F8275F2
:1002B000E5FFC2C030C0FDE5E5F0A3DDF2E8600275
:1002C000D2AF228E838F82A3E08E838F82541F70E1
:1002D000047F04800BD3941050047F0980027F15A3
:1002E0007E00E02EFEA3DFFAF404F0228E838F82DC
:1002F000A3E08E838F82541F70047F05800BD394FC
:100300001050047F0A80027F167E00E02EFEA3DFDD
:10031000FA70027F012278FFE4F6D8FD9080007F1A
:10032000007E08E4F0A3DFFCDEFA7581720205C7E7
:100330000403090412034C006F0067006900740095
:100340006500630068001A03550053004200200056
:100350005200650063006500690076006500720068
:100360001E03520051005200320031002E003000B6
:1003700030005F004200300030003000370020C005
:1003800022E9004D22E9004D27E82806004D2FE51F
:1003900022373036239D004D004D004D004D80002A
:1003A000FF00FF0080008000800080FFFFFF05014C
:1003B0000902A1010901A10095107501150025018F
:1003C0000509190129108102950275101601802670
:1003D000FF7F0501093009318106950175081581F6
:1003E000257F093881069501050C0A38028106C06F
:1003F000C005010906A101850195087501150025B3
:1004000001050719E029E781029506750815002600
:10041000FF00050719002AFF008100C0050C090133
:10042000A101850395027510150126FF0219012A05
:10043000FF028100C005010980A1018504950175B5
:10044000021501250309820981098381007506814E
:1004500003C00600FF0901A1018510950675081566
:100460000026FF000901810009019100C00600FF7C
:100470000902A101851195137508150026FF0009D1
:1004800002810009029100C0120100020000000870
:100490006D0431C500210102000109023B00020187
:1004A00004A0310904000001030102000921110127
:1004B000000122430007058103080001090401002F
:1004C0000103000000092111010001229700070526
:1004D000820314000103AE4303F197004D29250068
:1004E0004D3054004D004D004D004D004D36600024
:1004F0004D21FC004D004D004D004DFF808080FFE0
:10050000FFFFFFFF000000FFFFFFFF11FF0A0000D9
:1005100000000000000000000000000000000002D9
:100520002100000780060701000000000000000312
:100530000102030401010600000000000000002089
:10054000010840010400010000000000000000302C
:10055000010203040000000000000000000000058C
:10056000080B0E1114171A1D202326292C2F3235A3
:10057000383B3E4144474A010405060102030A0B89
:100580000C0D0E090A0B120D0E0F16171813141569
:10059000010A0B000D0E00000000141500171800D2
:1005A00000000000020400050175A380C2B9C290DA
:1005B000C2B875E610D29222110DB1A9758038E447
:1005C000F595F5C9F59422C2AF759002758E0212A9
:1005D00017DDB1B81217FB7F0FD1921219F3E5B1F5
:1005E00030E0047FEBD186D1ED90C7D6E020E30860
:1005F000E04408F07FFAD1927F011219C590C7D666
:10060000E054F7F0D2AF121844AF71EFC41354079F
:1006100030E005E4FF1219C5AF71EFC31330E008F5
:10062000EF54FDF571120FA6E54F30E10DE55C705A
:1006300009908202E07003121FE4AF71EF131354AC
:100640003F30E008EF54FBF5711219F3AF7112322D
:100650001830E008EF54F7F571123D79E54F30E5B9
:10066000A51226A0121950123CE1EF600B123216AF
:1006700030E093121226808E12321630E0031215EB
:10068000C9123AE98080D1927FFAD1927FFAD19251
:100690007FFA90819AEFF0E4A3F0A3F090819AE0C2
:1006A000FFC390819CE09F90819BE09400501E11BD
:1006B00018E4FFFE000FBF00010EBE05F7BF7BF47C
:1006C00090819CE004F0700312178380CF22C2AFA8
:1006D0001217DD1219F37FFAD186E4F5F5FFEF90DA
:1006E000002D93F5F20FEFB40AF4027400906C0041
:1006F000E0643F600A906E00E0643F6002F1D690D3
:100700006C00E0B4FF0D906E00E0B4FF06120BA584
:10071000120A26906C00E0B43F0B906E00E0B43FEC
:1007200004E4FFF1DC906C00E0B47F04E4FFF1DC52
:10073000906E00E0B47F047F01F1DC7F0212094477
:10074000EF4E60368F828E83A3E064216008120B27
:100750009B120A268018E490819BF090819BE0FD1B
:1007600090051F93FCEF2D123599E06C6005E4FEB7
:10077000FF8007121783E0B410E1EF4E7011120BE7
:10078000AC7BFF7A05791FFE7F105129120AD17FB9
:1007900003120944EF4E703D12360E90819BEFF02C
:1007A000C2FB6031120BAC7BFF7A05792F120B94E0
:1007B000D2FB90000BE09081E6F090000CE090817D
:1007C000E7121FDA9081E8F090000EE09081E9F0E6
:1007D000C2FB120AD122E4FFF1DC7F01EF60047F4B
:1007E0003780027F36EFC39436401CEFD3943950E4
:1007F000167E0030AF027E011208088FFA20FCFD41
:10080000C2FDEE6002D2AF22C2AF75FAAA75FA55E8
:10081000D2FD229081A8121FD19081AD7401F0A366
:100820007481F0A374E5F09081A8E0FEA3E0FD9050
:1008300081ABEEF0A3EDF0C3EE946C404BD390810E
:10084000A9E094FF9081A8E09473503C7F0030AF02
:10085000027F0111089081AAE060269081ADE0FB43
:10086000A3F173A9F0FA120085FE9081ABF17385B4
:10087000F082F583EEF020FCFD9081AAE014F08078
:10088000D4C2FDEF6002D2AF229081A6EEF0A3EFBA
:10089000F09081E5E04480F1977D1011139081E59F
:1008A000E0547FF1977D0101139081E5E09081A3F1
:1008B000F0906C00E0643F7004F183800A906E0059
:1008C000E0643F700AF18E7F7F510F1189800671BD
:1008D0009B510F80B49081A27401F09081A2E0FF3F
:1008E000D3944F502AA3E0FEEF6E601B9081A2E0EC
:1008F000511B4E601271B3C002C00171ACD001D067
:10090000027194511911899081A2E004F080CC7F8A
:100910007C511B4E601271B3C002C00171ACD0019A
:10092000D002719451191189906C00E0B47F087164
:10093000A551267F018009906E00E0B47F05F11972
:100940001207DC229081A6EFF0E4F56FF570FF90BE
:100950006C00E0FEB43F047F108006EEB47F027F9F
:1009600020906E00E0FEB43F06EF4401FF8008EEE9
:10097000B47F04EF4402FFEF12011509E80009A655
:100980000109C602099A1009A81109D012099C2070
:1009900009B42109F82200000A0A80409081A6E0EB
:1009A000FDF47066803C80179081A6E0FDE4FF12A4
:1009B0003D55800B9081A6E0FDB4FF03E4802390B9
:1009C00081A6E0FD80129081A6E0FDF4703C8008D5
:1009D0009081A6E0FDB4FF047F0180079081A6E02E
:1009E000FDE4FF123D558022E4FF1207DCF17A712D
:1009F000A5F124F47014800C1207D6F17A71A5F1D8
:100A000024B4FF06756F6C757010AE6FAF70225115
:100A1000269081A3E09081E5F07FFF31449081A48E
:100A2000EEF0A3EFF0229081E5EFF0AE04AF057D8C
:100A3000010113906C00E0B43F04F1838009906ED3
:100A400000E0B43F08F18D7F7F51268004719B80C8
:100A5000D57F0171C0601390819B71B6C002C00147
:100A600071ACD001D002719451D17F0271C060137A
:100A700090819B71B6C002C00171ACD001D00271EF
:100A80009451D17F0371C0601390819B71B6C002F5
:100A9000C00171ACD001D002719451D17F7C71C082
:100AA000601390819B71B6C002C00171ACD001D0BF
:100AB00002719451D1906C00E0B47F0871A5512669
:100AC0007F018009906E00E0B47F05F1191207DC08
:100AD000227FFF31449081A071C5700201A99081ED
:100AE000A0E0FEA3E0FF018990819BEFF0906C00F5
:100AF000E0B43F04F1838009906E00E0B43F08F158
:100B00008D7F7F51268004719B412690819F7401C7
:100B1000F090819FE0FFD3944F503890819BE0FE8E
:100B2000241F6F6026EE242FFE90819FE06E601BD5
:100B300090819BE0243F6F6012F1337008E9658279
:100B40007003EA65836004718351D190819FE00452
:100B5000F080BE7F7CF1337008E965827003EA653E
:100B6000836004718351D1906C00E0B47F0871A55B
:100B700051267F018009906E00E0B47F05F11912C3
:100B800007DC2278E57C817D0190819CE0FBA3E07D
:100B9000FAA3E0F97E007F10020229E4FF1207DCCD
:100BA0007F011207DC7D007C6C7F3F2278E57C8131
:100BB0007D01229081A4E0FEA3E0AA06F97B012238
:100BC000314490819BEEF0A3EFF04E22E536120106
:100BD000150BF3000C1B010C2B020C4B030C57B232
:100BE0000CDDD00D09D10D15D40D73D70D9EF0007D
:100BF000000DF1E53830E008E56D4401F56D800643
:100C0000E56D54FEF56DE53830E308E56E4401F519
:100C10006EA1F6E56E54FEF56EA1F6E5389081679B
:100C200030E3028020E054FEF0A1F6E53720E10237
:100C3000A1F6E56D20E002A1F69081FCE020E00243
:100C4000A1F69081CDE04401F0A1F69081FAE5375C
:100C5000F0A3E538F0A1F6E57130E002A1F1E53747
:100C600064016006E5376406702EE5399082026003
:100C700005E539F08003741EF0E537B4060890816D
:100C8000F67401F08005E49081F6F0E49081F9F0CB
:100C90001217E59081FD8008E537B40208908202C2
:100CA0007401F0A1F6E53764037030E538D39401A0
:100CB0004002A1EDE5387002A1EDE53814FF1239CC
:100CC000A6AF3851E8B1FFF1B4AF3874CC2FF5823C
:100CD000E43481F583E04402F0A1F6A1EDE5376448
:100CE000017021E5714401F571E4F565F5667FE178
:100CF0001210B9908202E07002A1F6E41219BD123E
:100D000017C5A1F6121FBBA190E57130E0051213C3
:100D1000D5A1F6A1F1E57130E057123CF8123CD7AD
:100D20009410EE94005048EF9400EE940040407F01
:100D30007C314490819971C5700FFE7F10FD121FA8
:100D4000849081E5747CF0801190819971B6C00225
:100D5000C00171ACD001D0027194908197A3E024BE
:100D6000E5F582E43481F583E539F051D1A1F680CF
:100D70007C807EE57130E024E537607A24FC600DEC
:100D800024FE6012240570121207D680691206ED47
:100D9000B1FFF1A680605133805C80518053E5370C
:100DA000B44912E538B4430DE539B45008E571444F
:100DB00010F5718041E537B44C1FE538B4541AE59D
:100DC00039D394004007E539D394014005E539B49F
:100DD0007507AF3912391B801DE537B4580FE53858
:100DE000B4490AE539B4540512192C80097F0380EF
:100DF000027F02120015E535648F6002D1B4227FB4
:100E0000033144AD07AC06ED4C70067C057D3080A7
:100E1000050DBD00010CAA04A9057B0178FC7C80AE
:100E20007D01121FC2E490811EF07F20F110700D31
:100E30007C057D409081FCE054FEF080120DBD00E9
:100E4000010C9081FCE04401F090811EE004F0AAC6
:100E500004A9057B0178037C817D017E007F0D1252
:100E60000229908104E0240CFFE433FE123870A3C1
:100E7000EEF0A3EFF0A3EEF0A3EFF07F30F11070EF
:100E8000067C057D5080050DBD00010CAE04AF054C
:100E9000AA06A9077B0178107C817D017E007F086E
:100EA000120229908100E0FF123886EF70059081D0
:100EB0000004F022E4F537F538F53922E536242F21
:100EC000602C241C7036E57130E01FE537D3947F29
:100ED0005014E5376402600E71AC7B007A007937FC
:100EE000719451D1801B7F0380147F028010E571C3
:100EF00030E0051237DB80097F0280027F0212009A
:100F000015E535648F6002D1B4E5214401F5212255
:100F10003144AC06AD07ED4C227D007C6E7F3F5125
:100F200026E4FF2251269081A7E09081E5F0908190
:100F3000A6E0223144AA06A90790819C7401F0A37F
:100F4000EAF0A3E9F090819CE0FBA3E0FAA3E0F9CA
:100F500074019000006B22E4F5398F3885363785AF
:100F6000353675331075358FE52154F3F52144017D
:100F7000F52122E475F0010200F39081E5E0908113
:100F8000A7F0227F011207DC7D007C6E22E4FF12B5
:100F900007DC7D007C6C22F09081A6E0FEA3E0FFE0
:100FA00022B1FF121961123A6B7568FF123ADEE442
:100FB000A3F0A3F01213A6D291123EDFE4FF1217A2
:100FC00097BF1D08E56D4408F56D8007E56D54F782
:100FD000F56D221213A6123EDF7D077F01121070FD
:100FE000908202E060047D0780027D067F0212107D
:100FF0007012106CE4FD7F04121070908100E0FF0D
:101000001238AE1170E57130E0047D0980027D0F69
:101010007F061170755FBB75600A7561DC7562A52E
:101020007563757D5F7B057F0A123847123EB3906A
:101030008103E0F563123841E4FD7F0C11707D06F9
:101040007F1D11707D077F1C11707FE211B97FE158
:1010500011B9F17591B6D29022FD7F0611707D70A5
:101060007F0711707FE211B97FE111B97D037F0322
:101070009081A2ED1238789081A2B168D29022902E
:10108000819BEFF0A3EDF0D29171A67D3CE4FF11BE
:10109000707D017F01117090819C31347D0F115A58
:1010A000F18A7D3F7F041170C2917F30B142C291BD
:1010B0007F2AB14291B6D29022C290C29112024FC1
:1010C000D291D2902271A67D7231279081FEE044A8
:1010D000191159C2917F30123E97D291123EC6909B
:1010E00081A07401F07FFF12024F9081A0E004F014
:1010F000E0C3942140EFF1AA511EEF20E505120054
:101100001880F5F175D2907FE380AE71A67D7331C2
:1011100027F18A9081FEE044091159C2917F2A1279
:101120003E97D291D29022E4FF1170E4FD7F01112D
:1011300070908200E0FD7F050170122FD3E4908152
:101140009EF0A2C1336401600BAF6DEFC4540F2059
:10115000E002411871CDE0FF540EFEC31390819F51
:10116000F0EF20E605E06407605090819FE0D394A3
:101170000250477D407F071170123DB490819DEF72
:10118000F07002801490819DE0D394244011742467
:10119000F0123ED67D24123D817FE211B9800B1200
:1011A0003ED690819DE0FD123D8190819FE014F03C
:1011B000E0F57290819EE04401F090819CE030E582
:1011C000077D2091A14402F090819CE030E4077DEE
:1011D0001091A14404F0A2C1E4337F0070027F01AA
:1011E0009081A0EFF071CDA2C1E4337F0070027F47
:1011F000019081A0E06F600271CD90819CE0540E5F
:10120000C31390819FF064076008E56D4410F56D8D
:101210008006E56D54EFF56D90819EE0FF22C2914E
:10122000120265D291229081CFE024FE60521460B8
:101230006E14700241E024036002611E7E817F977C
:101240007D0191AA6055B170908120E020E4026197
:101250001E78D27C817D017B017A817920120B94EA
:101260009080FCE0B4DE14A3E0B4AD0FA3E0B4DFE3
:101270000AA3E0B40A05123E6A6118123E5F807D3F
:101280007E817F97E4FD91AA6011B1709081E3E0C7
:10129000FFC31320E003123E5F806291D9017FE516
:1012A0006A656C602A511EEF20E0249081E4740688
:1012B000F0123DC5908147E0240F600B240F705E53
:1012C00091F0EF70598051908148E0FF023E065145
:1012D0001EEF20E0499081D1E0D39448404080380F
:1012E0009081CEE0C3941550028001C3501691D96D
:1012F000117FE52120E027F1A06023B1AD9081CFDF
:101300007403F022120045E5214402F5217F09F122
:10131000B51239E391E4117F9081CF7402F02290ED
:10132000819A121FD1A374C8F0E4A3F0A3F071A6B0
:101330007FE111B9123EC690819CE06019123CEB2E
:10134000FF12024F90819CE014F0F18370069081AF
:101350009AE004F080E1F1AA511E90819EEFF09096
:10136000819DE014F07F6471BD1200181218449042
:10137000819EE020E50920E40690819DE070D97D02
:10138000307F07117090819DE0600BA3E030E6068E
:10139000A37401F08005E490819FF0E49081D1F086
:1013A00090819FE0FF22C2907F0171BDA2C1E43312
:1013B000FFBF01087FFA71BD7FFA71BD22E4FEEE26
:1013C000C39F500800000000000E80F322511E90C1
:1013D000819CEFF022E53724FE7002819A2402609E
:1013E0000281A0E53814606B147002816E147002E3
:1013F00081892403600281A0E53970127565057545
:1014000066019081FFE054FEF054FDF08098E539CC
:10141000B4010F7565057566029081FFE054FDF01B
:1014200001C5E539B4020F7565057566039081FF46
:10143000E04402F0210BE53964037064F565F5665C
:1014400090811AE0FFA3E0A3CFF0A3EFF0E4F568EA
:10145000021FBBE5399081FFB4FF05E04401F02293
:10146000E054FEF0A3E539F0E0FD7F0580307F0613
:10147000F197EF54F9FDE53925E054069081FEF02F
:10148000E0AE054EFD7F060170AF39123886EF7071
:10149000047F018002AF3902001DAD39AF38F1C9B8
:1014A000227F07117090819EE02291C57E817F97F7
:1014B0007D02711FEF22E4FFF197EF4402FDE4FF8C
:1014C0001170C284228F828E8374E2F0ED7F0060FF
:1014D000027F10EF4408A3F0229081E2E0FF9081A8
:1014E000CEE004F075F00384E5F090000693FD2251
:1014F0009081997401F09081D0E0FF908145E06F78
:10150000701EE52120E035F1A06004B1AD802D9082
:1015100081CEE075F00384E5F0F0A37404F0801C44
:10152000E5214402F5217F03F1B59081E2E0FF90CF
:1015300081CEE091E4117FE4908199F0908199E06F
:10154000FF2212024F90819BE0FF12024F9080FF1A
:10155000E0FF12024F9080FEE0FF12024F9080FDEC
:10156000E0FF12024F9080FCE0FF12024FD2912266
:10157000AF6DEFC413540720E012E523C39403506A
:101580000BE52220E006122DDF30E004E552701C4E
:101590007E8190811F7F24E4F0A3DFFB7E817F1F8B
:1015A000313AEF30E006E5644401F56422B170128F
:1015B0003E4F75358290811FE0F536A3E0F537E4A4
:1015C000F538F539120F68E1B8E565B40518E56638
:1015D00064036002C1707F07F197EF20E602C170DB
:1015E000F1757FE201B91239EFE56524FE606714F9
:1015F000606714606A24047072F190600E121FB468
:10160000122D02EF6005E4F565F566E56A656C602C
:101610002D511EEF20E027123DF3C002C001784497
:101620007C817D01D001D002123DE1E56AD178E0F4
:10163000FF1238C9123DE84003E4F56AD2AFE57104
:1016400020E0107F01E568D394C850011FEF6003CC
:10165000123A6B023AB90219FB123AB9023A12E590
:101660007130E004E4F56522023A72E4F565F5664E
:10167000229081BAE0FFE56C75F015A42400F58294
:10168000E43480F58322AD07E56B6002E174EDC3BD
:1016900094014002E174E56C75F015A4FCED04FFC3
:1016A000F17CD17EEFF17BD17E740FF17BD17E7422
:1016B00005F17BD17EEF123EF6D17E7427123EF605
:1016C000D17E74D4F0E56E30E00A74002CD17E74C3
:1016D00001F0800774002CD17EE4F0123EEE80050C
:1016E000C333CE33CED8F9FF9081F7E0F9FBEF5B3F
:1016F000601A7401A805088002C333D8FCF459901D
:1017000081F7F074002CD17EE04402F0123EEE80AE
:1017100005C333CE33CED8F9FF9081FAE0F9FBEF61
:101720005B601A7401A805088002C333D8FCF45921
:101730009081FAF074002CD17EE04403F00CED753A
:10174000F01BA42412F582E43481123EE6D17EEF30
:10175000F00CED75F01BA42413F582E43481123EE5
:10176000E6D17E1227C14003E4F56C1227D6B56C92
:1017700003756B01227D707F070170F0AE040C745D
:10178000002E2290819BE004F0227D017F020170F7
:10179000B170120025EF22123ECD120265D29122C5
:1017A0007E817F477D15711FEF22D291D2907F0AF3
:1017B00071BDC29022120015E56D4404F56DE5215E
:1017C00054FDF521227D067F029081A0EFF0A3ED6C
:1017D000F071A69081A0E0FFA3E0FD017090C7D654
:1017E000E04408F02271A67D077F02F1C9D290E59E
:1017F0006D30E006E5214420F521227589117588B8
:101800005575C81075CD0075CC0175CB0075CA0132
:10181000D2C8755703755818755909AF8CEF7556AE
:1018200000F555AF8AEF4256E555FFEFB58CEC1148
:1018300039F555E4908202F02274352556F5567438
:1018400005355522120018AF8CEFFCAF8AEFFDEC86
:10185000FFEFB58CF2C3ED9556FDEC9555FC3122AA
:10186000500221211139F55574CB2DFD74FA3CFC41
:10187000E557D3940040021557E54F20E1189081B9
:101880001CE07002A3E0600E90811DE024FFF09048
:10189000811CE034FFF0E56760021567E55C6002DB
:1018A000155CE5686005F4600205689081D1E0048C
:1018B000F0312250AFE557700B755704E55894008E
:1018C00040021558E558700C755819E559D3940025
:1018D00040021559E559704975590A9081FFE03069
:1018E000E008E57130E0031237B6908202E0601C38
:1018F00014F0B283E07015E56D30E006E521444058
:10190000F52131BEE4F565F5661217C5908202E057
:101910007002D2839081E4E0600714F0E07002313D
:101920002C22D3ED9400EC6480948022120FA1E469
:101930009081E4F09081E3E054FDF04401F022E571
:10194000714408F5711237951237A11236E001443F
:10195000E54F30E10930E008313F534FFE22D1A579
:1019600022E490820231BD9081E3E054FBF0E490E8
:1019700081CFF0F56CF56AF56BF572F56790810033
:10198000E0F569E4F517F518F519F1BB54FDF571AB
:1019900054FBF57154F7F57154EFF57154DFF5719F
:1019A0007568FF9081CDE054FEF0E56454FDF56468
:1019B00054F7F56454FBF56454FEF56422F0E56DCC
:1019C000547FF56D221236F031F3120FA112310659
:1019D000E56E54FEF56EE56D54DFF56D54FEF56D64
:1019E000E49081FAF0A3F09081F704F0E56D54F7EC
:1019F000F56D22D291123DA3C29022E566146017C4
:101A00001460161460151460142404701A121790D0
:101A10006015F1B4022D028181611A61D55128311E
:101A2000BE120DFF120FA6229081FCE030E037902D
:101A3000817EE0FF908110E06F702B90817FE0FF4E
:101A4000908111E0B5071F908180E0FF908112E046
:101A5000B50713908181E0FF908113E0B5070790EF
:101A600081CDE04402F0E4908202F0F565F56690E5
:101A70008169E0908102F071067D01E4FF51A17D52
:101A800002E4FF51A17D03E4FF51A1E4F568E56D97
:101A900030E00DF1C9E49081FDF0E5214440F521ED
:101AA00022908197EFF0A3EDF0F17E908198E024F1
:101AB000FE601B14602C24027040908197E024206B
:101AC00051FB7B017A8179697E007F0D80269081B0
:101AD00097E0243051FB7B017A81797E7E007F097B
:101AE0008012908197E0244051FB7B017A817988B4
:101AF0007E007F0F120229120AD1229081E5F07830
:101B0000E67C817D0122F17E9081E5740351FE7BAC
:101B1000017A8079FCF1C2020AD11217C5E4FF7480
:101B2000222FF582E43481F583E0FE747A2FF5826A
:101B3000E4348171CEB404E7F18D9081769119A3DC
:101B40009119E4FF74762FF582E43481F583E0FE89
:101B500074462FF582E4348171CEB404E7E4FF913A
:101B60002DFE747E2FF582E43481F583EEF0912D05
:101B7000FE744A2FF582E4348171CEB404E1E4FFAF
:101B80009121FE74822FF582E43481F583EEF09189
:101B900021FE744E2FF582E4348171CEB404E190BD
:101BA000812EE0908186F0F16C741FF0A37402F036
:101BB000908186E0908152F07E817F431202C37E45
:101BC000817F437D029139756502E4F56622F583D4
:101BD000EEF00FEF22908123E0908188F0E4FF7413
:101BE000242FF582E43481F583E0FE74892FF58299
:101BF000E4348171CEB40EE7F16C740FF0A3740677
:101C0000F0A37402F0A304F07E817F431202C37E2E
:101C1000817F437D02913980AEE5F3F0A3E5F3F0D7
:101C200022742A2FF582E43481F583E02274262F72
:101C3000F582E43481F583E02290819DEDF090817E
:101C40009BEEF0A3EFF0F5828E83A3E0541FFF120A
:101C500038B5AD0790819BF176FB90819EF1D1A3C1
:101C6000EBF01213A6C2919081A1E0540744A8FFA3
:101C700012024F90819EF176FD12027ED291D29097
:101C800022E56D4480F56D7E007F2F7D007B017A1B
:101C900081796812014190812DE030E41090812A11
:101CA000E0B40709908127E0C39408500990816748
:101CB000E020E002C19190812DE030E31790813364
:101CC000E09081F8F0E0701290820204F09081FDC3
:101CD0007405F0229081F874FFF09082027402F093
:101CE0009081FD14F07F03120944AA06A907908190
:101CF000987401F0A3EAF0A3E9F0908198120F48DC
:101D00007008E965827003EA6583707712360E9079
:101D10008197EFF0C2FB6023D2FB90000BE0908034
:101D2000FCF090000CE09080FDF1DA9080FEF090E5
:101D3000000EE09080FFF0C2FB8018F18DE5F3907B
:101D400080FCF0E5F3A3F0E5F3540F4490A3F0E535
:101D5000F3A3F0123EB37563011238418025E4FF0E
:101D6000908103E0FE908102E0FDB506010FEF7067
:101D700012ED600FC394014006EDD394064004EDCC
:101D8000B47508908102E004F080D390811FE09048
:101D90008168F0A3EDF0908127E090816AF0908156
:101DA00028E090816BF0908129E090816CF0908127
:101DB0002AE090816DF090812BE090816EF090810F
:101DC0002CE090816FF0E4908197F0908197E0FF94
:101DD000242DF582E43481F583E0FE74702FF582C2
:101DE000E43481F583EED19DE0B406DFF16C741F1D
:101DF000F0A37401F09080FCE0908146F09080FDAB
:101E0000E0908147F09080FEE0908148F09080FF64
:101E1000E0908149F0908169E090814AF090816A78
:101E2000E090814BF0A37480F0A37406F0A304F05B
:101E3000A37401F090816FE0908150F0E49081975D
:101E4000F0F1659406500F74512FF582E43481F55A
:101E500083E4D19D80EB908170E0543A908151F001
:101E60009081F6E06007908156E04401F07E817F2A
:101E7000431202C39081F9E0FD7E817F43600280BE
:101E800002E4FD9139908169E0FD7F0C1217C96170
:101E9000C79082027401F09081FD04F022F09081DD
:101EA00097E004F022AF71EFC4540F30E00DE5214C
:101EB00020E008EF54EFF5711206CEE4908197F020
:101EC000F16594025019EF2481FF1222C590819789
:101ED000E02498F582E43481F583EFD19D80E19090
:101EE0008199E0600BE5187007E55160031230DE60
:101EF000908198E06007E51770031231DE908199B8
:101F0000E0600BE5187007E55160031231B890816D
:101F100099E0600BE5187007E5516003122F4290BD
:101F20008199E0600BE5187007E55160031232E714
:101F3000E4908197F0F1659402502974172FF8E628
:101F4000FD601DE025E0FFE433FEEF24B7FFEE3433
:101F5000C78F82F583EDF0908197E02417F8E4F6BF
:101F6000D19E80D122908197E0FFC32290811FE013
:101F7000908143F0A322E0FEA3E0FFA3E0227E00D5
:101F80007F107D007B017A8179E502014175E810BF
:101F9000D2E8858CF3858AF385CDF385CCF320E8F0
:101FA000FD2275B5FF75A520D2BDE4F5AB75AC0477
:101FB00075AD0A22E56454FEF56422E57154FEF520
:101FC00071227E007F070202299081CDE04401F05A
:101FD00022EEF0A3EFF0A3EDF022F090000DE0541C
:101FE0000F44902231F3534FFEF1B4E56D54DFF509
:101FF0006DE4F523E52254FEF522E521547FF52119
:10200000E4F565F56675D901C292121FA275A52A7D
:1020100075A401D29222E4F5ABF5AC75AD0B22C0EC
:10202000E0C083C082C085C084C0925392FE111666
:10203000E55420E006908203740CF0908203E07077
:102040000E740CF0755C18E5714408F5718006900B
:102050008203E014F0D092D084D085D082D083D097
:10206000E032C0E0C0F0C083C082C085C084C092AE
:102070005392FEC0D075D000C000C001C002C003A2
:10208000C004C005C006C00775A0401116534FFE1E
:10209000534FFD755C00E5714408F57175A000D0E3
:1020A00007D006D005D004D003D002D001D000D094
:1020B000D0D092D084D085D082D083D0F0D0E032FE
:1020C00090C700E4F0A3F0E547541F1460121460B9
:1020D0001A24027041E554540125E090C700803075
:1020E00071935032E54F30E52D8026E54B7027E5A2
:1020F0004C547F7002801AE54F30E51AE54C30E70A
:1021000015547FC39403500EAF4C312090C700EF9D
:10211000F07F0202300102004D90C7B47411F0222A
:10212000715E401FEFD394055019ED20E70E75F056
:1021300002A424C4314F20E00A1C8007314620E06D
:1021400002E4FCAF0422ED547F75F002A424B4FF36
:10215000E5F034C78F82F583E022AD07ED547FFFB1
:10216000701D90C7ACE04401F090C7DEE04401F080
:1021700090C7ADE04401F090C7DFE04401F022EFEA
:10218000D394055058ED20E72A90C7DFC083C08262
:1021900031DE8002C333D8FC4FD082D083F0ED759E
:1021A000F002A424C4314F54FEF090C7D7EDF024C0
:1021B00020F022ED547FFD90C7DEC083C08231DE67
:1021C0008002C333D8FC4FD082D083F0ED31495424
:1021D000FEF0ED241090C7D7F0ED2430F022E0FFA0
:1021E0007401A805082274502FF8A64AEF2481FF35
:1021F000315A1200489081B0E004F02271935033BC
:10220000E54F30E52EE54C702AE54A600464017024
:1022100022E547541FFFBF010DE49081B0F051B398
:10222000501431E680F8E49081B0F051B35007319A
:10223000E680F812004D22E547541F700BD3E54AA3
:102240009401E5499400400302004DE54A6036518F
:10225000AC51BC500AEF2480FF315A31F580F27541
:102260004F20E5714408F5714402F57151AC90813D
:10227000B0E0FFD39405502790C7D7EFF0EF24408C
:10228000F031F580E951AC51BC500BEF2480FF12C6
:1022900036B131F580F1754F10E5714404F57102E6
:1022A0000048755D0590C7B47412F0229081B07437
:1022B00001F0229081B0E0FFC39402229081B0E04F
:1022C000FFC3940322715E401DEFD394055017EDB8
:1022D00020E70D75F002A424C4314F60091C80066C
:1022E00031466002E4FCAF0422E547541F24FE603F
:1022F0002124027066E54A64014549705EE548B4F0
:102300000108E55454FEF554804EE5544401F5545B
:102310008046E54B7045E54A4549703FE548640114
:10232000701FE54C547F7002802EE54F30E52CE5A0
:102330004C30E727547FC394035020AF4C315A8070
:1023400017E54F30E515E54C30E7107163400CEFB1
:1023500094035007AF4C716A02004802004DAD076C
:102360007C01ED547FFFD3940022EF547FFE700276
:102370002119EED39405501AEF20E70875F002A456
:1023800024C48009EF547F75F002A424B4314F4473
:1023900001F022C3E54C9402E54B940022E547543A
:1023A0001F6401701DE54A4549701771935013E58C
:1023B0004F30E50EE54E700AE54C2481FF315A029C
:1023C000004802004DC0E0C0F0C083C082C085C09C
:1023D00084C0925392FEC0D075D000C000C001C02E
:1023E00002C003C004C005C006C007C2C490C7A88D
:1023F000E0120115242B00245F0424690824710CC9
:1024000024B01024C11824E11C25002025212425F6
:10241000002825212C2500302521342500382521B0
:102420003C2500402521440000254090C7E8E0F508
:1024300047A3E0F548A3E0F54AA3E0F549A3E0F59A
:102440004CA3E0F54BA3E0F54EA3E0F54D755D0020
:1024500090C7A97401F0A3F0A3F0123073A140B1AA
:102460006A54FDF0534FFBA14090C7AB7404F0A138
:102470004090C7AB7408F0E54F20E21330E510E55B
:102480007190820320E005745EF08003740CF0E527
:102490004F20E10C30E509755C00E5714402F571EF
:1024A000534FFE434F02434F04B16A4402F0A14030
:1024B00090C7AB7410F0E5714420F571754F108032
:1024C0007F90C7A97401F0E55D24FD6009240270C6
:1024D000281228E7806A755D0090C7B47410F080F8
:1024E0005F90C7AA7401F0E55D24FC6008147009D0
:1024F000120055804BB1758047755D0031198040E1
:1025000090C7A8E024E8B161CEC313CE13D8F9FF79
:102510007401A807088002C333D8FC90C7A9F080D3
:102520001F90C7A8E024E4B161CEC313CE13D8F93D
:10253000FF7401A807088002C333D8FC90C7AAF033
:10254000D007D006D005D004D003D002D001D000EF
:10255000D0D0D092D084D085D082D083D0F0D0E0BB
:1025600032FFE434FFFEEF78032290C7AB7402F031
:1025700090C7AEE02290C6C0E09081B0F090C6C196
:10258000E09081B1F0E55224FC603514604714609E
:10259000522403706D9081B0E06410701E7C817DC8
:1025A000B97F07D106F1894059E0D394015053AF68
:1025B00021EFC31320E04BD14A80471200558042DF
:1025C0009081B0E06411703A7C817DB97F08D106BA
:1025D000755205800B7C817DC17F08D1067552063E
:1025E0000236A77C817DC97F04D106755207F18927
:1025F0004013E0D39401500DAF21EFC31320E00549
:102600008048E4F552229081B274C6F0A374C0F001
:10261000EF24FFFBE434FFFAEB2DFDEA3CFCEFD3A3
:10262000940040259081B2E0FAA3E02F122A18E529
:102630008224FFF582E58334FFF583E08D828C836D
:10264000F0ED1D70011C1F80D5229081BAE0246737
:10265000F8E67030E56B702CF1CBB41006D1857FB5
:1026600007800C9081B9E064117019D1857F141234
:102670000229121671F1C14003E4F56CF1D6B56C74
:1026800003756B0122E56C75F015A42401F97480C3
:1026900035F0A801FC7D017B017A8179B97E0022A9
:1026A000AF21EFC4540F20E002E188EF4402F5218E
:1026B0009081BAE0F4705AE52130E002E18554EFF0
:1026C000F521AF6DEF1313543F30E010F19AD1971D
:1026D0007F071202297F07120015E1859081B9E07A
:1026E000B4100EF19AD1977F07120229123B88E1AC
:1026F000859081B9E064116002E18578337C00FD4A
:102700007B017A8179B9FE7F14120229123D47803C
:1027100074F1924006E0D3940140089081BAE064DD
:1027200075705E9081BAE064756007E02467F8E632
:1027300060129081E3E0FF1313543F30E03FEFC39A
:102740001330E039E56B7031F1CBB41006D1857FE1
:1027500007800B9081B9E0B41109D1857F14120272
:102760002980028020121671F1C14003E4F56CF15A
:10277000D6B56C11756B01800C7F0780067F0980D0
:10278000027F08F1A11217BE22120055E521441064
:10279000F5219081BAE0C394012278337C007D005A
:1027A00022908197EFF0E52120E01554EFF521F11B
:1027B0009AD1977F07120229908197E0FF120015A6
:1027C00022EFF0056CE56CC3940C22E52154EFF583
:1027D000219081B9E022E56A24FFFFE434FFFE7C0A
:1027E000007D0C12009EED22E547541F7017C3E5D3
:1027F0004A9480E5499400500CE54F30E504754F4C
:102800002022754F1022E547541F704DE54924FEE4
:10281000600F1460142402600201AE7C047D888085
:10282000247C047D9A7F3B01ACE54A14601314605C
:102830001824FE601C240470757C037D307F0480A6
:102840006B7C037D347F1280637C037D467F1A801E
:102850005B7C037D607F1E8053E547541F640170DD
:102860004D1223935048E549B42114E54C75F019F5
:10287000A424ACF582E43404AD82FC7F09802DE50C
:1028800049B4222AE54C75F003A424D7F582E43438
:1028900004F583E493FFE54C75F003A424D5F58299
:1028A000E43404F583E493FC740193FD8003020097
:1028B0004D8F5EAE04AF058E5A8F5BE54D6006E42A
:1028C000F54D754EFFAF4EEFC3955E50028F5EE53E
:1028D0005EC394085005755D038003755D0111E7C3
:1028E00090C7B47402F022E4FFE55E6026055BE564
:1028F0005BAC5A7002055A14F5828C83E493FEEFA8
:102900002400FDE434C78D82F583EEF0155E0FEFF1
:10291000B408D690C7B5EFF0E55E7008EF640860C4
:1029200003755D0322122393400221B6E54F20E593
:102930000221B690C700E54AF0A3E4F0A3F0A3F0AB
:10294000A3F0A3F0A3F0A3F0E54964017068E54C9F
:10295000B4010DE54AB40108E5516004710F8046E9
:10296000E54C700DE550700512327E803931B9802A
:1029700035E54CB4010DE54AB40308E55160047F28
:10298000058023E54CB4010DE54AB40408E5516027
:10299000047F028011E54C6401701BE5516017E56E
:1029A0004AB410057F07023001E54AB411087C05DE
:1029B0007D0B7F1401B102004D7B007AC751FB51A2
:1029C0009A9081B0EEF0A3EFF07F15519AA3EEF04C
:1029D000A3EFF09081B0A3E05164F09081B0516218
:1029E000A3EFF09081B2A3E0FFEB24045118EFF0C5
:1029F0009081B25108E511F0E4F51124075118E572
:102A000012F0E4F5127F0822E0FFEB2405F582E4E2
:102A10003AF583EFF0EB2406F582E43AF58322AB36
:102A200007AA0651FB516BF1D37F15516BA3EEF052
:102A3000A3EFF090819AA3E05164F090819A5162E3
:102A4000A3EFF090819CA3E0FFEB24045118EFF07A
:102A500090819C5108E511F0E4F511EB2407511821
:102A6000809DE0FF8B828A83A3A32251D77003FE4F
:102A7000FF2251E0400751BB7E7F7FFF2251EA5089
:102A80000951CE51C57E807F0122E6FC08E6FDA8F3
:102A900007E4F608F6AE04AF052251D77003FEFF37
:102AA0002251E0400751BB7E7F7FFF2251EA50094F
:102AB00051CE51C57E807F012280CFA807087401C6
:102AC00026F618748036F6E5204404F520220874B2
:102AD000FF26F618747F22A807E6FC08E6FD4C22C4
:102AE000D3ED94FFEC648094FF22A807E6FC08E68F
:102AF000C39401EC64809400A80722E52054FBF500
:102B0000208B828A83E510F0A3E50FF07F1322E586
:102B10002054FEF52090C700F1CBA3E51AF0A3E501
:102B20001BF0A3E51CF0A3E51DF0A3E51EF0A3E553
:102B30001FF07F0822D1D5FE908123E0FDAC067FF7
:102B400013718A908126E0FE908125E0FDEEFC91D4
:102B50000B908127E0FD71600FA3E0FD716041C71C
:102B6000ED30E711A807E6FEC374819DFCD39112F6
:102B70004014768122A807E6FEC3747F9DFCC391B2
:102B8000125003767F22ED26F622EC30E714C37450
:102B9000019DFB7480911DD39129401A768008769F
:102BA0000122C374FF9DFB747F911DC391295006C0
:102BB000767F0876FF2208ED26F618EC36F622D14D
:102BC000D5540FFE908123E07C002400FFEC3EAD45
:102BD00007FC30E30344F0FC7F13718A908124E00A
:102BE00054F0C4540FFD7C00A3E075F010A42DFD3B
:102BF000EC35F0FC30E30344F0FC910B908126E0CF
:102C0000FD71600FA3E0FD716041C77F15718A7F80
:102C10001122EE6480F8EC648098A807229CFAA840
:102C200007E6F58308E6F58222EB9582E58364806A
:102C3000F8EA648098A807229081997401F091FBCA
:102C40001201152C65002C69012C6D022C75032CCA
:102C500079042C7E0F2C89102C8D112C71152C923F
:102C60001F00002C96D1618032F109802E71BF8047
:102C70002A71358026D1F48022123B11801DD11299
:102C8000AF6DB1E130E014800DF124800E123B20D5
:102C90008009F1688000E4908199F0D15830E055C6
:102CA000E523C39403504EE0541F700C90819A7436
:102CB00081F0A37424F0801D91FBD39410500C90EC
:102CC000819A7481F0A37429F0800A90819A7481AA
:102CD000F0A3743FF0E57204D1AF2424F8A60712E4
:102CE0003CEBFCA3E0FDA3E0FEA3E0D1AF2425F87C
:102CF0001201090523908199E0FF22908120E05480
:102D00001F22E4908198F0E572F4600DE572640191
:102D10007027AF6DB1E130E0207E817F1F1202ECA1
:102D2000EF7002A1D991FBFFBF0F02D11291FB649A
:102D30001F6002A1D9F168A1D9E5726401701B91ED
:102D4000FBFFBF0F07A3E0B40702A1D990811FE0EA
:102D5000FFD16B908197EFF080069081977401F01E
:102D6000908197E060737E817F1F1202ECEF6069B3
:102D7000E572C3940150629138908198EFF0908190
:102D800020E0B1E230E017D18DD10AE54F30E10704
:102D9000D1E4123AE18002B1E9434F018002B1E986
:102DA00074682572F8E6FFC394304026EF60237400
:102DB000FC2572F582E43481F583E030E014E56DA2
:102DC00030E00F74CD2572F582E43481F583E04460
:102DD00001F074682572F8E4F6908198E0FF22AF64
:102DE00021EFC4131313540122E57275F01BA424C0
:102DF0001AF582E43481F583E0FEA3E0FFE5727505
:102E0000F01BA4241CF582E43481F583EEF0A3EFDB
:102E1000F022908121E024FD601E24FD602C240618
:102E20007035D1B7D1A1D10AD1B7B1FDD15830E0B9
:102E300026E5224401F52222D1E4E4F0A3F0D158A2
:102E400030E014E5214480F52122908122E0B40194
:102E50000675650275660422908120E0C41354074C
:102E600022D1C6D1A1D10AD1C68092908103E06F50
:102E700070189081FCE030E011E4F572D18DD10A38
:102E8000B1E9E4FF1216867F01227F0022E5727508
:102E9000F01BA42418F582E43481F583E0FEA3E05E
:102EA000FFE57275F01BA4241AF582E4348122FF39
:102EB000E52375F005A422908123E0240CFF908186
:102EC00022E03400FE22908122E0240CFF90812138
:102ED000E03400FE22908121E0F510A3E0F50F9090
:102EE0008124E022E57275F01BA4241CF582E434F1
:102EF00081F5832278B57C817D017B017A817921FE
:102F0000F1A0E5204410F52022908121E0F5197808
:102F10001A7C007D007B017A817922F1C4E520448E
:102F200001F52022908122E0B44B05E56D30E011DF
:102F3000123B60120F68E56D4404F56D44201217D2
:102F4000BC22AF20B1E130E00AEF547FF52012310E
:102F50007B800BAF20EFC41313540330E0097F00D4
:102F60007EC61236468F1822908121E014600D141F
:102F7000602014602424037026021E91E572B4FFC1
:102F800003E48003E572049081F9F07565027566CB
:102F90000122756502756602227565027566032257
:102FA0007E007F040202298F828E83E52054EFF594
:102FB000207403F0EF2401F1DC7B017A8179B5F113
:102FC000A07F05227E007F060202297401F0A3E59E
:102FD00019F02290819AEEF0A3EFF022FFE43EA8D0
:102FE00007FC7D0122E547541F7013E54F90C70091
:102FF00030E5057401F08002E4F07F0180030200F7
:103000004D8F5EE54D6006E4F54D754EFFAF4EEF1A
:10301000C3955E50028F5EE55EC394084005755D02
:10302000018003755D0390C7B5E55EF090C7B47489
:1030300002F0E4F55E22E547541FFFBF011312239F
:1030400093500EE54F30E50990C700E4F07F018012
:10305000B002004D1223935017E54F30E512E54CB6
:10306000700E7450254CF8E690C700F07F018091F7
:1030700002004DE4F552E547546024E06025242029
:103080007059E54854F07053E54890039E93FFE56E
:103090004754806F7045E54825E0247EF582E4348E
:1030A00003802AE54854F07032E5489004FB93FF12
:1030B000E5475480B50724E547541FFFBF011C7541
:1030C000F002E548A424DBF582E5F03404F583E45E
:1030D00093FE740193AA06F902013B02004DAF2052
:1030E000EFC31330E00BEF54FDF520317211FF8078
:1030F00005E52030E0087F007EC631998F18227ADE
:103100000079190201417E007F037D007B007A0077
:103110007920120141E4F523FE7F07FDFB11FF7EBC
:10312000007F087D007B007A00790F120141318A0F
:10313000317B7E007F147D007B007A0079331201A1
:10314000417E007F147D007B017A8179B9120141B3
:1031500031727A0079081201417E007F027D007B86
:10316000007A00796D1201417F027817E4F608DFDA
:10317000FC227E007F077D007B00227E007F017D98
:10318000007B017A8179B40201417E007F047D00D9
:103190007B017A8179B5020141E52054FEF5208F4B
:1031A000828E83122FCBEF2402122FDC7B007A0059
:1031B000791A122FC47F0822AF20EFC413540730AE
:1031C000E009EF54DFF520318A8009AF20EFC454C5
:1031D0000F30E0097F007EC6122FA78F1822AF2084
:1031E000511830E014EF54F7F520E4F510F50FE531
:1031F000507F807EC670198012AF20EF1313543FAA
:1032000030E012E5507F807EC67005511F8F172277
:10321000122A1F8F1722AF6DEF131313541F22AD05
:1032200007AC06E52054FBF5208D828C83E510F079
:10323000AF14AE135161A3EFF0AF16AE1551618D0F
:10324000828C83A3A3EFF08D828C83A3A3A3E511CB
:10325000F0E4F513F514F515F516F511F5127F04E4
:1032600022D3EF947FEE6480948040037F7F22C35B
:10327000EF9481EE6480947F50037F812222E520C9
:1032800054FBF52090C700E510F0D3E514947FE5DA
:1032900013648094804006A3747FF08018C3E51403
:1032A0009481E5136480947F90C70150057481F088
:1032B0008003E514F0D3E516947FE51564809480CF
:1032C000400890C702747FF08018C3E5169481E52A
:1032D000156480947F90C70250057481F08003E5E7
:1032E00016F090C703414EE523C39402404C90C6AC
:1032F000007411F0A374FFF0A37449F0A3E523F068
:10330000A3E524B1F1A3E529F0A3E52AF0A3E52B79
:10331000F0A3E52CF0A3E52DF0E52394034014A3DE
:10332000E52EF0A3E52FF0A3E530F0A3E531F0A3FF
:10333000E532F0E4F52375181422AF21EFC41354DD
:103340000730E00FEF54DFF521B1DBE4F50B430B61
:103350000181B99081CDE0FFC31330E00EEF54FD41
:10336000B1D3750A40750B02E481B99081CDE0308C
:10337000E03754FEB1D3750A41750B07908109E01F
:10338000540FF50CE5686005430C408008122CFBD7
:103390006003430C80E56E30E003430C1090810520
:1033A000E0F50EA3E0F50D81449081E3E030E05FAD
:1033B00054FEF07508109081D0E0FFF509750A41C0
:1033C000750B059081D3E0FE540FF50C9081E3E07E
:1033D000FDC31320E005EE4440F50CEF6475602852
:1033E0009081D0E0FF75F01BA424EAF582E43480DC
:1033F000F583E0F50EEF75F01BA424EBF582E434C1
:1034000080F583E0F50D8005E4F50EF50D8035AF10
:1034100021EFC41313540330E033EF54BFF5219070
:1034200081F9E07023B1DBF50B530BFE9081FDE0D9
:10343000F50CE4F50D9081F8E0FFB4FF05E4F50E1E
:1034400080028F0E7F008078E49081F9F0E52130D2
:10345000E01513135403700FFF7EC6D1038F18E5D8
:103460002154FEF5218013E52130E0191313540394
:1034700060137F007EC691E38F18E56D54FBF56DF8
:1034800054DFF56D22E52230E01E54FEF522B1E551
:10349000750B03122EA1F583E0FCA3E0FDECF50C07
:1034A0008D0DE4F50EFF8018122DDF30E019EF547A
:1034B0007FF521B1E5750B04E4F50CF50DF50EFF74
:1034C0007EC6B1A08F1822E5236401701590C60056
:1034D0007410F0A3E524F0A37449B1F1E4F5237569
:1034E000180722753311B160E539F0EF2407B1995F
:1034F000E53AF0EF2408B199E53BF0EF2409B199E2
:10350000E53CF0EF240AB199E53DF0EF240BB199C9
:10351000E53EF0EF240CB199E53FF0EF240DB199B1
:10352000E540F0EF240EB199E541F0EF240FB19999
:10353000E542F0EF2410B199E543F0EF2411B19981
:10354000E544F0EF2412B199E545F0EF2413B19969
:10355000E546F0E52154F3F52154FEF5217F1422D0
:103560008F828E83E533F0A3E534F08F828E83A3C0
:10357000A3E535F08F828E83A3A3A3E536F0EF2475
:1035800004F582E43EF583E537F0EF2405F582E4A7
:103590003EF583E538F0EF2406F582E43EF583221C
:1035A0008F828E83E508F0A3E509B1CBE50AB1CBA4
:1035B000A3E50BF0EF2404B199E50CF0EF2405B17D
:1035C00099E50DB195E50EF07F0722F08F828E838D
:1035D000A3A322F07508107509012275081075095A
:1035E000FF750A4A22750810E57204F509750A4943
:1035F00022F0A3E525F0A3E526F0A3E527F0A3E557
:1036000028F022753310B160E539F07F0722D2FB34
:103610007F0BFED13AE04DFDA3A3E0FC4DFDB1CC04
:10362000A3E0FB4D6011D13AE05DFDEC5DFDEB5D8B
:10363000F460047F0180027F00228F828E83A3E0EA
:10364000FD8F828E8322E52054BFF5208F828E83EA
:103650007404F09081B4E08F828E83A3F07F022205
:10366000122393503CE54F30E537E5496402703151
:10367000E54C6401702BE5516027E54AB4100DE577
:103680004E6407454D70057552038010E54AB4112C
:1036900010E54E6414454D7008755204854E5380F4
:1036A00006E4F55202004D755D0490C7C574FFF045
:1036B00022EF547FFE7401A806088002C333D8FCB1
:1036C000543EF4FEEF20E70B90C7ADE05EF090C7EC
:1036D000DF800990C7ACE05EF090C7DEE05EF022CC
:1036E0007F0190C7D7EFF02440F00FEFB406F3222C
:1036F000E4FE744F2EF8E4F60EEEB406F5E4FE7424
:10370000502EF876010EEEB402F5EF6005E4F54FA9
:10371000800FE54FC394105005754F088003754F17
:1037200010E4F55DF19590C7AE741DF090C7E0E42C
:10373000F0A3F090C7DDF090C7AC04F090C7DEF0C6
:1037400090C7ADF090C7DFF090C7A9743FF0A3F029
:1037500090C781F18190C7887430F0A3F18190C740
:10376000E27418F090C7F0E4F090C7F87408F09095
:10377000C7E37404F0D2BBD2BC90C7AB741FF0C1D6
:10378000E07410F0A37420F0A37430F0A37440F040
:10379000A37450F02275A0407F01120692E4F5A0B8
:1037A0002290C7D67402F0000014F07F0712069230
:1037B00090C7D6E4F022908200E0C39405500574CF
:1037C00051F08007908200E024FBF09081FFE0FF41
:1037D000C31330E00302110B0210C5E53724FC705F
:1037E000569080FCE538F0A3E539F0A3E53AF0A364
:1037F000E53BF0908103E53CF01213A67D387B0594
:103800007F0B1147D290AF3EEFFDAF3D11381170E5
:10381000AF40EFFDAF3F1138A3F0A3EFF090810070
:10382000E541F0E0FF1186EF700590810004F09013
:103830008100E0FF12001D22EFFEED240CFFE43EAC
:10384000227D5F7B057F0B9081A0EDF0A3EB1178CB
:103850009081A1E0601514FF9081A0E02FF8E6FFB1
:1038600012024F9081A1E014F080E5D291D2902213
:10387000908118F0A3EFF022F0C290C291EF541F94
:103880004420FF02024FEFD394185006EF60037FED
:1038900001227F00229081A0EFF01186EF70059049
:1038A00081A004F09081A0E090055E93FF22119525
:1038B000AD077F0522EF70047E05800AEFD39410D8
:1038C0007E1650027E0AAF0622908197EFF0E01438
:1038D000F0E0FD2468F8E67032908143F0A3E054F4
:1038E000BFF0E0541F64106007E0541FFFBF1107D2
:1038F000ED310C908145F07E817F431202C37E81C1
:103900007F43908197E004FD121C392275F01BA4BF
:103910002403F582E43481F583E022AD079081E44D
:103920007406F09081CFE0707C9081E3E04404F075
:1039300054FDF09081D0EFF0BF75219081E2747555
:10394000F09080FC74DEF0A374ADF0A374DFF0A3FC
:10395000740AF0E49081DBF0A3F0800B9081D0E05A
:1039600014310C9081E2F09081D0E0146015E5688C
:1039700070119081FCE030E00A7568FF121FC9E405
:10398000FF31A6E4FF74D22FF582E43481F583740D
:10399000FFF00FEFB410EE31E31214E412107F9039
:1039A00081CF7401F02231D3FE30E106E5204402DC
:1039B000F520EE30E206E5204408F52031D330E36F
:1039C00006E5204420F52031D330E406E52044808C
:1039D000F52022EF75F01BA42414F582E43481F560
:1039E00083E022E49081CEF09081E2E0FFE422E5E2
:1039F00068C394C8401BE568F460169081FCE03011
:103A0000E00F7568FFE56D30E003121FC9E4FF3178
:103A1000A622E566B4010C908100E0FFF569515DD6
:103A20000566221217906019121FB47E817F1F1243
:103A300002ECEF6020122D02EF601AE4F565F566E6
:103A400022E56770100566E566B40602801D908168
:103A500000E0FF515D22EF90057793FF22515690D1
:103A60008100EFF012001D75670C22756504756604
:103A70000122E56624FE600804702951A50566222E
:103A8000121790600F121FB4122D02EF6016E4F5AA
:103A900065F56622E567700C51A5908100E0B56977
:103AA00003120FD322908100E090059093FF908144
:103AB00000F012001D75671822E57120E01F90814B
:103AC0001CE07002A3E07015E5687011E565640301
:103AD000600675650375660151DE75680122908187
:103AE0001A7407F0A374D0F022E568700C9081F787
:103AF000E030E005E4FF121686E56B601312121E3B
:103B0000EF30E00C7FE11210B9E4F56CF56AF56B6B
:103B100022908121E09081B4F0E5204440F52022FC
:103B20007160A3E0F53AA3E0F53BA3E0F53CA3E028
:103B3000F53DA3E0F53EA3E0F53FA3E0F540A3E0AB
:103B4000F541A3E0F542A3E0F543A3E0F544A3E08B
:103B5000F545A3E0F546E521440C120F6C0217B8B9
:103B6000E5214402F521908120E0F533E57204F56A
:103B700034908122E0F535A3E0F536A3E0F537A3D4
:103B8000E0F538A3E0F53922E535247F600D24FE09
:103B9000600E2403700C120BCC800271A7020F6818
:103BA000A1087F01020015E536603114603B146006
:103BB000491460572433606124FC606724E3700279
:103BC000819004600281D1120EB491E1EF70028104
:103BD000D675374C7538549081D08166120EB4E595
:103BE0006D54014238E56E8007120EB4908167E093
:103BF000540133333354F8423822120EB4F538905E
:103C000081FCE020E00281D6053822120EB49081BA
:103C1000FAE0F537A3E0F53822120EB4E57154014D
:103C2000F5372291F8853737853838C3E0941090FE
:103C30008197E09400501B7F7C120944EF4E700284
:103C400081CD908197E0FCA3E02FF582EE3CF583D7
:103C5000801491D7EE946C4011D3EF94FFEE946FE3
:103C600050088F828E83E0F5392291D7EE94FE4082
:103C70001DD3EF94FFEE94FF5014E02400F09081E8
:103C800097E03402F0D2FB91EEF539C2FB22803D81
:103C9000E53724FE600F24FE60122403702F753870
:103CA00021E4F53922E4F53875390722907FB074A4
:103CB0000193B46D16E493B40411907FB47401932E
:103CC000F538907FB6740193F5392280007F038028
:103CD000027F0212001522908197E0FEA3E0FFC34D
:103CE000229081CFE07F017001FF2290819AE0FE57
:103CF000A3E0F5828E83E022AF38EFFFAD37ED9081
:103D00008197CFF0A3EFF022E536244B7034E537EE
:103D1000D3947F5029AF37120944EF4E7002801EB2
:103D2000AA06A9077B01C002C00178377C007D008C
:103D3000D001D002120B94E521440C020F6C7F03DA
:103D400080027F02020015E535247E7003020EBC5E
:103D50007F01020015EF7A6C60027A6E7B007F1F94
:103D600074102BFBE43AFA8B82F583E0B505078AE1
:103D70006F8B70F46002DFE822D2911214B6D290F9
:103D8000229081A1121FD1D3942040037420F0C24D
:103D9000917F6112024F9081A1121F76FD12029F46
:103DA000D29122E4FF121797EF54FDFDE4FF1210A9
:103DB00070D28422C290C2917F6012024F120265BB
:103DC000D291D29022B1F3C002C00178447C817DAF
:103DD00001D001D002B1E1B1E84003E4F56AD2AF0D
:103DE000227E007F14020229E4F56B056AE56AC3AE
:103DF000940C22C2AFE56A75F015A42401F9748011
:103E000035F0FA7B0122D14F7535817536F18F3748
:103E1000EF24FE601014601B2402702B9081D5E00B
:103E2000F538A380149081D7E0FCA3E0FDECF538D1
:103E3000ED8007E4F5389081D4E0F539120F68E59C
:103E40006D4404F56D80057F031200150217BEE571
:103E5000214402F5217533109081D0E0F534229091
:103E600081E3E04402F04401F0229081DDE09080A3
:103E7000FCF09081DEE09080FDF09081DFE09080AA
:103E8000FEF09081E0E09080FFF09081E1E0FFA300
:103E9000F01214DE02107F12024F7FFF12024F7FDA
:103EA000FF12024F7FFF12024F7FFF12024F7FFF70
:103EB00002024F9080FCE0F55FA3E0F560A3E0F51F
:103EC00061A3E0F56222C2917FA002024FC291EF8E
:103ED000541FFF02024F90819AE0FEA3E0FF227D73
:103EE0001DE4FF021070F583E0FF74002C227401C2
:103EF0007E00A8050822F0AF040C74002F22FFFFFB
:103F0000FFFFFFFFFFFFFFFFFFFFFFFFFFFFFFFFC1
:103F1000FFFFFFFFFFFFFFFFFFFFFFFFFFFFFFFFB1
:103F2000FFFFFFFFFFFFFFFFFFFFFFFFFFFFFFFFA1
:103F3000FFFFFFFFFFFFFFFFFFFFFFFFFFFFFFFF91
:1067F000FFFFFFFFFFFFFFFFFFFFFFFFFFFFFABEEF
:10680000FFFFFFFFFFFFFFFFFFFFFFFFFFFFFFFF98
:10681000FFFFFFFFFFFFFFFFFFFFFFFFFFFFFFFF88
:10682000FFFFFFFFFFFFFFFFFFFFFFFFFFFFFFFF78
:10683000FFFFFFFFFFFFFFFFFFFFFFFFFFFFFFFF68
:106BF000FFFFFFFFFFFFFFFFFFFFFFFFFFFF77EB41
:106C0000FFFFFFFFFFFFFFFFFFFFFFFFFFFFFFFF94
:106C1000FFFFFFFFFFFFFFFFFFFFFFFFFFFFFFFF84
:106C2000FFFFFFFFFFFFFFFFFFFFFFFFFFFFFFFF74
:106C3000FFFFFFFFFFFFFFFFFFFFFFFFFFFFFFFF64
:106C4000FFFFFFFFFFFFFFFFFFFFFFFFFFFFFFFF54
:106C5000FFFFFFFFFFFFFFFFFFFFFFFFFFFFFFFF44
:106C6000FFFFFFFFFFFFFFFFFFFFFFFFFFFFFFFF34
:106C7000FFFFFFFFFFFFFFFFFFFFFFFFFFFFFFFF24
:106C8000FFFFFFFFFFFFFFFFFFFFFFFFFFFFFFFF14
:106C9000FFFFFFFFFFFFFFFFFFFFFFFFFFFFFFFF04
:106CA000FFFFFFFFFFFFFFFFFFFFFFFFFFFFFFFFF4
:106CB000FFFFFFFFFFFFFFFFFFFFFFFFFFFFFFFFE4
:106CC000FFFFFFFFFFFFFFFFFFFFFFFFFFFFFFFFD4
:106CD000FFFFFFFFFFFFFFFFFFFFFFFFFFFFFFFFC4
:106CE000FFFFFFFFFFFFFFFFFFFFFFFFFFFFFFFFB4
:106CF000FFFFFFFFFFFFFFFFFFFFFFFFFFFFFFFFA4
:106D0000FFFFFFFFFFFFFFFFFFFFFFFFFFFFFFFF93
:106D1000FFFFFFFFFFFFFFFFFFFFFFFFFFFFFFFF83
:106D2000FFFFFFFFFFFFFFFFFFFFFFFFFFFFFFFF73
:106D3000FFFFFFFFFFFFFFFFFFFFFFFFFFFFFFFF63
:106D4000FFFFFFFFFFFFFFFFFFFFFFFFFFFFFFFF53
:106D5000FFFFFFFFFFFFFFFFFFFFFFFFFFFFFFFF43
:106D6000FFFFFFFFFFFFFFFFFFFFFFFFFFFFFFFF33
:106D7000FFFFFFFFFFFFFFFFFFFFFFFFFFFFFFFF23
:106D8000FFFFFFFFFFFFFFFFFFFFFFFFFFFFFFFF13
:106D9000FFFFFFFFFFFFFFFFFFFFFFFFFFFFFFFF03
:106DA000FFFFFFFFFFFFFFFFFFFFFFFFFFFFFFFFF3
:106DB000FFFFFFFFFFFFFFFFFFFFFFFFFFFFFFFFE3
:106DC000FFFFFFFFFFFFFFFFFFFFFFFFFFFFFFFFD3
:106DD000FFFFFFFFFFFFFFFFFFFFFFFFFFFFFFFFC3
:106DE000FFFFFFFFFFFFFFFFFFFFFFFFFFFFFFFFB3
:106DF000FFFFFFFFFFFFFFFFFFFFFFFFFFFFFFFFA3
:106E00003FFFFFFFFFFFFFFFFFFFFFFFFFFFFFFF52
:106E100002210000078006070100000000000000BA
:106E2000032F3E9F3F01010600000000000000000C
:106E30007C200909267A0500FA11000000000000F4
:106E4000032F3E9F3F0101070000000000000000EB
:106E50002007081023070102360000000000000090
:106E6000306259B1840E00000001000000000000F3
:106E700040044737303000000000000000000000F0
:106E8000FFFFFFFFFFFFFFFFFFFFFFFFFFFFFFFF12
:106E9000FFFFFFFFFFFFFFFFFFFFFFFFFFFFFFFF02
:106EA000FFFFFFFFFFFFFFFFFFFFFFFFFFFFFFFFF2
:106EB000FFFFFFFFFFFFFFFFFFFFFFFFFFFFFFFFE2
:107200003FFFFFFFFFFFFFFFFFFFFFFFFFFFFFFF4E
:1072100002210000078006070100000000000000B6
:10722000032F3E9F3F010106000000000000000008
:107230007C200909267A0500FA11000000000000F0
:10724000032F3E9F3F0101070000000000000000E7
:10725000200708102307010236000000000000008C
:10726000306259B1840E00000001000000000000EF
:1072700040044737303000000000000000000000EC
:10728000FFFFFFFFFFFFFFFFFFFFFFFFFFFFFFFF0E
:10729000FFFFFFFFFFFFFFFFFFFFFFFFFFFFFFFFFE
:1072A000FFFFFFFFFFFFFFFFFFFFFFFFFFFFFFFFEE
:1072B000FFFFFFFFFFFFFFFFFFFFFFFFFFFFFFFFDE
:1072C000FFFFFFFFFFFFFFFFFFFFFFFFFFFFFFFFCE
:1072D000FFFFFFFFFFFFFFFFFFFFFFFFFFFFFFFFBE
:1072E000FFFFFFFFFFFFFFFFFFFFFFFFFFFFFFFFAE
:1072F000FFFFFFFFFFFFFFFFFFFFFFFFFFFFFFFF9E
:10730000FFFFFFFFFFFFFFFFFFFFFFFFFFFFFFFF8D
:10731000FFFFFFFFFFFFFFFFFFFFFFFFFFFFFFFF7D
:10732000FFFFFFFFFFFFFFFFFFFFFFFFFFFFFFFF6D
:10733000FFFFFFFFFFFFFFFFFFFFFFFFFFFFFFFF5D
:10734000FFFFFFFFFFFFFFFFFFFFFFFFFFFFFFFF4D
:10735000FFFFFFFFFFFFFFFFFFFFFFFFFFFFFFFF3D
:10736000FFFFFFFFFFFFFFFFFFFFFFFFFFFFFFFF2D
:10737000FFFFFFFFFFFFFFFFFFFFFFFFFFFFFFFF1D
:10738000FFFFFFFFFFFFFFFFFFFFFFFFFFFFFFFF0D
:10739000FFFFFFFFFFFFFFFFFFFFFFFFFFFFFFFFFD
:1073A000FFFFFFFFFFFFFFFFFFFFFFFFFFFFFFFFED
:1073B000FFFFFFFFFFFFFFFFFFFFFFFFFFFFFFFFDD
:1073C000FFFFFFFFFFFFFFFFFFFFFFFFFFFFFFFFCD
:1073D000FFFFFFFFFFFFFFFFFFFFFFFFFFFFFFFFBD
:1073E000FFFFFFFFFFFFFFFFFFFFFFFFFFFFFFFFAD
:1073F000FFFFFFFFFFFFFFFFFFFFFFFFFFFF77EB39
:10740000FFFFFFFFFFFFFFFFFFFFFFFF5002E7222D
:10741000BBFE02E32289828A83E49322BB010689B0
:10742000828A83F0225002F722BBFE01F322C2D5EA
:10743000EC30E709B2D5E4C39DFDE49CFCEE30E7F7
:1074400015B2D5E4C39FFFE49EFE12749CC3E49D75
:10745000FDE49CFC800312749C30D507C3E49FFFBD
:10746000E49EFE22A42582F582E5F03583F5832291
:10747000D083D082F8E4937012740193700DA3A3AB
:1074800093F8740193F5828883E4737402936860BF
:10749000EFA3A3A380DF8A838982E473BC000BBEC1
:1074A0000029EF8DF084FFADF022E4CCF875F008F0
:1074B000EF2FFFEE33FEEC33FCEE9DEC984005FC25
:1074C000EE9DFE0FD5F0E9E4CEFD22EDF8F5F0EEED
:1074D0008420D21CFEADF075F008EF2FFFED33FDD8
:1074E0004007985006D5F0F222C398FD0FD5F0EA78
:1074F00022EFF87FFF900000E87908C36F548060A6
:1075000007EF33648DFF8003EF33FFC3E833F8D90F
:10751000EAA3E0F8E583B468DF22EFF87EFF7FFF9F
:10752000900000E87908C36E5480600CEF3364214A
:10753000FFEE336410FE8006EF33FFEE33FEC3E848
:1075400033F8D9E2A3E0F8E583B468D722900001CC
:10755000E02FFFA3E583B468F722900001E0FEA3CB
:10756000E02FFFA3E03EFEA3E583B468F322787F1B
:10757000E4F6D8FD758139027671FF7D9AFF7E6150
:10758000FF7E77FF7E61FF7E77FF7E76FF7DA5FF22
:107590007E77FF7D88FF77E2FF7D91FF7E77FF7E1C
:1075A00077FF7E77FF7E77FF7E7706B0FF0901A128
:1075B0000175089520150026FF00090181000901C9
:1075C0009100C012010002000000206D04AAAA026E
:1075D00001010200010902220001010480310904B5
:1075E000000001030000000921110100012219001F
:1075F000070581032000010403090412034C006FF6
:10760000006700690074006500630068001E035590
:107610000053004200200042006F006F0074004CD5
:10762000006F0061006400650072001E0342004F9D
:10763000005400300031002E00300032005F004264
:107640000030003000310034006E524632344C5568
:10765000312B207265762E204100456E74657220B4
:107660004943500075B5FFE4F5AB75AC4075AD0806
:1076700022C2AF759002758E02F1DAD16475803046
:10768000E4F595F5C9759420F5F57F0AF524E52410
:1076900090765A93B5F2011F0524E524B40AEF90C1
:1076A0000000E0B40207A3E0D394674002E4FF3097
:1076B0008509C284208504E4FF80035394DFC284DB
:1076C000EF600E900001E0FEA3E0FDEDAA06F99147
:1076D000967F08743A24F8F524E524D39400400BEF
:1076E000AE070FA806E4F6152480EE90C7D6E0207A
:1076F000E308E04408F07FFAF1ACF12190C7D6E04E
:1077000054F7F0F1AA30C403127860E539B40102ED
:10771000F121E537B401EC90C7B6E070E6F1DA800C
:10772000FEE4F539F537F53675A0407F01F1ACE49C
:10773000F5A090C7AE741DF090C7E0E4F0A3F09000
:10774000C7AC04F090C7DEF090C7ADF090C7DFF093
:1077500090C7A9743FF0A3F090C781F19690C788B5
:107760007430F0A3F19690C7E27418F090C7F0E47B
:10777000F090C7F87408F090C7E37404F0C2BBD26D
:10778000BC90C7AB741FF07F0190C7D7EFF02440C7
:10779000F00FBF06F4227410F0A37420F0A374302D
:1077A000F0A37440F0A37450F022C1678F25E4F574
:1077B00026F527C3E5279525E5269400501BF1AA59
:1077C000E4FFFE000FBF00010EBE05F7BF7BF4050E
:1077D00027E5277002052680DA2290C7D6E0440804
:1077E000F022127E43F18775360590C7B47412F00B
:1077F00022E4F53690C7B47411F02275360590C7AF
:10780000B47410F02290C7B6E0705390C6C0E0F593
:107810003090C680F090C6C1E0753200F53190C658
:1078200081F090C6C2E0423290C682E532F090C646
:10783000C3E0F533D3941C400375331C90C683E436
:10784000F07528017529C6752AC4F52B85332CFBE4
:107850007A00790871BF315990C7B77420F0809BC6
:10786000C2C490C7A8E012747078A00078AA047807
:10787000B10878B80C78BF1078C91878E91C79106D
:107880002079102479102879302C7910307930340F
:1078900079103879303C7910407930440000794FC4
:1078A000E4F53690C7AB04F0813C90C7AB7402F0AE
:1078B0002290C7AB7404F02290C7AB7408F02290FA
:1078C000C7AB7410F07539012290C7A97401F0E5B7
:1078D0003624FD60062402700981DA90C7B4741062
:1078E000802990C7B47411802290C7AA7401F0E572
:1078F0003624FC600F14700E110590C7B47410F09C
:1079000075360522010590C7B47411F0E4F53622EE
:1079100090C7A8E024E83150CEC313CE13D8F9FFA6
:107920007401A807088002C333D8FC90C7A9F022CD
:1079300090C7A8E024E43150CEC313CE13D8F9FF8A
:107940007401A807088002C333D8FC90C7AAF022AC
:10795000FFE434FFFEEF7803227E00E5322533FF9B
:10796000EE3531FED3EF9400EE94704013910694FF
:1079700073500DE42532F53274FC3531F53180D980
:10798000E53012747079A7107A09207A62307A8E05
:10799000407A9F507B55607BA4707B89807A9F9052
:1079A0007B1CA000007BA8C3E53194FE4020EF249F
:1079B000FFFFEE910E94FF5015E5329FE5319E508A
:1079C0000DD2FBE42532F53274023531F531AF3397
:1079D0007E00E5322533CFEE3531CF24FFCF910E37
:1079E000947F501CE5329FE5319E50149117752B02
:1079F0000085332C7B017AC6798471BF71B1800612
:107A000090C6807411F0C2FB22E53245317018E552
:107A100033B401131277AAAF0812751AEF4E602023
:107A200090C6807424F022D3E5329400E5319400AE
:107A30004007900000E0F4600790C6807423F022B5
:107A4000AD33AF32AE31B1178F2DE52D603AE52D54
:107A5000B4FF0790C6807421F02290C6807422F093
:107A60008026E531C313FF7E00600E900000E0F435
:107A7000600790C6807433F02291218F2DE52D6030
:107A80000790C6807431F02271B19117614890C699
:107A9000837410F07528FF752976752A496148E5C9
:107AA00030B45021900083E493FE7401938E31F53D
:107AB00032900000E0F4600691069467400D90C695
:107AC000807451F02275317675322B71B8E493FFD2
:107AD0003395E0FEEF24FEFFEE34FFFE7C007D02D6
:107AE00012742EC3EF6480949C500280027F1C713C
:107AF000AF752D01E52DD39533400261AE71B87598
:107B0000F002E52D127464E493FFE52D2483FDE477
:107B100034C68D82F583EFF0052D80D8907FD0E4B8
:107B200093FFD3941F50028001C3400790C6807416
:107B3000A1F022EFC3941C500280027F1C71AF752C
:107B400028FF75297F752AD1752B00F52C7B017ACA
:107B5000C67984806AE4F52EF52FF531F53271B8D7
:107B6000E0252FF52FE4352EF52E0532E532700293
:107B70000531B400E9E531B468E490C6837402F0DD
:107B8000E52EA3F0A3E52FF02290C6837406F0A3A0
:107B9000E4F0A3F0A37467F0A374FFF0A37402F001
:107BA000A3E4F0227537012290C6807401F0228F81
:107BB0003390C683E533F022853282853183228B70
:107BC000258A268927E52C452B603AE52C152C7053
:107BD00002152BAB28AA29A92A127403AB25AA26C1
:107BE000A92712741CE5272401F9E43526852525EB
:107BF000F5268927E52A2401F9E43529852828F581
:107C000029892A80C022D3E53294FFE5312234FF4E
:107C1000FED3EF94FFEE2275280185312985322AA3
:107C200022EFC394004012EFD39433500CB17F8FF6
:107C3000FA20FCFDC2FD7F00227F012290C7E8E010
:107C4000547F24FD500624E26034804090C7E8E071
:107C50005480C41313135401FFA3E054016F602C2C
:107C6000E054F07027E075F003A4247AF582E43440
:107C700075F583740193FA740293F902749690C7B0
:107C8000E8E020E707A3E0B4090280030277F1757A
:107C9000360490C7C574FFF090C7B47402F0229107
:107CA000B291DA80F391B290C7B5E5389197E4F5D7
:107CB00038228F3890C7EFE060047EFF800590C7C0
:107CC000EEE0FEEEC3953850028E38E538C39420BE
:107CD00050047536032275360122E4FFE53860252D
:107CE0000535E535AC347002053414F5828C83E437
:107CF00093FEEF2400FDE434C78D82F583EEF0158A
:107D0000380FBF20D790C7B5EFF0E5387008EF64A3
:107D1000206003753603228D258F828E83E4F5263D
:107D2000FB7A007908FCE5822DFDEC3583CD24FF3C
:107D3000CD34FFFCD3ED94FFEC9467503FE5829D7A
:107D4000E5839C5037B17FE525D394004029127418
:107D5000038F828E83F020FCFD127403FD8F828ED0
:107D600083E06D600205260FBF00010E740129F942
:107D7000E43AFA152580D0C2FDAF26227FFF227596
:107D8000FAAA75FA55D2FD2290C7007401F0FF815E
:107D9000A590C700E4F07F0181A590C700E4F0A39F
:107DA000F07F0281A590C7E8E0541F705D90C7EB9B
:107DB000E024FE601114601824026002C140753492
:107DC000757535C3802C7534757535D57F22806EF9
:107DD00090C7EAE014601514601C24FE602224049D
:107DE000705E7534757535F77F048052753475751E
:107DF00035FB7F12804875347675350D7F1E803EC9
:107E000075347675352B7F1E803490C7E8E0541F9B
:107E10006401702C90C7ECE07026A3E0702290C73C
:107E2000EBE0B4210A7534757535E77F09800F9052
:107E3000C7EBE0B4220A7534757535AA7F19819FA6
:107E40000277F190C7DEE04402F090C7B6E054FE3E
:107E5000F090C7D77411F07431F090C7AD7401F091
:107E60002290C7E9E0B40104D143800790C7B6E08F
:107E70004401F00277E7220277F1FFFFFFFFFFFFE7
:107E8000FFFFFFFFFFFFFFFFFFFFFFFFFFFFFFFF02
:107E9000FFFFFFFFFFFFFFFFFFFFFFFFFFFFFFFFF2
:107EA000FFFFFFFFFFFFFFFFFFFFFFFFFFFFFFFFE2
:107EB000FFFFFFFFFFFFFFFFFFFFFFFFFFFFFFFFD2
:107EC000FFFFFFFFFFFFFFFFFFFFFFFFFFFFFFFFC2
:107ED000FFFFFFFFFFFFFFFFFFFFFFFFFFFFFFFFB2
:107EE000FFFFFFFFFFFFFFFFFFFFFFFFFFFFFFFFA2
:107EF000FFFFFFFFFFFFFFFFFFFFFFFFFFFFFFFF92
:107F0000FFFFFFFFFFFFFFFFFFFFFFFFFFFFFFFF81
:107F1000FFFFFFFFFFFFFFFFFFFFFFFFFFFFFFFF71
:107F2000FFFFFFFFFFFFFFFFFFFFFFFFFFFFFFFF61
:107F3000FFFFFFFFFFFFFFFFFFFFFFFFFFFFFFFF51
:107F4000FFFFFFFFFFFFFFFFFFFFFFFFFFFFFFFF41
:107F5000FFFFFFFFFFFFFFFFFFFFFFFFFFFFFFFF31
:107F6000FFFFFFFFFFFFFFFFFFFFFFFFFFFFFFFF21
:107F7000FFFFFFFFFFFFFFFFFFFFFFFFFFFFFFFF11
:107F8000FFFFFFFFFFFFFFFFFFFFFFFFFFFFFFFF01
:107F9000FFFFFFFFFFFFFFFFFFFFFFFFFFFFFFFFF1
:107FA000FFFFFFFFFFFFFFFFFFFFFFFFFFFFFFFFE1
:107FB000046DAAAA0102001475F775FB760DFFFF88
:107FC000762BFFFFFFFFFFFFFFFFFFFFFFFFFFFF1E
:107FD0000E52515232312E30305F4230303037FF46
:107FE000FFFFFFFFFFFFFFFFFFFFFFFFFFFFFFFFA1
:107FF000F1FFFFFFFFFFFFFFFFFFFFFFFFFFFFFF9F
:00000001FF
