:1000000002038A0080FD05264A22FF80FE75B5FFA7
:100010008025FF80FE8020021FEBFF80FE124AB881
:100020000218D680FEE5755401FF2280FE456E74ED
:1000300065722049435000E4F5AB75AC2075AD08FE
:1000400022FFFF80FEE4F5640227CE80FE7F3802A7
:100050000B3BFF80FEFFFFFFFFFFFF0249E8FFFFB2
:10006000FFFFFF022058FFFFFFFFFF021FFFFFFF00
:10007000FFFFFF046DC52B1203002503A403A80393
:10008000BAFFFF03D4BB010689828A83E0225002B3
:10009000E722BBFE02E32289828A83E49322BB012A
:1000A0000CE58229F582E5833AF583E0225006E9E2
:1000B0002582F8E622BBFE06E92582F8E222E582E7
:1000C00029F582E5833AF583E49322BC000BBE0058
:1000D00029EF8DF084FFADF022E4CCF875F008EF45
:1000E0002FFFEE33FEEC33FCEE9DEC984005FCEE6A
:1000F0009DFE0FD5F0E9E4CEFD22EDF8F5F0EE849B
:1001000020D21CFEADF075F008EF2FFFED33FD405F
:1001100007985006D5F0F222C398FD0FD5F0EA22D9
:10012000C5F0F8A3E028F0C5F0F8E582158270026A
:100130001583E038F022A3F8E0C5F025F0F0E58261
:10014000158270021583E0C838F0E822ECF608ED5D
:10015000F608EEF608EFF622A8828583F0D083D069
:100160008212016F12016F12016F12016FE473E4CA
:1001700093A3C583C5F0C583C8C582C8F0A3C58352
:10018000C5F0C583C8C582C822D083D082F8E49365
:100190007012740193700DA3A393F8740193F58208
:1001A0008883E4737402936860EFA3A3A380DF8A5B
:1001B000838982E473EF4E6012EF60010EEDBB01A4
:1001C0000B89828A83F0A3DFFCDEFA2289F05007D4
:1001D000F709DFFCA9F022BBFEFCF309DFFCA9F064
:1001E00022E709F608DFFA8046E709F208DFFA801D
:1001F0003E88828C83E709F0A3DFFA8032E309F6B8
:1002000008DFFA806EE309F208DFFA806688828CE4
:1002100083E309F0A3DFFA805A89828A83E0A3F698
:1002200008DFFA804E89828A83E0A3F208DFFA8031
:100230004280D280FA80C680D4805580F2802980A6
:100240001080A680EA809A80A880DA80E280CA8046
:100250002988848C8589828A83E493A30592F0A3FC
:100260001592DFF5DEF3800B89828A83E493A3F68F
:1002700008DFF9ECFAA9F0EDFB2288848C858982ED
:100280008A83E0A30592F0A31592DFF6DEF480E303
:1002900089828A83E493A3F208DFF980D688F0EF9D
:1002A00060010E4E60CD88F0ED2402B4040050C30E
:1002B000F582EB2402B4040050B923234582239035
:1002C000023173780030AF04C2AF78018FE5C2C04D
:1002D00030C0FDE86002D2AF22780030AF04C2AF78
:1002E000780175E5FFC2C030C0FDAFE5E86002D21D
:1002F000AF22ED601D780030AF04C2AF78018E836D
:100300008F82E0F5E5C2C030C0FDA3DDF5E86002F4
:10031000D2AF22ED6020780030AF04C2AF78018EFA
:10032000838F8275E5FFC2C030C0FDE5E5F0A3DD37
:10033000F2E86002D2AF228E838F82A3E08E838F99
:1003400082541F70047F04800BD3941050047F09E3
:1003500080027F157E00E02EFEA3DFFAF404F02277
:100360008E838F82A3E08E838F82541F70047F055B
:10037000800BD3941050047F0A80027F167E00E029
:100380002EFEA3DFFA70027F012278FFE4F6D8FD8B
:100390009080007F007E08E4F0A3DFFCDEFA758128
:1003A0007F0206FC0403090412034C006F0067007F
:1003B000690074006500630068001A03550053006B
:1003C000420020005200650063006500690076006D
:1003D000650072001E0352005100520031003200CD
:1003E0002E00300033005F00420030003000320049
:1003F000350037F33A6500453A6500453FE03F0276
:1004000000453FFE39663B643A32004500450045F1
:1004100000458000FF00FF0080008000800080FF1A
:10042000FFFF05010906A1019508750115002501C9
:10043000050719E029E781028103950505081901DF
:10044000290591029501750391019506750815001E
:1004500026FF00050719002AFF008100C0050109D9
:1004600002A10185020901A1009510750115002561
:100470000105091901291081029502750C1601F870
:1004800026FF070501093009318106950175081518
:1004900081257F093881069501050C0A38028106FD
:1004A000C0C0050C0901A101850395027510150155
:1004B00026FF0219012AFF028100C005010980A15F
:1004C0000185049501750215012503098209810939
:1004D00083810075068103C006BCFF0988A10185E0
:1004E0000895017508150126FF00190129FF8100F3
:1004F000C00600FF0901A1018510950675081500C9
:1005000026FF000901810009019100C00600FF09D2
:1005100002A101851195137508150026FF00090237
:10052000810009029100C00600FF0904A101852095
:10053000950E7508150026FF0009418100094191BB
:10054000008521951F0942810009429100C01201D6
:100550000002000000086D042BC503120102000117
:1005600009025400030104A0310904000001030141
:100570000100092111010001223B00070581030848
:100580000008090401000103010200092111010012
:1005900001229400070582030800020904020001F9
:1005A00003000000092111010001225D00070583FD
:1005B000032000020422003B045D009404F1005D6E
:1005C0000212030025880204010000000000000060
:1005D0000301020304010606000000000000000001
:1005E000200108400104000100000000000000009C
:1005F0002102084002040001000000000000000089
:100600002203084003040001000000000000000075
:100610002304084004040001000000000000000062
:10062000240508400504000100000000000000004F
:10063000250608400604000100000000000000003C
:100640003001020304000000000000000000000070
:1006500000453B9F3B483B82004500450045004527
:10066000004548233AF93923004500450045004537
:10067000FF808080FFFFFFFFFF000000FFFFFFFF04
:1006800011FF0A0000000000000000000000000050
:100690000000000005080B0E1114171A1D20232658
:1006A000292C2F3235383B3E4144474A0104050688
:1006B0000102030A0B0C0D0E090A0B120D0E0F1688
:1006C0001718131415010A0B000D0E00000000147A
:1006D000150017180000000000020400050175A3B2
:1006E00080C2B9C290C2B875E610D29222110DD163
:1006F000DE758038E4F595F5C9F59422C2AF7590A2
:1007000002758E02124A66D1ED121F5A7F0FF1DC7C
:10071000F1B8E5B130E0047FEBF1D0120D2B90C7BA
:10072000D6E020E308E04408F07FFAF1DC7F011214
:1007300027D590C7D6E054F7F0D2AF12101FAF7F85
:10074000EFC413540730E005E4FF1227D5AF7FEF65
:10075000C31330E006537FFD12289AE55030E113B1
:10076000E563700F908381E0700912205020E00350
:10077000122FE1AF7FEF1313543F30E005537FFB9F
:10078000F1B8AF7F12553730E006537FF712515E54
:10079000E55030E5A612239212300E125243EF605C
:1007A0000AE57130E395121A128090E57130E30387
:1007B000121E6F124D0E8083D291F1BFC29022E4BF
:1007C000FF121F39EF54FDFDE4FF1218D6D2842228
:1007D000F1DC7FFAF1DC7FFAF1DC7FFA90832CEF19
:1007E000F0E4A3F0A3F090832CE0FFC390832EE00D
:1007F0009F90832DE0940050211115E4FFFE000F1F
:10080000BF00010EBE05F7BF7BF490832EE004F01D
:10081000700690832DE004F080CC227F00208502BA
:100820007F0122E5371201890864000885010894D8
:100830000208AC0308BED008CCD4093CE4094BE65E
:10084000084AF0095AF1000009B9E4F538F539F51C
:100850003A125243EF700221BE75384C75395490EC
:1008600083472110E4F538F539F53AE57154014232
:1008700039AF72EF1313125504AF72EFC45401C4B1
:1008800054F0423922E4F538F539F53A9082C6E061
:10089000C3025504E4F538F539F53AF539FF122568
:1008A000F930E00205390FEFB406F322E4F538F52C
:1008B00039F53A908233E0F538A3E0F53922E4F5D2
:1008C00038F539F53AE57F5401F5382212542B8575
:1008D0003838853939C3E09410908328E09400506B
:1008E0001A7F7C31BFEF4E700221B5908328E0FC67
:1008F000A3E02FF582EE3CF5838015122B4EEE948B
:100900006C4011D3EF94FFEE946F50088F828E836A
:10091000E0F53A22122B4EEE94FE401ED3EF94FFE8
:10092000EE94FF5015E02400F0908328E03402F0AC
:10093000D2FB125407F53AC2FB228079E57F30E002
:1009400078111B8F38E4F539F53A22E4F538F5399A
:10095000F53AE573F53885743922E53824FE6011DF
:1009600014601514602E2403704B753912753A0308
:1009700022E4F539753A2522907FB0740193F47022
:1009800003E493F4600C907FB2123FA7ECF5398D2D
:100990003A228021907FB0740193B46D16E493B431
:1009A0000411907FB4740193F539907FB67401936C
:1009B000F53A2280007F0380027F02121E1C2290E3
:1009C0008337EFF0E4F57BF57CFF906C00E0FEB43C
:1009D0003F047F108006EEB47F027F20906E00E01F
:1009E000FEB43F06EF4401FF8008EEB47F04EF44FD
:1009F00002FFEF1201890A63000A21010A41020A7B
:100A000015100A23110A4B120A17200A2F210A7205
:100A10002200000A858040908337E0FDF4706680F4
:100A20003C8017908337E0FDE4FF12513A800B9031
:100A30008337E0FDB4FF03E48023908337E0FD803B
:100A400012908337E0FDF4703C8008908337E0FD1E
:100A5000B4FF047F018007908337E0FDE4FF12516B
:100A60003A8022E4FF1254CBD11212541BF47015B9
:100A7000800DF1EC1254CBD11212541BB4FF067549
:100A80007B6C757C10AE7BAF7C2290835CE09083A6
:100A900034F0906C00E0643F7004F1CA800A906EFC
:100AA00000E0643F700AF1C27F7FD163D1298006E4
:100AB000D10AD163C1299083337401F0908333E06C
:100AC000FFD3945F5031A3E0FEEF6E60229083333A
:100AD000E0D16F4E6019908335D17DC002C001789E
:100AE0005C7C837D01D001D002D15CD16DD1299095
:100AF0008333E004F080C57F7CD16F4E6019908312
:100B000035D17DC002C001785C7C837D01D001D0ED
:100B100002D15CD16DD129906C00E0B47F08D11274
:100B200091087F018009906E00E0B47F04F1D371D9
:100B30003222EF60047F3780027F36EFC394364065
:100B40001CEFD3943950167E0030AF027E01125450
:100B5000F98FFA20FCFDC2FDEE6002D2AF22906C4C
:100B600000E0B43F04F1CA800A906E00E0B43F098F
:100B7000E4F1C27F7F91088004D10A81087F01F1EE
:100B8000BCD18C6014D17AC002C001785C7C837DBA
:100B900001D001D002D15CD1197F02F1BCD18C60AF
:100BA00014D17AC002C001785C7C837D01D001D071
:100BB00002D15CD1197F03F1BCD18C6014D17AC011
:100BC00002C001785C7C837D01D001D002D15CD170
:100BD000197F7CF1BCD18C6014D17AC002C001783D
:100BE0005C7C837D01D001D002D15CD119906C0076
:100BF000E0B47F08D11291087F018009906E00E077
:100C0000B47F04F1D371322290835CEFF0AE04AF75
:100C1000057D0190833912430990833E7401F0A34E
:100C20007483F0A3745CF0908339E0FEA3E0FD9040
:100C3000833CEEF0A3EDF0C3EE946C404ED3908372
:100C40003AE094FF908339E09473503F7F0030AFD7
:100C5000027F011254F990833BE0602890833EE0CC
:100C6000FBA31255A0A9F0FA120085FE90833C1256
:100C700055A085F082F583EEF020FCFD90833BE0EB
:100C800014F080D2C2FDEF6002D2AF2290832CEF2D
:100C9000F0906C00E0B43F04F1CA800A906E00E06E
:100CA000B43F09E4F1C27F7F91088004D10A810832
:100CB0009083307401F0908330E0FFD3945F503A1A
:100CC00090832CE0FE241F6F6028EE242FFE90837B
:100CD00030E06E601D90832CE0243F6F601412465C
:100CE000C56B7008E965827003EA65836004D14BC7
:100CF000D119908330E004F080BC7F7C1246C56B34
:100D00007008E965827003EA65836004D14BD119EC
:100D1000906C00E0B47F08D11291087F01800990A7
:100D20006E00E0B47F04F1D3713222906C00E06475
:100D30003F600C906E00E0643F6004F1EC71329013
:100D40006C00E0B4FF0B906E00E0B4FF04D1129190
:100D500008906C00E0B43F0B906E00E0B43F04E4F8
:100D6000FF7132906C00E0B47F04E4FF7132906E4A
:100D700000E0B47F047F0171327F0231BFEF4E602B
:100D8000348F828E83A3E064126006D10A910880BA
:100D900018E490832CF090832CE0FD9005C093FC28
:100DA000EF2D12348EE06C6005E4FEFF80071235F3
:100DB00029E0B410E1EF4E700F1255777A0579C033
:100DC000FE7F1012029DD1197F0331BFEF4E7039A3
:100DD000124ABF90832CEFF0C2FB602D1255777A38
:100DE0000579D0D15CD2FB90000BE090835DF09050
:100DF000000CE090835E12552390835FF090000E0C
:100E0000E0908360F0C2FBD11922E4FF71327F01D0
:100E100071327D007C6C7F3F227FFFD18770024161
:100E20008A908331E0FEA3E0FF908337EEF0A3EFDA
:100E3000F090835CE0448012552D7D1091139083D7
:100E40005CE0547F12552D7D018113785C7C837D9D
:100E50000190832DE0FBA3E0FAA3E0F97E007F1070
:100E600002029D9108908334E090835CF07FFF3113
:100E7000BF908335EEF0A3EFF02290832CE0FEA329
:100E8000E0AA06F97B012231BF908331EEF0A3EF97
:100E9000F04E227F03D187700C9083317405F0A34C
:100EA00074D1F08006F1E57002F1DE908331D17DDE
:100EB00078FC7C807D01125589E49081ABF09083B1
:100EC00033F012556E4002E165EF2420FFD18770A8
:100ED0001DA3E0FFC454F024E1F582E43405AD82A3
:100EE000908331F0A3ED1225F854FEF08018F1E55F
:100EF0007002F1DE908333E024551225FC4401F0AA
:100F00009081ABE004F0908331D17DC001A3E07506
:100F1000F01CA42403F97481125590D0017E007F47
:100F20000D12029D9083331235792404F582E43446
:100F300081F583E0240CFDE433FCEF1253BD125421
:100F400011FF1253BDE0FCA3E0FDEF1213EF1254AA
:100F500011FF1213EFE0FCA3E0FDEF1213CD1254CA
:100F60001104F0C1C2E4908333F012556E503CEF8F
:100F70002430FFD187700C9083317406F0A3744144
:100F8000F08006F1E57002F1DE908331D17DC00181
:100F9000A3125598F97481125590D0017E007F08F4
:100FA00012029D908333E004F080BF908100E0FF47
:100FB000124A90EF700590810004F02231BF9083B7
:100FC0002C22FF71327D007C6C227F0171327D000A
:100FD0007C6E227D007C6E7F3F9108E4FF2290832F
:100FE00031E004F022908332E004F022E4FF713219
:100FF0007F0122111BEF600E908382E0D3941F507B
:1010000010E004F0800B908382E0D394004002E46F
:10101000F0908382E0C3941F7F0040027F01221280
:101020000015AF8CEFFCAF8AEFFDECFFEFB58CF253
:10103000C3ED9568FDEC9567FC1255525002217185
:101040001254A374CB2DFD74FA3CFCE569D39400D3
:1010500040021569E55020E11DE4FF319BFE71CD92
:10106000E0FAA3E04A600AEE71CD74FFF5F01201D8
:10107000200FEFB403E5E55960021559E5636002FE
:101080001563E4FF745A2FF8E6FE6004F46001066D
:101090000FEFB406EF908348E004F012555250A0D1
:1010A000E5697056756904E56A94004002156A1294
:1010B0000FF3EF6023908381E0701D908380E070D8
:1010C00017E57F20E012A3741EF0E49081F4F09005
:1010D00082C6E04401F0F1EBE4FF74542FF8E660BF
:1010E0000874552FF8E66001160FEFB401EC9083F9
:1010F0000CE0D3947D5003E004F0E56A7014756A47
:1011000019E56BD394004002156B908380E0600278
:1011100014F0E56B705B756B0A90837EE030E0083D
:10112000E57F30E003124A6E908381E0602114F085
:10113000B283E0701A9082C6E054FEF0E57130E0B0
:10114000034323025372FBE4F576F57712468F9042
:101150008381E07002D283908261E0D394014003E6
:10116000E014F090835BE0600814F0E07003122854
:101170008B22E57A75F015A4FDEE04FEAC050D7426
:10118000002CF582E43480F583EEF0AE050D74009A
:101190002EF582E43480F583740EF0741C2FF582F2
:1011A000E43482F583E022AD07E579600241C0EDC9
:1011B000C39403400241C01224D3FC741C2D319E01
:1011C00012558051C8EF51C1740F51C17405F0ED33
:1011D00012558051C8EFF0ED14601414601C240205
:1011E000600241C051C2742751C174D4F0801451BF
:1011F000C2743651C174E4F0800951C2744551C1C2
:1012000074F4F0AF7212553730E00A74002C51C8F4
:101210007401F0800774002C51C8E4F0741C2D3167
:101220009E12555C8005C333CE33CED8F9FF908132
:10123000F5E0F9FBEF5B601C741C2D319EF1DD8045
:1012400002C333D8FCF4599081F5F074002C51C8D6
:10125000E04402F0741C2D319E12555C8005C333AE
:10126000CE33CED8F9FF908233E0F9FBEF5B601C00
:10127000741C2D319EF1DD8002C333D8FCF45990EB
:101280008233F074002C51C8E04404F00C741C2D1F
:10129000319E75F01CA41254E3FF74002C51C8EF6A
:1012A000F00C741C2D319E12543B74002C51C8124A
:1012B00024B44003E4F57A1224E8B57A0375790181
:1012C00022F0AF040C74002FF582E43480F5832201
:1012D00090832BEFF0124EA690832CEFF0E0FE24CB
:1012E0001C319E71EF7403F0A374E8F0741C2E316E
:1012F0009E71CDE4F0A3F090832CE0FE241C319E7F
:10130000245AF8760190832BE0FD741C2E124E9E19
:10131000EDF0ED1253BDE0FCA3E0FD90832BE0FE69
:1013200071EFECF0A3EDF0EE71EFE0FCA3E0FDEE69
:1013300071CDECF0A3EDF0EFC39403500EEEF1ACE1
:10134000FD90832CE0240BFF12469390832CE0FF4A
:1013500031A790832CE0FFF11E90832CE0FF2290B8
:10136000832AEFF0E4FA741C2A319EFFF1ACF19469
:101370006D702A1225F930E0248A7D741C2A319E72
:10138000F57E71DBEEF0A3EFF071ED71C6EEF0A328
:10139000EFF0AF0231A7AF02F11E7F01220AEA642B
:1013A0000370C3E4FFEFF1ACF1946D60050FEFB48F
:1013B00006F3EFC39406500B51D08F7D319BF57E21
:1013C0007F01227F0022E0FEA3E0FFE57E75F01C96
:1013D000A4241CF582E43481F5832275F01CA42436
:1013E00018F582E43481F583E0FEA3E0FFE57E7525
:1013F000F01CA4241AF582E43481F58322E490835E
:1014000029F0E57DF4600CE57D640370271255B783
:1014100030E0217E817FAC120360EF700281E4F145
:101420000CFFBF0F02F148F10C641F600281E4124F
:101430004E3B81E4E57D6403701BF10CFFBF0F0799
:10144000A3E0B4070281E49081ACE0FF715F908378
:1014500028EFF08002F1E4908328E0700281E47EBE
:10146000817FAC120360EF607BE57DC39403507411
:10147000B16A908329EFF09081ADE030E723E57EFB
:1014800071DBEEF0A3EFF0E55030E10771CB1254C1
:10149000B0800971ED71C6EEF0A3EFF0435001800A
:1014A0000971ED71C6EEF0A3EFF012550F401CEF7D
:1014B00060197455257E1225FC30E00FE57130E08F
:1014C0000A7422257E1227434401F012550F401260
:1014D000EF600FB15AE0600A7422257E1227434460
:1014E00004F0E4F6908329E0FF22E57F20E066E443
:1014F000FF319BF971CDE0FCA3E04C7052745A2986
:10150000F8E6704BE57664036039F1E4E4FEEF6ED3
:101510006020741C2E319E71EFE0FCA3E0FDE971A8
:10152000EFE0FAA3E0C39DEA9C4007E4908328F033
:1015300080050EEEB403D7908328E060067576032D
:10154000757701E971EF1254B0745A29F876010FDA
:10155000EF6403709C22AF7DD1DEE57E75F01CA4A4
:10156000241EF582E43481F5832290832A7401F0ED
:10157000F10C12018915A30015A70115B30215CBB3
:101580000315D70415E30815EF0E15F40F15FE101B
:10159000160311160D1315BF1516421616081F0057
:1015A000001651F1BBC15EB156E06002C147122680
:1015B000D3C15EB156E06002C147124C7DC15EB13D
:1015C00056E06002C147124C11C15EB156E06002A4
:1015D0008075124231C15EB156E060028069124DE1
:1015E0009F807BB156E06002805D124DAB806F1230
:1015F0000009806AF1481255B730E062805B124DF5
:10160000B7805B124DD88056124E3B804CAF7DD1D7
:10161000DE1226EDB15AE06045E52130E04053216D
:10162000FE9081ADE054E04401F0E49081B5F0A378
:1016300012015800000000E49081BA123FD4A3F0D8
:101640008005B15AE06005124274801212427D801A
:101650000DB15AE06003124274E490832AF0908145
:10166000ADE030E557E524C394035050E0541F70BB
:101670000C90832B7481F0A374B1F0801DF10CD316
:101680009410500C90832B7481F0A374B6F0800AF0
:1016900090832B7481F0A374CCF0E57E041255AFD7
:1016A0002425F8A607125404FCA3E0FDA3E0FEA342
:1016B000E01255AF2426F812014C0524F10C6018F5
:1016C000E0541F640F6011E0541F641F600A741619
:1016D000257E124F3CE004F090832AE0FF22F113B4
:1016E000E064016026E4FEEEB507092463F1167498
:1016F00001F0801274632EF116E0640360087463D5
:101700002EF116E004F00EEEB403DC229081ADE081
:10171000541F2274632FF582E43482F58322319BB7
:101720001226AB30E6213172245B1225F0E0FFAEC9
:101730000574002E51C81224B44003E4F57A122433
:10174000E8B57A03757901229081AEE024FD602529
:1017500024FD60322406703BF19C71EDEEF0A3EFA6
:10176000F0F19C71CBEEF0A3EFF09081ADE030E5AD
:10177000224323202271CBE4F0A3F09081ADE0302E
:10178000E511432310229081AFE0B4010675760283
:1017900075770522FE90832AE0FDEE229081B0E06D
:1017A000240CFF9081AFE03400FE22E075F01CA411
:1017B0002403F582E43481F583E022F1CE71EDEE6D
:1017C000F0A3EFF0F1CE71CBEEF0A3EFF022908119
:1017D000AFE0240CFF9081AEE03400FE22FF7401E4
:1017E000A80708229083287401F0221218107D1F88
:1017F0007F02124693D290E57130E0034323012229
:10180000E4FEEEC39F500800000000000E80F322AB
:10181000C2907F011100A2C1E433FFBF01087FFA2B
:1018200011007FFA1100221110F19D7D1F7F01111F
:10183000D6908381E060047D1F80027D1E7F0211AF
:10184000D611D2E4FD7F0411D6908100E0FF124A48
:10185000B811D6E57F30E0047D0980027D0F7F0658
:1018600011D6756CBB756D0A756EDC756FA57570DC
:10187000757D6C7B057F0A1246EF1247D790821C5C
:101880001217ABF5701246E990821D1217ABFD7F5F
:101890000C11D690821E1217ABFD7F0D11D6E4FD00
:1018A0007F0E11D67D067F1D11D67D1F7F1C11D6A0
:1018B0007FE231617FE13161F13391ECD29022FD21
:1018C0007F0611D67D707F0711D67FE231617FE1FF
:1018D00031617D037F03908333ED12545B9083333A
:1018E000B19CD2902290832DEFF0A3EDF0D2911114
:1018F000107D3CE4FF11D67D017F0111D690832E2F
:1019000071127D0F11C0F1977D3F7F0411D6C291F6
:101910007F30B176C2917F2AB17691ECD2902211BC
:10192000107D72710590837DE0441911BFC2917FD3
:10193000301253A1D2911254B89083317401F07FC8
:10194000FF1202C3120FDEE0C3942140F21254BF13
:101950009106EF20E50512001580F5F133D2907F56
:10196000E3C290C2911202C3D291D2902211107D93
:10197000737105F19790837DE0440911BFC2917F97
:101980002A1253A1D291D2902290832B124309A301
:1019900074C8F0E4A3F0A3F011107FE13161125498
:1019A000B890832DE0601A125404FF1202C3908392
:1019B0002DE014F0123529700690832BE004F0809E
:1019C000E01254BF910690832FEFF090832EE01425
:1019D000F07F64110012001512101F90832FE02079
:1019E000E50920E40690832EE070D97D307F071151
:1019F000D690832EE0600BA3E030E606A37401F0DE
:101A00008005E4908330F0E4908348F0908330E0E8
:101A1000FF22908346E024FE605214606B14700233
:101A200041C82403600261047E837F287D0191E028
:101A30006052B1A49081ADE020E402610478497C59
:101A4000837D017B017A8179AD120E5C9080FCE090
:101A5000B4DE14A3E0B4AD0FA3E0B4DF0AA3E0B496
:101A60000A0512529941FE12528E807A7E837F2897
:101A7000E4FD91E0600EB1A490835AE020E10312EE
:101A8000528E8062B10F01E5E578657A6029910692
:101A9000EF20E02390835B7406F012524D9081D4C6
:101AA000E0240F600B240F705BB126EF7056804E60
:101AB0009081D5E0FFC1299106EF20E0479083484F
:101AC000E0D39448403E8036908345E0C39415505F
:101AD000028001C35017B10F11E5E52220E2251263
:101AE00054EE6020B1F89083467403F02212001780
:101AF0004322107F09D113125237B11A11E5908396
:101B0000467402F022E4FF11D6E4FD7F0111D69065
:101B1000837FE0FD7F0501D690832BEEF0A3EFF0ED
:101B2000E490832FF0A2C1336401600BAF71EFC466
:101B3000540F20E0028100910EE0FF540EFEC3130B
:101B4000908330F0EF20E605E06407605B9083301F
:101B5000E0D3940450527D407F0711D61251669015
:101B6000832EEFF07002801490832EE0D3942440F3
:101B7000117424F01255657D241242E97FE231612F
:101B8000800B12556590832EE0FD1242E990833060
:101B9000E014F0E0FFF57DC39403500512119BF5AE
:101BA0007E90832FE04401F090832DE030E5077DA7
:101BB0002091D74402F090832DE030E4077D10910E
:101BC000D74404F0A2C1E4337F0070027F01908308
:101BD00031EFF0910EA2C1E4337F0070027F0190DB
:101BE0008331E06F6002910E90832DE0540EC31399
:101BF000908330F06407600543711080035371EFE8
:101C000090832FE0FF22C2911202D9D29122910635
:101C100090832DEFF022E53824FE700281CF24025C
:101C2000600281D6E53914607014700281B41470BA
:101C30000281BE2403600281D6E53A7012757605F2
:101C400075770190837EE054FEF054FDF00110E5BD
:101C50003AB4010F75760575770290837EE054FDE6
:101C6000F0211FE53AB4020F75760575770390836E
:101C70007EE04402F0216DE53A64037059F576F593
:101C80007790811AE0FFA3E0A3CFF0A3EFF0E4F593
:101C90005A90821CF0537FFE22E53A90837EB4FF77
:101CA00005E04401F022E054FEF0A3E53AF0E0FD47
:101CB0007F05801F12553EE53A12544B01D6AF3ACC
:101CC000124A90EF70047F018002AF3A02001DAD0E
:101CD0003AAF39124693227F0711D690832FE02224
:101CE00091FB7E837F287D023189EF22E4FFF13969
:101CF000EF4402FDE4FF11D6C284228F828E8374EA
:101D0000E2F0ED7F0060027F10EF4408A3F0229024
:101D10008359E0FF908345E004F075F00384E5F01B
:101D200090000693FD2290832A7401F0908347E08F
:101D3000FF9081D2E06F701FE52220E2331254EE53
:101D40006004B1F8802A908345E075F00384E5F0E3
:101D5000F0A37404F080194322107F03D113908301
:101D600059E0FF908345E0B11A11E5E490832AF031
:101D700090832AE0FF221202C390832DE0FF12021B
:101D8000C39080FFE0FF1202C39080FEE0FF1202CA
:101D9000C39080FDE0FF1202C39080FCE0FF1202BE
:101DA000C3D29122AF71EFC413540720E023E5247E
:101DB000C39403501CE52220E317AF2312553720AC
:101DC000E00FEFC413540720E007EFC4540F30E0D6
:101DD0000DE553600990830CE0C3947D40197E812A
:101DE0009081AC7F24E4F0A3DFFB7E817FAC71188F
:101DF000EF30E00343750122B1A412549675368288
:101E00009081ACE0F537A3E0F538E4F539F53AD147
:101E1000228002D11C4371045322EF2212547875A0
:101E2000368F53229F4322042212549675368175B1
:101E300037F18F38EF24FE601014601B24027027E6
:101E400090834CE0F539A3801490834EE0FCA3E02E
:101E5000FDECF539ED8007E4F53990834BE0F53A78
:101E6000D12243710480047F03D11C5322EF22E569
:101E700076B40518E57764036002E1327F07F13933
:101E8000EF20E602E132F1337FE2216112274CE5D7
:101E90007624FE7002E119147002E11C147002E154
:101EA0002224046002E12DF1A3600A1255A7600507
:101EB000E4F576F577E578657A60349106EF20E011
:101EC0002E12527BC002C00178D17C817D01D001ED
:101ED000D002125269E57875F015A424001212C8D8
:101EE000E0FF124AF71252704003E4F578D2AFE5F2
:101EF0007F20E0227F01E4FE741C2E12119E245AE2
:101F0000F8E6D394C85004E4FF80050EEEB403E86D
:101F1000EF6003124BBA0214EA022B641214EA02B5
:101F20004B61E57F30E004E4F57622807DE4F576D0
:101F3000F577227D707F0701D612551A1202D9D289
:101F400091221110D291F19DE4FFF139BF1D05439B
:101F5000710880045371F72201277589117588551E
:101F600075C81075CD0075CC0175CB0075CA01D24E
:101F7000C8756903756A18756B09AF8CEF756800D1
:101F8000F567AF8AEF4268E567FFEFB58CEC125456
:101F9000A3E4908381F0227D017F0201D67D1DE4C0
:101FA000FF01D6B1A4120025EF22E57724FE6009D7
:101FB0000470251253E1057722F1A3600B1255A797
:101FC0006016E4F576F57722E559700C1253E1902E
:101FD0008100E0B5600211272275B5FF75A520D2FA
:101FE000BDE4F5AB75AC0475AD0A2290835AE0549C
:101FF000FDF04401F022E4F5ABF5AC75AD0B22C069
:10200000E0C083C082C085C084C0925392FEC0D01D
:1020100075D000C007121FF6115020E022E55820AD
:10202000E006908383740CF0908383E0700B740C53
:10203000F0756318437F088006908383E014F0D026
:1020400007D0D0D092D084D085D082D083D0E03257
:10205000AF72EFC413540722C0E0C0F0C083C08247
:10206000C085C084C0925392FEC0D075D000C0001D
:10207000C001C002C003C004C005C006C007C2C47E
:1020800090C7A8E012018920BE0020F20420FC08BD
:1020900021040C21451021521821721C219020216D
:1020A000AE2421902821AE2C21903021AE342190F5
:1020B0003821AE3C21904021AE44000021CA90C797
:1020C000E8E0F548A3E0F549A3E0F54BA3E0F54AC5
:1020D000A3E0F54DA3E0F54CA3E0F54FA3E0F54EEA
:1020E00075640090C7A97401F0A3F0A3F012401D1D
:1020F00021CA918254FDF05350FB21CA90C7AB74A2
:1021000004F021CA90C7AB7408F0E55020E2133008
:10211000E510E57F90838320E005745EF080037412
:102120000CF0E55020E10E30E50B756300115020F6
:10213000E003437F025350FE435002435004918218
:102140004402F021CA90C7AB7410F0437F20F550D1
:10215000807890C7A97401F0E56424FD6009240229
:102160007027124897806375640090C7B47410F0AC
:10217000805890C7AA7401F0E56424FC60071470CD
:1021800008712E804531EB8041756400F1CE803AB4
:1021900090C7A8E024E89179CEC313CE13D8F912E2
:1021A00017DD8002C333D8FC90C7A9F0801C90C70C
:1021B000A8E024E49179CEC313CE13D8F91217DD29
:1021C0008002C333D8FC90C7AAF0D007D006D00550
:1021D000D004D003D002D001D000D0D0D092D0848F
:1021E000D085D082D083D0F0D0E03290C6C0E090CD
:1021F0008341F090C6C1E0908342F0E55614B409E3
:1022000000400241E690221375F003A4C58325F037
:10221000C5837302222E0222E602225002227C0291
:10222000229102229E0222E60222BF0222D4712EB5
:10223000908341E0908304F0E4FF908341E0FE74DA
:102240005B2FB1F0EEF00FEFB406EF43230441E64D
:10225000908341E0641070207C837D0E7F0751EAFB
:10226000712E432280916A407DE0D394065077E539
:102270002220E4727138806E712E806A908341E072
:10228000641170627C837D0E7F0851EA755605806B
:10229000417C837D167F0851EA75560680347C8325
:1022A0007D1E7F0451EA755607712E432280916A84
:1022B0004037E0D394065031E52220E42C80799019
:1022C0008341E06420701F7C817DF67F0851EA75B0
:1022D000560981BE7C817DFE7F0751EA75560B71E0
:1022E0002E437202A123E4F5562290834374C6F074
:1022F000A374C0F0EF24FFFBE434FFFAEB2DFDEAFA
:102300003CFCEFD394004025908343E0FAA3E02FF8
:10231000123D6BE58224FFF582E58334FFF583E00F
:102320008D828C83F0ED1D70011C1F80D522756499
:102330000590C7B47410F02290830FE02459F8E69A
:102340007034E579703091ACB4100671777F0780F6
:102350000C90830EE06411701D71777F1412029D42
:1023600091CE24001212C891B44003E4F57A91E8AA
:10237000B57A0375790122E57A75F015A42401F97F
:10238000748035F0A801FC7D017B017A83790E7E93
:102390000022E52220E702816943221090830FE0AA
:1023A000F47053E52230E202816653227FE57130FA
:1023B000E210917271897F0712029D7F07121E1C25
:1023C000816690830EE0B4100E917271897F0712BE
:1023D000029D124EB8816690830EE0641160028106
:1023E0006678347C00FD7B017A83790EFE7F1412BF
:1023F000029D91DA8070916A4006E0D3940640080D
:1024000090830FE06475705A90830FE064756007E5
:10241000E02459F8E6600A90835AE030E24030E167
:102420003DE579703591ACB4100671777F07800B6C
:1024300090830EE0B4110971777F1412029D80021F
:10244000802491CE24001212C891B44003E4F57A9E
:1024500091E8B57A11757901800C7F0780067F09B4
:1024600080027F08918D5322EF2290830FE0C39466
:10247000012278347C007D0022FFE434FFFEEF78F7
:10248000032290C7AB7402F090C7AEE0229083287D
:10249000EFF0E52220E21453227F917271897F07C9
:1024A00012029D908328E0FF121E1C2253227F906F
:1024B000830EE022EFF0057AE57AC3940C2275646E
:1024C0000490C7C574FFF090C7B47402F0229083E3
:1024D0000FE0FFE57A75F015A422E536247E70033F
:1024E000024F507F01021E1CE57824FFFFE434FFF9
:1024F000FE7C007D0C1200CBED2212119BD1AB3083
:10250000E620121172245BB1F0E0FFAE0574002EDC
:102510001212C891B44003E4F57A91E8B57A0375D4
:10252000790122E57220E102A1EF5372FD9081F75B
:10253000E0F9F46002A1C9A3E0247F605D14607B30
:1025400024026002A1EF9081FAE0FFF46003EF70D3
:1025500007908261EFF08006EF04908261F0E4FB67
:1025600074017E00A803088005C333CE33CED8F9AA
:10257000FF9081F9E0FDEF5D6014EB12155CE070F7
:1025800013EB12155C7401F0AF03D1058006EB125A
:10259000155CE4F00BEBB406C722437201E4FB7454
:1025A000552BB1FCFF30E00A74552B1253FCEF445D
:1025B00002F00BEBB406E8437180229081F9E060F1
:1025C00004437220225372DF229081F8E024F270DB
:1025D0001EE914FB9081F9E0FF745B2BB1F0EFF082
:1025E000E4FF12119BB5030281FA0FEFB403F3224B
:1025F000F582E43482F58322F074552FF582E434B9
:1026000082F583E022EFD14B30E107D1A0E4F04323
:102610002102EFD14B30E209F130D1C8E4F043217F
:1026200008EFD14BFE30E303432120EE30E40343B7
:102630002180F1A430E60AE57230E405F140440857
:10264000F0EFD1AC30E0034322022275F01CA42449
:1026500014F582E43481F583E022EFD14B30E107B9
:10266000D1A0E4F0432102EFD14B30E209F130D1A7
:10267000C8E4F0432108EFD14BFE30E303432120AF
:10268000EE30E403432180F1A430E60AE57230E441
:1026900005F1404408F0EFD1AC30E00343220222C0
:1026A000742D2FF582E43482F58322FE75F01CA48C
:1026B0002415F582E43481F583E02274212FF5821C
:1026C000E43482F583E0421074272FF582E43482EB
:1026D000F58322F126D1A3EFF0E4F51AFFD1A0E0B3
:1026E000421A0FEFB406F6F1B443210122E57E123F
:1026F00054691252C69081B5E064C9702012155A0F
:10270000E07016F126D1A3EFF0E4F51AFFD1A0E0B6
:10271000421A0FEFB406F6F1B4432101220574E525
:102720007470020573229081AEE0FF742D257E2225
:1027300074212FF582E43482F583E4F022F876FFE9
:1027400074222FF582E43483F583E022E490832819
:10275000F0F1C79406504C745A2FF8E6FFC394C8A2
:10276000403CEFF46038E0FF2455B1FC30E02F74BA
:102770005A2FF876FFE57130E00B908328E0242291
:10278000F1434401F0908328E0FF12155CE06007FC
:10279000F1404404F08007908328E0FFD15A122FC3
:1027A0002880AE22EF75F01CA42416F582E4348153
:1027B000F583E022781B7C007D007B017A8179AF74
:1027C0007E007F0602029D908328E0FFC32290C70F
:1027D000B47411F02212491E1207B8120E93122877
:1027E0001012536D122D87124E7D12289A1240DF5F
:1027F0005372F75371DF5371FEE4908233F0A3F00C
:102800009081F5743FF05371F7908380740FF0223C
:10281000E4908381715890835AE054FBF0E49083F4
:1028200046F0F57AF578F579F57D90821CE0F57E35
:10283000E4F559908100E0F560E4F517F518F51915
:1028400090830AF0A3F0A3F0FFEF04FE121713EE3B
:10285000F00FEFB403F3537FFE537FFD537FFB5321
:102860007FF7537FEF537FDFE4FF745A2F12273D2A
:1028700054FEF012274054F7F00FEFB406EC5375F6
:10288000FD5375F75375FB5375FE22120E9311100D
:10289000119AE490835BF0021FEB124BBAE4FF74D1
:1028A0005A2FF876FFEF1213EF1254B0EF1213CD38
:1028B000E4F0A3F0124F39E4F00FEFB406E1021F89
:1028C00042E53712018928E800291101292502294A
:1028D00048032954B22A07D02A3CD12A4AD42AB321
:1028E000D72AECF000002B3BE53930E005437101BD
:1028F00080035371FEE53930E305437208800353CA
:1029000072F7E53930E40543721061405372EF61AC
:1029100040E5399082C630E306E04402F06140E0D1
:1029200054FDF06140E53820E1026140E57120E0AE
:10293000026140E4FF1225F930E00612274044010D
:10294000F00FEFB406EF6140908233E538F0A3E575
:1029500039F06140E57F30E0024103E53864016011
:1029600006E538640670429081ABE0C394064007E8
:102970009082C6E030E02EE53A9083816005E53A2A
:10298000F08003741EF0E538B406089081F47401F9
:10299000F08005E49081F4F0E4908220F01217EBCF
:1029A000908262800C7F05613DE538B40208908317
:1029B000817401F06140E53864037043E539D394D4
:1029C000065004E53970047F03613DE53914FF12B8
:1029D000265AAF39120C8C120E93121F42AF397463
:1029E000212FF582E43483F583E04402F0AF39749B
:1029F000542FF582E43482F583E04404F061407F93
:102A000003613D7F02613DE5386401702A437F0127
:102A1000FE7F01FD7B017A83797E1201B5E4F576B4
:102A2000F5777FE1121961908381E070026140E4E3
:102A3000715812468F6140537FFE41D5E57F30E0EB
:102A400005121C1661407F02613DE57F30E0601297
:102A5000542B714E9410EE94005050EF9400EE946D
:102A60000040487F7C1209BF90832A120E8C700EA2
:102A7000FE7F10FDF10990835C747CF080179083D9
:102A80002A120E7DC002C001785C7C837D01D001DA
:102A9000D002120E5C908328A3E0245CF582E4341B
:102AA00083F583E53AF0120E1961407F03613D7FA3
:102AB00002613DE57F30E030E5387002614024FC82
:102AC000601024FE60192405701A120FEC120B32EC
:102AD000806E120D2B120E93124E7D119A80611290
:102AE0000B5E805C7F0380557F028051E538B449DE
:102AF0000FE539B4430AE53AB45005437F108040EE
:102B0000E538B44C1FE539B4541AE53AD394004083
:102B100007E53AD394064005E53AB47507AF3A1293
:102B20005177801CE538B4580EE539B44909E53AC7
:102B3000B45404118B80097F0380027F02121E1C93
:102B4000E536648F6007E4F538F539F53A2290836D
:102B500028E0FEA3E0FFC322F09082C6E054FEF01E
:102B60005372FB22E57714601B14601B14601B1466
:102B7000601B14601B24057022121FA3601D537577
:102B8000FE0213FD02444502436902433702431229
:102B9000719C7159120E93B187119A22E490832887
:102BA000F01227C79406506F1225F930E065908324
:102BB00028125598F582E43481F583E0FE9082DD99
:102BC000E0FDEE6D704DEF75F01CA42411F582E46C
:102BD0003481F583E0FF9082DEE0FEEF6E7034908A
:102BE00083281235791254E3FE9082DFE0FDEE6D0A
:102BF0007021EF12543B9082E0E0FEEFB506149096
:102C00008328E0FF242212274344021225F84404BB
:102C1000F08004F128808A908328E06406704DFFDC
:102C20001225F920E007908328EFF080050FEFB41C
:102C300006EE908328E0640670329082C6E030E0B1
:102C400024E4FF908103E0FEE4908328F0EF121764
:102C5000ACFDEED39D4007AE05908328EFF00FEF5B
:102C6000B406EA80079083817401F022E4908381A6
:102C7000F0F576F5779082CFE020E002A1121251B4
:102C8000189080FCE0FF908328F193F583EFF0909B
:102C900080FDB17DF1B0EFF09080FEB17DF139EFB4
:102CA000F09080FFB17DF143EFF09082CAB17DF1E9
:102CB0004DEFF09082CBB17DF1BDEFF0EEF1A0745D
:102CC00088F0EEF1C77402F09082D9B17DF157EF30
:102CD000F09082DAB17DF161EFF09082DBB17DF1AD
:102CE000D7EFF09082DCB17DF16BEFF09082D5B13F
:102CF0007DF175EFF09082D6B17D1250DEEFF0904D
:102D000082D7B17DF17FEFF09082D8B17DF189EF6C
:102D1000B1849082C8E0908102F0F112908328E0A3
:102D2000FF7D01D1C67D02D1C67D03D14A9082F6D6
:102D3000E06009908328E0FF7D04D14A5372FE9041
:102D40008328E0FF24551225FC4402F0745A2FF822
:102D5000E4F6E57130E014908328E0242212274342
:102D60004401F0E4908262F0432302908328E0FF64
:102D700012155CE060061227404404F022E0FFEEEA
:102D8000C454F022F0D1CEE4908339F0908339E03E
:102D9000FDC394064002C1497E837F291250E8900A
:102DA0008330E0FF908339F193F583EFF090832A2D
:102DB000E0F4FFEEF1ADEFF0908329B17DF139EF52
:102DC000F090832CB17DF143EFF0908333B17DF12E
:102DD0004DEFF090832BE0F4FFEEF1BAEFF090832B
:102DE00032E06455FFEEF1A0EFF0908337B17DF152
:102DF000CAEFF0908331B17DF157EFF090832FB19E
:102E00007DF161EFF0908335E0F4FFEEF1D4EFF067
:102E100090832EB17DF16BEFF0908336B17DF1752B
:102E2000EFF0908338E06455FFEE1250DBEFF09046
:102E3000832DB17DF17FEFF0908334B17DF189EF87
:102E4000F0908339E004F0A18C22908329EFF0A365
:102E5000EDF0F10390832AE024FE601E14602F142D
:102E6000604024037054908329E02420D1BB7B016F
:102E70007A8279C87E007F0D803A908329E02430E1
:102E8000D1BB7B017A8279DD7E007F098026908329
:102E900029E02440D1BB7B017A8279E77E007F0F55
:102EA0008012908329E02450D1BB7B017A8279F68D
:102EB0007E007F0E12029D120E192290835CF07824
:102EC0005D7C837D0122D14A908328E0FF2212009D
:102ED0004DE4908329F07E007F11F107908329E073
:102EE000FF90835CF0EF125469C002C001D1BFD0E3
:102EF00001D002120E5C908329E0FFF12F12512FB6
:102F000040D4227E007F107D007B017A83795C02B1
:102F100001B5F10390835C7403D1BE7B017A8079A3
:102F2000FC125589020E19F0908328E004F022EF7C
:102F30001250CFFE7D11020C132468F582E4348216
:102F4000F583222469F582E43482F58322246AF52C
:102F500082E43482F58322246EF582E43482F583A0
:102F600022246FF582E43482F583222471F582E411
:102F70003482F583222472F582E43482F58322249C
:102F800074F582E43482F583222475F582E4348278
:102F9000F58322E0FEC454F02466F582E4348222F4
:102FA000C454F0246CF582E43482F58322C454F0D6
:102FB0002467F582E43482F58322C454F0246BF54F
:102FC00082E43482F58322C454F0246DF582E43423
:102FD00082F58322C454F02470F582E43482F583B0
:102FE000221207B85350FE5375FE5371DFE4F524E7
:102FF0005322F75323DF5323EFF576F57775D90185
:10300000C292121FD975A52A75A401D29222E55049
:1030100030E10930E008111F5350FE22112E2243E7
:103020007F081249C71249D312490E02101FE57FCB
:1030300030E40BE52220E206537FEF124A47E4908A
:103040008328F01227C794035025EF2481FF123AFA
:1030500001908328E0FE2429F1AAEFF074292EF1D3
:10306000AAE06006740A2E125548122F2880D490C8
:103070008329E06007E517700312408390832AE0FC
:103080006007E5187003123E1290832AE0600BE59A
:10309000187007E552600312420D90832AE0600B1E
:1030A000E5187007E552600312417990832AE060C9
:1030B0000BE5187007E55260031241B190832BE0D5
:1030C000600AE5197006E5536002312490832BE015
:1030D000600BE5197007E55360031247EA90832BF4
:1030E000E0600AE5197006E5536002B18FE4908351
:1030F00028F01227C79403502A74172FF8E6FD60B2
:103100001DE025E0FFE433FEEF24B7FFEE34C78F68
:1031100082F583EDF0908328E02417F8E4F6122F6F
:103120002880CF22E524C39402405090C5807411BA
:10313000F0A374FFF0A37449F0A3E524F0A3E52500
:10314000125487E529F0A3E52AF0A3E52BF0A3E5C7
:103150002CF0A3E52DF0A3E52EF0E5249403401414
:10316000A3E52FF0A3E530F0A3E531F0A3E532F0BD
:10317000A3E533F0E4F52475191422E52330E00DBE
:103180005323FEF1C4E4F50B430B0161ADE49083DE
:103190002CF0B130501D122740FFC31330E010B1A6
:1031A00080EF54FDF1BB750A40750B02E461ADB1CF
:1031B0002980DFE490832CF0B1305069122740FF62
:1031C00030E05EB180EF54FEF1BB750A41750B042F
:1031D000B1762409F582E43481F583E0540FF50CCF
:1031E000745A2FF8E66005430C40800812170C60F3
:1031F00003430C8090832CE075F01CA4240AF58214
:10320000E43481F583E030E003430C20E57230E3E1
:1032100003430C10B176F1CEF50EEFF1E4F50D613C
:10322000B3B1298093E490832CF0B130502A122757
:1032300040FF1313543F30E01BB180EF54FBF0EE1E
:1032400012155CE0600E90832CE0FD7F807EC5F15E
:10325000348F1922B12980D290835AE030E058543B
:10326000FEF0750810908347E0FFF509750A417577
:103270000B0590834AE0FE540FF50C90835AE02032
:10328000E105EE4440F50CEF64756024908347B18E
:103290007924E9F582E43480F583E0F50EEF75F0EA
:1032A0001CA424EAF582E43480F583E0F50D800562
:1032B000E4F50EF50D61B3E490832CF0B130501FAE
:1032C0001225F9FF1313543F30E0101253F5EF5459
:1032D000FBF07F807EC5F1938F1922B12980DDE458
:1032E00090832CF0B13050161225F9FFC31330E053
:1032F000091253F5EF54FDF08015B12980E6E57110
:1033000030E71590832CE0B4060E53717F7D077F64
:10331000807EC591958F1922E52330E12F5323FD3F
:10332000908220E07021F1C4F50B530BFE90826275
:10333000E0F50CE4F50D90821FE0FFB4FF05E4F525
:103340000E80028F0E806CE4908220F0E52230E245
:1033500013C4135403700D7F807EC5F1D98F1953A8
:1033600022FB8013E52230E215C4135403600F7F63
:10337000807EC571DC8F195371FB5371DF22E52309
:1033800030E51B5323DF1254D7750B031213EDE006
:10339000FCA3E0FDECF50C8D0DE4F50E8015E523A6
:1033A00030E4195323EF1254D7750B04E4F50CF5F0
:1033B0000DF50E7F807EC5B1398F1922E524640199
:1033C000701990C5807410F0A3E525F0A37449121C
:1033D0005487E529F0E4F524751907227534119115
:1033E00055E53AF0EF2407918EE53BF0EF24089184
:1033F0008EE53CF0EF2409918EE53DF0EF240A9133
:103400008EE53EF0EF240B918EE53FF0EF240C911A
:103410008EE540F0EF240D918EE541F0EF240E9102
:103420008EE542F0EF240F918EE543F0EF241091EA
:103430008EE544F0EF2411918EE545F0EF241291D2
:103440008EE546F0EF2413918EE547F053229F530B
:1034500022FB7F14228F828E83E534F0A3E535F0C2
:103460008F828E83A3A3E536F08F828E83A3A3A3DE
:10347000E537F0EF2404F582E43EF583E538F0EF1C
:103480002405F582E43EF583E539F0EF2406F58264
:10349000E43EF58322A905E4FDEF2D918EE4F00DC5
:1034A000EDB40FF58F828E837420F0A3A37441F0E6
:1034B000E9D39406400E8F828E83A3E4B16EA37489
:1034C00002F08062E9048F828E83A3F0E57230E01F
:1034D00008B16FA37401F08005B16FA3E4F0E9F1C6
:1034E000E4FDEF2404918EF158F1CEFDEF24059117
:1034F0008EEDF0E912264BFD918BEDF0E91226AC32
:10350000FDEF2407918EEDF0E91227A5FDEF2408C9
:10351000918EF1582417F582E43481F583E0FDEFB4
:103520002409918EEDF07F0F2290832CE004F0228D
:1035300090832CE0FFC39406228F828E83E508F0EF
:10354000A3E509B16EE50AB16EA3E50BF0EF240423
:10355000918EE50CF0EF2405918EE50D918AE50E34
:10356000F07F07228F828E837420F0E904A3F08F0E
:10357000828E83A3A32290832CE0FF75F01CA422EB
:1035800090832CE0FE2422F582E43483F58322E448
:1035900090832CF0B130502F122740FF1313135497
:1035A0001F30E01F90832CE0B185EF54F7F07E00D0
:1035B0007F207D007B017A8279351201B590832CC2
:1035C000E0800EB12980CDE52330E30F5323F7E5EA
:1035D0007E04FF7D807CC5B1DC8F19228D828C83B7
:1035E0007411F0123FCA74661253CBD1B4F1B2D148
:1035F000B4908242F16090823BE0540F4FD15090E2
:10360000824AF160908243E0540F4FFFED240DD1C8
:10361000B4908244E0FFED240ED1B4908245E0FFE7
:10362000ED240FD1B4908246E0FFED2410D1B49088
:103630008247E0FFED2411D1B4908248E0FFED24F1
:1036400012D1B4908249E0FFED2413D1B47F14224B
:10365000FFED2406F582E43CF583EFF090823CE038
:10366000FFED2407F582E43CF583EFF090823DE026
:10367000FFED2408F582E43CF583EFF090823EE014
:10368000FFED2409F582E43CF583EFF090823FE002
:10369000FFED240AF582E43CF583EFF0908240E0F0
:1036A000FFED240BF582E43CF583EFF0908241E0DE
:1036B000FFED240CF582E43CF583EFF022123FAFDE
:1036C000908237E0FF12428BEF64167037F170740E
:1036D00021F17DE0F168F0E4FF74382FF582E434E5
:1036E00082F583E0FEEF2403FDE433FC90832CE0BD
:1036F000FAA3E02DF582EA3CF583EEF00FEFB41D5E
:10370000D87F2022F1707420F17DE0FDF168125322
:10371000CBD1B4F1B2D1B490823BE0D1509082428F
:10372000E0FFED240DD1B4908243E0FFED240ED1F3
:10373000B47F0F22A905E4FDEF2D918EE4F00DED8D
:10374000B40FF5B1647442F0745A29F8E66006B11A
:103750006FA37401F07F0F22EDF0E975F01CA42235
:10376000E054F0C454F0FF22F5828C83A3A3EF222F
:1037700090832CE0FEA3E0FFF5828E8322F0E57EAD
:10378000048F828E83A3F0908237E0FF90832CE039
:10379000FCA322A905E4FDEF2D918EE4F00DEDB41C
:1037A0000FF5B1647440F07F0F22F582E43483F5A5
:1037B000832290823AE0FFED240522F0750810EE96
:1037C00004F509227508107509FF750A4A222405B7
:1037D000F582E43481F583E0227534109155E53AA1
:1037E000F07F072275F01CA42406F582E43481F5ED
:1037F00083E02290C700E4F0A3F0E548541F146072
:103800001214601A24027045E558540125E090C74F
:1038100000803351285036E55030E5318029E54CA1
:10382000702BE54D547F70057F02FE801EE5503001
:10383000E51BE54D30E716547FC39404500FAF4DA0
:10384000115090C700EFF07F027E00611802004522
:103850005159401BEFD394055015ED20E70A512133
:10386000117B20E00A1C8007117220E002E4FCAF0B
:103870000422ED547F75F002A424B4FFE5F034C7B0
:103880008F82F583E022AD07ED547FFF701D90C756
:10389000ACE04401F090C7DEE04401F090C7ADE039
:1038A0004401F090C7DFE04401F022EFD3940550CB
:1038B00054ED20E72690C7DFC083C0823106800226
:1038C000C333D8FC4FD082D083F0ED5121117B540B
:1038D000FEF090C7D7EDF02420F022ED547FFD904C
:1038E000C7DEC083C08231068002C333D8FC4FD00C
:1038F00082D083F0ED117554FEF0ED241090C7D7FF
:10390000F0ED2430F022E0FF7401A8050822745184
:103910002FF8A64BEF2481FF118631E9908341E017
:1039200004F0225128503BE55030E536E54D600467
:103930006401702EE54B600464017026E548541F55
:10394000FFBF010FE4908341F031F394035016312F
:103950000E80F6E4908341F031F394035007310E6A
:1039600080F612004522E548541F700BD3E54B94B6
:1039700001E54A94004003020045E54B605231FAEC
:1039800031F39404500AEF2480FF1186311C80F03B
:10399000755020E4FFEF700875547D75557D800CDF
:1039A00074542FF8E4F674552FF8E4F60FEFB401D1
:1039B000E4437F08437F0231FA908341E0FFD394D0
:1039C00005502690C7D7EFF0EF2440F0311C80E976
:1039D00031FA31F39404500BEF2480FF1248DF31A9
:1039E0001C80EF755010437F0475640590C7B47454
:1039F00012F022908341E0FFC3229083417401F0D2
:103A00002251594019EFD394055013ED20E7095185
:103A100021117B60091C800611726002E4FCAF0476
:103A20002275F002A424C422C3E54D9403E54C940E
:103A30000022E548541F6401701CE54B454A70168E
:103A400051285012E55030E50DE54F7009E54D2441
:103A500081FF11868093020045AD077C01ED547F04
:103A6000FFD3940022E548541F24FE601B240270FB
:103A70005FE54B6401454A7057E549B40105535869
:103A8000FE804B4358018046E54C7044E54B454A67
:103A9000703EE5496401701FE54D547F7002802E31
:103AA000E55030E52BE54D30E726547FC3940450B4
:103AB0001FAF4D11868017E55030E514E54D30E716
:103AC0000F515E400BEF94045006AF4D51D321E9E6
:103AD000020045EF547FFE70030227CEEED394051B
:103AE0005016EF20E70451218009EF547F75F00252
:103AF000A424B4117B4401F02251285018E5503021
:103B0000E513E4FFE54D7008854A54854A557F0169
:103B1000EF600221E90200458E658F66E54E600682
:103B2000E4F54E754FFF918D50048E658F6691833D
:103B30004005756401800375640390C7B5E566129E
:103B400024C6E4F565F5662251285015E55030E5A8
:103B500010E54D700C90C700E554F07F017E0080A9
:103B6000B7020045E548541FFFBF01135128500F0D
:103B7000E55030E50A90C700E4F07F01FE8099022D
:103B8000004551285016E55030E511E54D6003B46D
:103B9000010A7451254DF8E691546118020045510F
:103BA0002840028151E55020E502815190C700E58F
:103BB0004BF0A3E4F1D4A3F0E54A64016002814034
:103BC000E54D70051247FC8027E54D64017011E555
:103BD000527004D19C8019E54BB4020491A180106D
:103BE000E54DB4010FE54BB4030AE55260067F05CD
:103BF0007E00805BE54DB4010FE54BB4040AE5524D
:103C000060067F027E008047E54DB4010FE54BB4AE
:103C1000080AE55260067F027E008033E54D6402AB
:103C2000702FE553602BE54BB410067F077E0080B4
:103C30001EE54B6411701A7C067D807F14FE801D8A
:103C4000E54AB4020CE54D7008908304E09154619C
:103C50001802004590C700F07F017E00228E658F1C
:103C600066AE04AF058E618F62918D50048E658FB4
:103C7000669183400575640180037564031248975B
:103C80000224C7C3E5669408E565940022E54EFE6C
:103C90007C00E4254FFFEC3EFEC3EF9566EE956594
:103CA000227B007AC791F3E50FF07F13B19A9083DE
:103CB00041EEF0A3EFF07F15B19AA3EEF0A3EFF081
:103CC000908341A3E0B101A3F0908344B1D29083EB
:103CD00041B1C7B16BEFF0908343E0FEA3E07804FD
:103CE000CEA2E713CE13D8F8B14DE512F0E4F512E9
:103CF0007F08225321FB8B828A837402F0A3E51094
:103D0000F08B828A83A3A322AB07AA0691F3E50F67
:103D1000F07F13B172F1AF7F15B172A3EEF0A3EF94
:103D2000F090832CA3E0B101A3F090832FB1D29047
:103D3000832CB1C7B16BEFF090832EE0FEA3E07847
:103D400004CEA2E713CE13D8F8B14D809DFFEB242B
:103D500005F582E43AF583EFF0EB2406F582E43AC8
:103D6000F583E511F0E4F511EB2407F582E43AF56B
:103D70008322B1B47003FEFF22B1BD4002807FB147
:103D8000DFA8075005B1EE7F0122E6FC08E6FDA89A
:103D900007E4F608F6AE04AF0522B1B47003FEFFE7
:103DA00022B1BD40028057B1DFA8075005B1EE7FB8
:103DB000012280D6A807E6FC08E6FD4C22D3ED944C
:103DC000FFEC6480948722E0540FFFEF4DFFEB245B
:103DD0000422E0540FC4F8540FC868FFAD0722A8AE
:103DE00007E6FC08E6C39401EC648094782208742A
:103DF000FF26F618740736F64321047EF822A8073A
:103E000008740126F61874F836F64321047E077FFD
:103E1000FF22E52130E3165321F7F1BA1226BBE069
:103E2000420F0FEFB406F5E55270138009E521301B
:103E3000E214E5527008FF7EC6D1478F18227F003A
:103E40007EC6B1088F1822AD07AC065321FB8D82C8
:103E50008C83E510F0AF14AE13D17FA3EFF0AF1653
:103E6000AE15D17F8D828C83A3F1CAA3E511F0E456
:103E7000F513F514F515F516F511F5127F0422D397
:103E8000EF947FEE6480948040037F7F22C3EF94A1
:103E900081EE6480947F50037F8122225321FB9026
:103EA000C700E510F0D3E514947FE5136480948097
:103EB0004006A3747FF08018C3E5149481E5136471
:103EC00080947F90C70150057481F08003E514F061
:103ED000D3E516947FE51564809480400890C7026E
:103EE000747FF08018C3E5169481E5156480947F93
:103EF00090C70250057481F08003E516F090C70367
:103F0000C16CE548541F704DE54A24FE600F1460F3
:103F10001424026002E1A47C057D4E80247C057D92
:103F2000607F548053E54B14601314601824FE60C6
:103F30001C2404706F7C037DA47F04803B7C037D84
:103F4000A87F1280337C037DBA7F1A802B7C037D8F
:103F5000D47F1E8023E548541F64017047512850C8
:103F600043E54AB42116E54D75F019A42472F58293
:103F7000E43405AD82FC7F097E008026E54AB42248
:103F800023E54D25E025E024B6F582E43405F1C1B2
:103F9000FFE54D25E025E024B4F582E43405F58302
:103FA000F1A7815D020045E493FC740193FD22902A
:103FB000832CEEF0A3EFF022EFF0E4F510F50FFF05
:103FC00022F583E493FE74019322A3EFF08D828C9B
:103FD00083A3A322F0A3F0A3F0A3F0A3F0A3F02205
:103FE000E548541F7017C3E54B9480E54A94005090
:103FF0000CE55030E5047550202275501022E5483C
:10400000541F7016E55090C70030E5057401F0802C
:1040100002E4F07F017E00023B18020045E4F55601
:10402000E548546024E0602524207054E54954F0AC
:10403000704EE54990041293FFE54854806F70403C
:10404000E54925E024F2F582E43403802AE5495469
:10405000F0702DE54990067093FFE5485480B50750
:104060001FE548541FFFBF011775F002E549A4245E
:1040700050F582E5F03406123FC1AA06F90201AFFD
:10408000020045E52130E1165321FD317011D8E4DD
:10409000FF1226A0E0421A0FEFB406F5800DE521CD
:1040A00020E008E554600CE55570087F807EC6115D
:1040B000B48F17225321FE8F828E83E51AF0A3E47A
:1040C000F0EF240231E17B007A00791B1227C0E572
:1040D000546002F5557F08227A00791A0201B57EF4
:1040E000007F037D007B007A0079211201B5E4F5A1
:1040F00024FE7F07FDFB11D87E007F087D007B003A
:104100007A00790F1201B55100315A7A837905315D
:104110005A7A83790D315A7A83790431667B007A31
:1041200000793431667B017A83790E1201B53170E2
:104130007A0079081201B57E007F047D007B007A49
:104140000079711201B5E4FF74172FF8E4F6740AD0
:104150002F1255480FEFB403EF221201B57E007FF6
:10416000017D007B01221201B57E007F147D0022BB
:104170007E007F077D007B0022E52130E70E532182
:104180007F315D7A8379051201B58005E52130E63E
:10419000087F007EC6319A8F18225321BF8F828EEE
:1041A000837404F0908305E08F828E83A3F07F02F6
:1041B00022E52230E10E5322FD315D7A83790D1222
:1041C00001B58005E52230E0087F007EC631D28F40
:1041D00018225322FE8F828E837408F090830D8004
:1041E000C6FFE43EA807FC7D01228F828E83532107
:1041F000EF7403F0EF240131E15106512A7F0522CB
:104200007E007F047D007B017A83790622E52130E0
:10421000E50A5321DF51001201B58005E52130E4A4
:10422000087F007EC631EA8F18227E007F040202DA
:104230009D78067C83516B512A432110227E007F9A
:10424000207D007B017A8279351201B59081ADE045
:10425000541F908237F09081ADE0541FFF518BEFD7
:1042600024FDFFE434FFFE78387C827D017B017AF7
:104270008179AE22513D12029D43220822E572301F
:10428000E408513D12029D43230822EF70047E058D
:10429000800AEFD394107E1650027E0AAF06229059
:1042A000832EEDF0123FAFF5828E83A3E0541FFF03
:1042B000518BAD0790832C51E1FB90832F7109A3A3
:1042C000EBF0121810C291908332E0540744A8FF1B
:1042D0001202C390832F51E1FD1202F2D291D290CB
:1042E00022E0FEA3E0FFA3E0229083327109D39481
:1042F0002040037420F0C2917F611202C390833288
:1043000051E1FD120313D29122EEF0A3EFF0A3EDE1
:10431000F02278F67C827D017B017A8179AF7E0084
:104320007F0E12029D7130D1A9120337911C519F4B
:10433000757602E4F577229081B0E09082E7F0E4B0
:10434000FF74B12FF582E43481F583E0FE74E82F29
:10435000F582E43482F583EEF00FEFB40EE3D1A9D9
:10436000120337911C519F80C7D18FE4FF74AF2F88
:10437000F582E43481F583E0FE74D92FF582E434CC
:1043800082F583EEF00FEFB404E3D17A9082D591F9
:1043900023A39123E4FF74D52FF582E43482F583BF
:1043A000E0FE74D32FF582E43481F583EEF00FEF55
:1043B000B404E3E4FF913874DD2FF582E43482F530
:1043C00083EEF0913874D72FF582E43481F583EED3
:1043D000F00FEFB404DFE4FF912B74E12FF582E4DA
:1043E0003482F583EEF0912B74DB2FF582E4348177
:1043F000F583EEF00FEFB404DF9081BBE09082E52F
:10440000F0D16DA37402F09082E5E09081DFF07E40
:10441000817FD0120337911C519F61307E817FD004
:104420007D0422E5F3F0A3E5F3F02274B72FF582C3
:10443000E43481F583E0FE2274B32FF582E4348105
:10444000F583E0FE224372047E007F3D7D007B0108
:104450007A8279C71201B59081BAE030E21090817A
:10446000B7E0B404099081B4E0C39408500B908283
:10447000C6E0C31320E002C1619081BAE030E317C7
:104480009081C0E090821FF0E0701290838104F070
:104490009082627405F02290821F74FFF0908381F5
:1044A0007402F090826214F07F031209BFAA06A979
:1044B000079083297401F1CF908329D1DB6B7008B9
:1044C000E965827003EA65836002A14E124ABF90DB
:1044D0008328EFF0C2FB6024D2FB90000BE09080B9
:1044E000FCF090000CE09080FD1255239080FEF0CF
:1044F00090000EE09080FFF0C2FB8018D17AE5F3C7
:104500009080FCF0E5F3A3F0E5F3540F4490A3F0A2
:10451000E5F3A3F0F1D7757001D1E98031E4FFFE36
:10452000EE1217ACFD908102E0B505047F01800515
:104530000EEEB406EBEF7016908102E0FF600FC341
:1045400094014006EFD394064004EFB475089081BF
:1045500002E004F080C79081ACE09082C7F09081C7
:1045600002E09082C8F09081B4E09082C9F090811E
:10457000B5E09082CAF09081B6E09082CBF0908155
:10458000B7E09082CCF09081B8E09082CDF090813D
:10459000B9E09082CEF0E4908328F0908328E0FF89
:1045A00024BAF582E43481F583E0FE74CF2FF582DE
:1045B000E43482F583EE122F27E0B406DED16DA33A
:1045C0007401F09080FCE09081D3F09080FDE09049
:1045D00081D4F09080FEE09081D5F09080FFE09053
:1045E00081D6F09082C8E09081D7F09082C9E090A7
:1045F00081D8F0A37488F0A37402F0A37404F0A32C
:104600007401F09082CEE09081DDF0E4908328F098
:104610001227C79406501074DE2FF582E43481F51A
:1046200083E4122F2780E99082CFE0542F9081DE1F
:10463000F09081F4E060079081E3E04401F07E8136
:104640007FD0120337908220E0FD7E817FD0600210
:104650008002E4FD519F9082C8E0FD7F0ED19361FE
:10466000309083817401F090826204F0229081ACDA
:10467000E09081D0F0A3741FF02275E810D2E88595
:104680008CF3858AF385CDF385CCF320E8FD227D7C
:104690001E7F02908331EFF0A3EDF012181090838B
:1046A00031E0FFA3E0FD0218D69081ACE09081D00C
:1046B000F0A3740FF0A37406F0A37402F0A304F047
:1046C0007E817FD0221209BFAA06A90790832D748C
:1046D00001F0A3EAF0A3E9F090832DE0FBA3E0FA58
:1046E000A3E0F97401900000227D6C7B057F0B90A4
:1046F0008331EDF0A3EB12545B908332E06015142C
:10470000FF908331E02FF8E6FF1202C3908332E07E
:1047100014F080E5D291D29022E538242060622402
:10472000DC6002E1C59080FCE539F0A3E53AF0A336
:10473000E53BF0A3E53CF0908103E53DF012181055
:104740007D397B057F0BD1EFD290AF3FEFFDAF3EC0
:10475000F1C6908118F0A3EFF0AF41EFFDAF40F14B
:10476000C6A3F0A3EFF0908100E542F0E0FF124A0B
:1047700090EF700590810004F0908100E0FF02004E
:104780001D9080FCE53DF0A3E53CF0A3E53BF0A3E4
:10479000E53AF0908103E539F0F1D7908103E0F537
:1047A00070121810D1E9D29090837FE53EF0E0FDC1
:1047B0007F05D19312553EE53F12544B1218D67522
:1047C000760575770322EFFEED240CFFE43E22F020
:1047D000A3EAF0A3E9F0229080FCE0F56CA3E0F5F9
:1047E0006DA3E0F56EA3E0F56F22E52230E30C53F4
:1047F00022F77F807EC51236BD8F19225321FE908D
:10480000C700E51AF0A3E4F0A3E51BF0A3E51CF054
:10481000A3E51DF0A3E51EF0A3E51FF0A3E520F03E
:104820007F0822123A285069E55030E564E54A6471
:1048300002705EE54D700DE54F6401454E700575E3
:1048400056018047E54D64027028E5536024E54B2E
:10485000B4100DE54F6407454E7005755603802B67
:10486000E54BB4110DE54F6414454E7005755604C3
:104870008019E54DB4021AE54BB42015E5536011DB
:10488000E54F640F454E7009755608854F57022451
:10489000BEE4F556020045E4FFE5664565602C057B
:1048A00062E562AC617002056114F5828C83E49369
:1048B000FEEF2400FDE434C78D82F583EEF0E5665B
:1048C0001566700215650FEFB408CE90C7B5EFF00E
:1048D000E56645657008EF6408600375640322EFC0
:1048E000547FFE7401A806088002C333D8FC543EEE
:1048F000F4FEEF20E70B90C7ADE05EF090C7DF80DD
:104900000990C7ACE05EF090C7DEE05EF0227F0168
:1049100090C7D7EFF02440F00FEFB406F322E4FE87
:1049200074502EF8E4F60EEEB409F5E4F554F5559E
:10493000FE74512EF876010EEEB403F5EF6005E437
:10494000F550800FE550C394105005755008800352
:10495000755010E4F56431C790C7AE741DF090C770
:10496000E0E4F0A3F090C7DDF090C7AC04F090C78E
:10497000DEF090C7ADF090C7DFF090C7A9743FF0AC
:10498000A3F090C78131B390C7887430F0A331B3DE
:1049900090C7E27418F090C7F0E4F090C7F874087C
:1049A000F090C7E37404F0D2BBD2BC90C7AB741FC5
:1049B000F0210E7410F0A37420F0A37430F0A374EF
:1049C00040F0A37450F02275A0407F011207DCE490
:1049D000F5A02290C7D67402F0000014F07F0712F1
:1049E00007DC90C7D6E4F022C0E0C0F0C083C082EC
:1049F000C085C084C0925392FEC0D075D000C00064
:104A0000C001C002C003C004C005C006C00775A035
:104A100040121FF65350FE5350FD756300437F084C
:104A20005372DF75A000D007D006D005D004D003A4
:104A3000D002D001D000D0D0D092D084D085D08206
:104A4000D083D0F0D0E032C2AF51661207B87FFAFF
:104A50001207D0E4F5F5FFEF90002D93F5F20FEF7C
:104A6000B40AF402740090C7D6E04408F0229083A0
:104A70007FE0C3940550057451F0800790837FE078
:104A800024FBF090837EE030E10302196D02191FD0
:104A9000EFD394185006EF60037F01227F0022902D
:104AA0008331EFF05190EF700590833104F09083E3
:104AB00031E090069393FF22519FAD077F0522D2EC
:104AC000FB7F0BFE51EA4DFDA3A3E0FC4DFD12352B
:104AD0006FA3E0FB4D601051EA5DFDEC5DFDEB5D09
:104AE000F460047F0180027F00228F828E83A3E026
:104AF000FD8F828E83E022908328EFF0E014F0E0B7
:104B0000245AF8E6705A9081D0F0A3E054BFF0E444
:104B1000908329F0908329E0FFC39403504212113F
:104B20009BFF908328E0FEEF6E702D9081D1E054C2
:104B30001F64106007E0541FFEBE1108EF1217AC8F
:104B40009081D2F07E817FD01203377E817FD0901A
:104B50008329E004FD02429F908329E004F080B4A1
:104B600022E577B4010C908100E0FFF56071AC059F
:104B70007722121FA360195375FE7E817FAC12034A
:104B800060EF60201213FDEF601AE4F576F57722EE
:104B9000E55970100577E577B40602801D90810015
:104BA000E0FF71AC22EF9006AC93FF2271A59081DB
:104BB00000EFF012001D75590C227576047577010F
:104BC00022EC30E714C374019DFB74F871F6D391A5
:104BD00002401A76F808760122C374FF9DFB740721
:104BE00071F6C39102500676070876FF2208ED267B
:104BF000F618EC36F6229CFAA807E6F58308E6F5E7
:104C00008222EB9582E5836480F8EA648098A807A5
:104C10002291F21226CB123FB81226BBE0420F0FB0
:104C2000EFB406F59081B1E0FE9081B0E0FDAC06F6
:104C30007F1371C19081B3E0FE9081B2E0FDEEFC84
:104C400091E09081B4E0FD91530FA3E0FD915343B7
:104C5000210422ED30E711A807E6FEC374819DFC14
:104C6000D391E74014768122A807E6FEC3747F9DA6
:104C7000FCC391E75003767F22ED26F62291F212D3
:104C800026CB123FB81226BBE0420F0FEFB406F559
:104C90009081B1E0540FFE9081B0E07C002400FFD1
:104CA000EC3EAD07FC30E30344F0FC7F1371C19090
:104CB00081B1E054F0C4540FFD7C00A3E075F01006
:104CC000A42DFDEC35F0FC30E30344F0FC91E090C2
:104CD00081B3E0FD91530FA3E0FD915343210422E2
:104CE0007F1571C17F1122EE6480F8EC648098A872
:104CF00007229081AEE0FF7421257EF582E43482A4
:104D0000F583EFF09081AFE0FF7427257E22E52345
:104D100030E223E579701F5323FB908328F012279C
:104D2000C79403501112119B245AF8E6700312170E
:104D30001E122F2880E8E4908328F01227C79403DE
:104D4000503012119BFF245AF8E67021047E00A80F
:104D500007088005C333CE33CED8F9FF9081F5E044
:104D6000FDEF5D6008908328E0FF1211A7122F2845
:104D700080C9908261E0B4010EE4F0FFEF12155C8F
:104D8000E4F00FEFB406F5E5796013121C06EF307E
:104D9000E00C7FE1121961E4F57AF578F57922905B
:104DA00081AEE0908305F0432140229081AEE090F7
:104DB000830DF0432201229081AFE0B44B05E571F1
:104DC00030E00AD119E0F53A121E22B1CE22437129
:104DD000044371205322EF22D119E0F53AA3E0F504
:104DE0003BA3E0F53CA3E0F53DA3E0F53EA3E0F5F1
:104DF0003FA3E0F540A3E0F541A3E0F542A3E0F5D1
:104E000043A3E0F544A3E0F545A3E0F546A3E0F5B0
:104E10004743226043220480B54322109081ADE0D5
:104E2000F534E57E04F5359081AFE0F536A3E0F585
:104E300037A3E0F538A3E0F539A3229081AEE01462
:104E4000601014602314602714602B2404702D025A
:104E50004661E57DB4FF03E48003E57D0490822094
:104E6000F0757602757701227576027577022275E4
:104E700076027577032275760275770422E4FF7453
:104E80001C2FD19EEFF00FEFB403F4E4FFEF1215E7
:104E90005CE4F00FEFB406F5E4908261F022F58255
:104EA000E43482F58322E4FF121713E0B4030122F5
:104EB0000FEFB403F37F0022E536247F600D24FE5C
:104EC000600F2403700D1228C18003120823021EF4
:104ED0002280057F01021E1CE537244D603324FE2D
:104EE0007052E538D3947F5024AF381209BFEF4E8B
:104EF00070028019AA06A9077B01C002C001783898
:104F00007C007D00D001D002120E5C80207F0380E7
:104F1000257E007F107D007B007A0079381201B574
:104F2000E4FFF139F149A6060FEFB406F54322601C
:104F3000432204227F02021E1C74162FF582E434E1
:104F400082F5832214F5828C83E0FE74382FF822D8
:104F5000E537242F70030250AB241C60030250B9C4
:104F6000E57F20E0030250A7E538D3947F501BE58E
:104F70003864026015785C7C837D017B007A00795F
:104F800038120E5C120E190250BEE538C394F05070
:104F9000030250A3E538D394F540030250A3125105
:104FA00018E538540F908328F0E0FF122F95F58311
:104FB000E539F0EF122FADE53AF0EFC454F0122FBF
:104FC00039E53BF0EFC454F0122F43E53CF0EFC459
:104FD00054F0122F4DE53DF0EF122FBAE53EF0EF01
:104FE000122FA07488F0EF122FC77402F0EFC45490
:104FF000F0122F57E53FF0EFC454F0122F61E54057
:10500000F0EF122FD4E541F0EFC454F0122F6BE50E
:1050100042F0EFC454F0122F75E543F0EF11DBE5D9
:1050200044F0EFC454F0122F7FE545F0EFC454F084
:10503000122F89E546122D84908328E0FD11CFAB15
:1050400007FA0BEBAE0270010A14F5828E83E06D55
:10505000600280461217E41227C79407501A0BEB20
:10506000AC0270010A124F44E66E60077F09121EFF
:105070001C8005122F2880DF74022BFBE43AFA9083
:1050800083287407F01227C7940F50320BEBAC0241
:1050900070010A124F44E66E60047F09801D122FD2
:1050A0002880E27F0380147F028010E57F30E005D6
:1050B00012471980097F0280027F02121E1CE5360A
:1050C000648F6007E4F538F539F53A432204227518
:1050D000F020A42400FFE5F0347022C454F02473BF
:1050E000F582E43482F5832290833AEEF0A3EFF068
:1050F000ED11CFFE0FBF00010EAA06A9077B01C06C
:105100000290833AE0FEA3E0AA06F8AC027D01D04B
:10511000027E007F1002029DE4908329F090832993
:10512000E0FD122F95AF82FE11E8312F40EF229063
:105130008329E004F0E0C3940622EF7A6C60027ADF
:105140006E7B007F1F74102BFBE43AFA8B82F58391
:10515000E0B505078A7B8B7CF46002DFE822D29100
:10516000121CECD29022C290C2917F601202C31234
:1051700002D9D291D29022AD0790835B7406F09051
:105180008346E06002413690835AE04404F054FDC7
:10519000F0908347EFF0BF75219083597475F090BC
:1051A00080FC74DEF0A374ADF0A374DFF0A3740A86
:1051B000F0E4908352F0A3F0800C908347E0141247
:1051C00017AC908359F0E490832CF01235305044A2
:1051D000908347E0146F603790832CE0245AF8E600
:1051E000702D1225F930E02790832CE0245A1227E5
:1051F0003D4401F090832CE0FF12155CE060081242
:1052000027404404F0800890832CE0FF12265A12B5
:10521000352980B7E4FF74492FF582E43483F583A0
:1052200074FFF00FEFB410EE5137121D1A1218E58B
:105230009083467401F022E4908345F0908359E016
:10524000FFE422908346E07F017001FF22517BC082
:1052500002C00178D17C817D01D001D00251695119
:10526000704003E4F578D2AF227E007F1402029DE5
:10527000E4F5790578E578C3940C22C2AFE578753A
:10528000F015A42401F9748035F0FA7B0122908393
:105290005AE04402F04401F022908354E09080FCF4
:1052A000F0908355E09080FDF0908356E09080FE72
:1052B000F0908357E09080FFF0908358E0FFA3F0D8
:1052C000121D140218E590832DEB1247CF9081B682
:1052D000E0908374F09081B7E0908375F09081B88E
:1052E000E0908376F09081B9E0908377F075E810D4
:1052F000E4F5F5F5F67F10EFD3940040251F908379
:105300002DE0FBA3E0FAA3E0F98F82758300120081
:105310009EF5F1746D2FF582E43483F583E0F5F3A7
:1053200080D5D2E820E8FD716471649081B5E065B4
:10533000F3F09081B4E065F3F09081B3E065F3F0B1
:105340009081B2E065F3F09081B1E065F3F0908177
:10535000B0E065F3F09081AFE065F3F09081AEE0EE
:1053600065F3F022AFF3AFF3AFF3AFF32290836DA9
:105370007404F0A37414F0A3741DF0A3741FF0A3BD
:105380007427F0A304F0A3740DF0908378740AF0EE
:10539000A3740DF0A37413F0A37426F0A3740EF09D
:1053A000221202C37FFF1202C37FFF1202C37FFFDC
:1053B0001202C37FFF1202C37FFF0202C375F01CFB
:1053C000A42418F582E43481F58322F0908238E039
:1053D0008D828C83A3A3A3F0908239E0FFED240497
:1053E00022908100E09006C593FF908100F01200AA
:1053F0001D7559182290832CE0FD2455F582E43464
:1054000082F5832290832BE0FEA3E0F5828E83E079
:1054100022ECF0A3EDF0908333E022120C0890838D
:1054200038E090835CF0908337E022AF39EFFFAD36
:1054300038ED908328CFF0A3EFF02275F01CA42460
:1054400013F582E43481F583E0FF2225E0540690D1
:10545000837DF0E0AE054EFD7F0622F0C290C29142
:10546000EF541F4420FF0202C375F010A42466F914
:10547000748235F0FA7B0122E4F53A8F39853738AA
:1054800085363775341022F0A3E526F0A3E527F022
:10549000A3E528F0A322432210753410908347E03F
:1054A000F5352274352568F56874053567F567228A
:1054B0007407F0A374D0F022C2917FA00202C3D27D
:1054C00091D2907F0A121800C29022120B32908360
:1054D0005CE0908338F022750810E57E04F50975CC
:1054E0000A49222412F582E43481F583E0227E8188
:1054F0007FD47D15121989EF22C2AF75FAAA75FA09
:1055000055D2FD2213540133333354F842392274F7
:105510005A257EF8E6FFC3943022C291EF541FFF54
:105520000202C3F090000DE0540F449022F09083EB
:1055300037E0FEA3E0FF22EF131313541F227F0670
:10554000121F39EF54F9FD22F582E43483F583E428
:10555000F022D3ED9400EC6480948022FF74017EED
:1055600000A807082290832BE0FEA3E0FF2290838F
:1055700033E0FFC3940622785C7C837D017BFF22AD
:1055800004FFAE040C74002E227E007F0702029DF1
:1055900035F0A801FC7D0122E075F01CA424102246
:1055A000E475F0010201365375FE1213FDEF22FF80
:1055B000E52475F005A422AF72EF1313543F22FFC8
:1055C000FFFFFFFFFFFFFFFFFFFFFFFFFFFFFFFFEB
:1055D000FFFFFFFFFFFFFFFFFFFFFFFFFFFFFFFFDB
:1055E000FFFFFFFFFFFFFFFFFFFFFFFFFFFFFFFFCB
:1055F000FFFFFFFFFFFFFFFFFFFFFFFFFFFFFFFFBB
:1067F000FFFFFFFFFFFFFFFFFFFFFFFFFFFF6EC673
:10680000FFFFFFFFFFFFFFFFFFFFFFFFFFFFFFFF98
:10681000FFFFFFFFFFFFFFFFFFFFFFFFFFFFFFFF88
:10682000FFFFFFFFFFFFFFFFFFFFFFFFFFFFFFFF78
:10683000FFFFFFFFFFFFFFFFFFFFFFFFFFFFFFFF68
:106BF000FFFFFFFFFFFFFFFFFFFFFFFFFFFF77EB41
:106C00003FFFFFFFFFFFFFFFFFFFFFFFFFFFFFFF54
:106C100002120300258802040100000000000000A9
:106C20000361D79113010606000000000000000078
:106C30007C160000000000000000000000000000C2
:106C40007C160800000000000000000000000000AA
:106C50007C16080900000000000000000000000091
:106C60007C160809D20000000000000000000000AF
:106C70007C160809D292000000000000000000000D
:106C80007C160809D2922E000000000000000000CF
:106C90007C160809D2922E190000000000000000A6
:106CA0007C160809D2922E19110000000000000085
:106CB0000361D791131806070000000000000000D0
:106CC00020071420110400010D1A0000000000002C
:106CD00030D86B9D921A40000002000000000000B6
:106CE00040044B353230202020202020202020203E
:106CF0000361D791130206080000000000000000A5
:106D000021080840310400020C00000000000000CF
:106D100031AF32828B04000000010000000000004F
:106D2000410A4D3331302F4D3331307400000000B3
:106D3000FFFFFFFFFFFFFFFFFFFFFFFFFFFFFFFF63
:106D4000FFFFFFFFFFFFFFFFFFFFFFFFFFFFFFFF53
:106D5000FFFFFFFFFFFFFFFFFFFFFFFFFFFFFFFF43
:106D6000FFFFFFFFFFFFFFFFFFFFFFFFFFFFFFFF33
:107000003FFFFFFFFFFFFFFFFFFFFFFFFFFFFFFF50
:1070100002120300258802040100000000000000A5
:107020000361D79113010606000000000000000074
:107030007C160000000000000000000000000000BE
:107040007C160800000000000000000000000000A6
:107050007C1608090000000000000000000000008D
:107060007C160809D20000000000000000000000AB
:107070007C160809D2920000000000000000000009
:107080007C160809D2922E000000000000000000CB
:107090007C160809D2922E190000000000000000A2
:1070A0007C160809D2922E19110000000000000081
:1070B0000361D791131806070000000000000000CC
:1070C00020071420110400010D1A00000000000028
:1070D00030D86B9D921A40000002000000000000B2
:1070E00040044B353230202020202020202020203A
:1070F0000361D791130206080000000000000000A1
:1071000021080840310400020C00000000000000CB
:1071100031AF32828B04000000010000000000004B
:10712000410A4D3331302F4D3331307400000000AF
:10713000FFFFFFFFFFFFFFFFFFFFFFFFFFFFFFFF5F
:10714000FFFFFFFFFFFFFFFFFFFFFFFFFFFFFFFF4F
:10715000FFFFFFFFFFFFFFFFFFFFFFFFFFFFFFFF3F
:10716000FFFFFFFFFFFFFFFFFFFFFFFFFFFFFFFF2F
:1074000002756EBB010689828A83E0225002E72260
:10741000BBFE02E32289828A83E49322BB010689B0
:10742000828A83F0225002F722BBFE01F322C2D5EA
:10743000EC30E709B2D5E4C39DFDE49CFCEE30E7F7
:1074400015B2D5E4C39FFFE49EFE12749CC3E49D75
:10745000FDE49CFC800312749C30D507C3E49FFFBD
:10746000E49EFE22A42582F582E5F03583F5832291
:10747000D083D082F8E4937012740193700DA3A3AB
:1074800093F8740193F5828883E4737402936860BF
:10749000EFA3A3A380DF8A838982E473BC000BBEC1
:1074A0000029EF8DF084FFADF022E4CCF875F008F0
:1074B000EF2FFFEE33FEEC33FCEE9DEC984005FC25
:1074C000EE9DFE0FD5F0E9E4CEFD22EDF8F5F0EEED
:1074D0008420D21CFEADF075F008EF2FFFED33FDD8
:1074E0004007985006D5F0F222C398FD0FD5F0EA78
:1074F00022EFF87FFF900000E87908C36F548060A6
:1075000007EF33648DFF8003EF33FFC3E833F8D90F
:10751000EAA3E0F8E583B468DF22EFF87EFF7FFF9F
:10752000900000E87908C36E5480600CEF3364214A
:10753000FFEE336410FE8006EF33FFEE33FEC3E848
:1075400033F8D9E2A3E0F8E583B468D722900001CC
:10755000E02FFFA3E583B468F722900001E0FEA3CB
:10756000E02FFFA3E03EFEA3E583B468F322787F1B
:10757000E4F6D8FD758139027671FF7D9AFF7E6150
:10758000FF7E77FF7E61FF7E77FF7E76FF7DA5FF22
:107590007E77FF7D88FF77E2FF7D91FF7E77FF7E1C
