:1000000002002D0080FD05264A22FF80FE75B5FF07
:10001000A100FF80FEA100021005FF80FE0217E88C
:100020008023FF80FE1252BC021D5680FE787FE4C2
:10003000F6D8FD75816F02051A456E746572204908
:1000400043500080FEE4F55B0223D680FE123D6F34
:1000500002108980FEE5665401FF220249387F388C
:10006000E19CFF02416FFFFFFFFFFF022FEDFFFF4B
:10007000FFFFFF046DC52B1201001901CD01D10155
:10008000E3FFFF01FDBB010689828A83E022500263
:10009000E722BBFE02E32289828A83E49322BB012A
:1000A0000CE58229F582E5833AF583E0225006E9E2
:1000B0002582F8E622BBFE06E92582F8E222E582E7
:1000C00029F582E5833AF583E49322BB0106898210
:1000D0008A83F0225002F722BBFE01F322EF8DF05B
:1000E000A4A8F0CF8CF0A428CE8DF0A42EFE22BCC4
:1000F000000BBE0029EF8DF084FFADF022E4CCF8B8
:1001000075F008EF2FFFEE33FEEC33FCEE9DEC981C
:100110004005FCEE9DFE0FD5F0E9E4CEFD22EDF8A2
:10012000F5F0EE8420D21CFEADF075F008EF2FFF45
:10013000ED33FD4007985006D5F0F222C398FD0F2D
:10014000D5F0EA22C5F0F8A3E028F0C5F0F8E58282
:10015000158270021583E038F022A3F8E0C5F0257F
:10016000F0F0E582158270021583E0C838F0E822CD
:10017000A8828583F0D083D0821201871201871272
:100180000187120187E473E493A3C583C5F0C58397
:10019000C8C582C8F0A3C583C5F0C583C8C582C8D9
:1001A00022D083D082F8E4937012740193700DA36F
:1001B000A393F8740193F5828883E47374029368BF
:1001C00060EFA3A3A380DF8A838982E47304030919
:1001D0000412034C006F006700690074006500633F
:1001E0000068001A035500530042002000520065C9
:1001F000006300650069007600650072001E03520E
:100200000051005200310032002E00300031005FFA
:1002100000420030003000310039003E19242C002B
:1002200020242C00203FE34007002040BA23503F09
:100230008540D700200020002000208000FF00FF24
:100240000080008000800080FFFFFF05010906A1FB
:1002500001050719E029E7150025017501950881B9
:10026000028103950505081901290591029501757B
:1002700003910195067508150026A40005071900CD
:100280002AA4008100C005010902A101850209011B
:10029000A100050919012910150025019510750106
:1002A000810205011601F826FF07750C9502093039
:1002B000093181061581257F750895010938810668
:1002C000050C0A380295018106C0C0050C0901A180
:1002D000018503751095021501268C0219012A8CDF
:1002E000028100C005010980A10185047502950104
:1002F000150125030982098109838160750681033F
:10030000C006BCFF0988A1018508190129FF150154
:1003100026FF00750895018100C00600FF0901A1B4
:1003200001851075089506150026FF00090181005A
:1003300009019100C00600FF0902A101851175089D
:100340009513150026FF000902810009029100C0E3
:100350000600FF0904A10185207508950E150026E9
:10036000FF0009418100094191008521951F150079
:1003700026FF000942810009429100C012010002DB
:10038000000000086D042BC50112010200010902E2
:100390005400030104A0310904000001030101001D
:1003A000092111010001223B000705810308000813
:1003B00009040100010301020009211101000122C9
:1003C00094000705820308000209040200010300EB
:1003D00000000921110100012262000705830320AA
:1003E000000202120100198802040000000000004F
:1003F00000000301020304010606000000000000E3
:10040000000020010840010400010000000000007D
:10041000000021020840020400010000000000006A
:100420000000220308400304000100000000000057
:100430000000230408400404000100000000000044
:100440000000240508400504000100000000000031
:10045000000025060840060400010000000000001E
:10046000000030010203041E010000000000000033
:10047000000000203EE23FA4477D00200020002035
:10048000002000204799480F23150020002000205D
:100490000020FF808080FFFFFFFFFF000000FFFFC4
:1004A000FFFF11FF0A000000000000000000000034
:1004B00000000000000005080B0E1114171A1D2083
:1004C0002326292C2F3235383B3E4144474A01042C
:1004D00005060102030A0B0C0D0E090A0B120D0E84
:1004E0000F161718131415010A0B000D0E0000004B
:1004F0000014150017180000000000020400050198
:10050000E4F5AB75AC2075AD0822110D120FF67530
:100510008038E4F595F5C9F59422C2AF759002755F
:100520008E02122A7FB10A747024F8FD740034FF21
:10053000FC7B007A007908D14A7B017A8079007DC2
:10054000007C08D14A1228017F0FD104F1BFE5B128
:1005500030E0047FEBB1F8D1D890C7D6E020E308B3
:10056000E04408F07FFAD1047F0112301E90C7D614
:10057000E054F7F0D2AF122020AF6EEFC41354074F
:1005800030E005E4FF12301EAF6EEFC31330E00819
:10059000EF54FDF56E1249BEE54130E10DE55A70AC
:1005A0000990834DE0700312285CAF6EEF13135473
:1005B0003F30E007EF54FBF56EF1BFAF6E1246EC33
:1005C00030E007EF54F7F56E1117E54130E5A7125B
:1005D0001D821221AF1250E0EF600DAF621246ECA7
:1005E00030E0931212D0808EAF621246EC30E003FE
:1005F00012289A123387A176D1047FFAD1047FFAA8
:10060000D1047FFA9082BDEFF0E4A3F0A3F09082D2
:10061000BDE0FFC39082BFE09F9082BEE094005097
:100620001E1115E4FFFE000FBF00010EBE05F7BF4F
:100630007BF49082BFE004F07003124B0880CF225D
:100640007B017A8279E67D017C00ED4C600EED1D28
:1006500070011CE411CBE912177F80EE227B007A37
:1006600000791B7D037C00D14A1243B01246B97B4E
:10067000017A8279E1D146D1407B017A8279E0D159
:10068000467B017A8279E77D147C00D14AE4F5103B
:10069000F511FB7A0079087D08FCD14A7B007A00CD
:1006A00079257D141254117A00791E7D0712541198
:1006B0007A0079627D047C008090C2AF122A7FF1BB
:1006C000BF7FFAB1F8E4F5F5FFEF90003993F5F24A
:1006D0000FEFB40AF4027400906C00E0643F600A0B
:1006E000906E00E0643F6002F18D906C00E0B4FF1A
:1006F00009906E00E0B4FF02F1CF906C00E0B43FCF
:100700000B906E00E0B43F04E4FFF193906C00E0C6
:10071000B47F04E4FFF193906E00E0B47F047F01A6
:10072000F1937F02121577EF4E600C122EFC6412CB
:100730006005F1C7E4FEFFEF4E700F125419740309
:10074000F0A374E21214A51216EE7F03121577EFD0
:100750004E7039123DA6C2FBEF603112541974037A
:10076000F0A374F21214A5D2FB90000BE090833931
:10077000F090000CE090833A123CFC90833BF090A8
:10078000000EE090833CF0C2FB1216EE22E4FFF173
:10079000937F01EF60047F3780027F36EFC394368A
:1007A000401CEFD3943950167E0030AF027E011208
:1007B000537A8FFA20FCFDC2FDEE6002D2AF22D246
:1007C00091124FBDC29022E4FFF1937F01F1937D1E
:1007D000007C6C7F3F908338EFF0AE04AF057D0165
:1007E0009082CE1250BE9082D37401F0A37483F035
:1007F000A37438F09082CEE0FEA3E0FD9082D1EEAB
:10080000F0A3EDF0C3EE946C4048D39082CFE09417
:10081000FF9082CEE0947350397F0030AF027F01A9
:1008200012537A9082D0E060229082D31156FE90CB
:1008300082D1E475F00112015A85F082F583EEF061
:1008400020FCFD9082D0E014F080D8C2FDEF600261
:10085000D2AF229082BDE0FBA3E475F00112015AF1
:10086000A9F0FA020085AF1CEFC413540730E01062
:10087000EF54DFF51C1253A4E4F52143210141EAB2
:10088000E49082C0F0F17550217154E0FFC3133041
:10089000E0141253677157EF54FD1254087520404D
:1008A000752102E441EAF16E80DBE49082C0F0F150
:1008B0007550737154E0FF30E0681253677157EF61
:1008C00054FE1254087520417521049082C0121DF7
:1008D0004F2409F582E43481F583E0F522744C2F2E
:1008E000F8E660054322408007F14560034322801B
:1008F0009082C0E075F01CA4240AF582E43481F5EE
:1009000083E030E0034322201246EA30E003432232
:10091000109082C0121D4F12536FF524EF12533EF8
:1009200021D3F16E8089E49082C0F0F175502B7173
:100930005412538530E01F1253677157EF54FBF088
:10094000EE123087E0600F9082C0E0FD7F807EC5B0
:100950001227098F1222F16E80D1908336E030E0A9
:100960007654FEF0751E10908323E0FFF51F75206E
:1009700041752105908326E0FEF522908336E0FD47
:10098000C31330E0048E228008908326E04440F5B3
:1009900022EF64756030908323E0FD75F01CA42481
:1009A000EAF582E43480F583E0FEED75F01CA424C2
:1009B000E9F582E43480F583E0FDEDFF90832EEECF
:1009C000F0A3EFF08003124EE490832EE0FEA3E04C
:1009D000F524EEF5236147E49082C0F0F175501FD5
:1009E000D11912538530E013125439D11CEF54FB46
:1009F000F07F807EC512273A8F1222F16E80DDE4EF
:100A00009082C0F0F1755018D119E0FFC31330E0A7
:100A10000B125439D11CEF54FDF0801AF16E80E4B2
:100A2000AF621246A930E0189082C0E0B40611EF20
:100A3000547FF5627D077F807EC512263E8F12228D
:100A4000AF1CEFC41313540330E025EF54BFF51C63
:100A5000908259E070151253A4F5215321FE908223
:100A60008AE0F522E4F523F5246147E4908259F009
:100A7000121FE430E01612543170117F807EC512CF
:100A800047718F12E51B54EFF51B8014121FE430E1
:100A9000E01912543160147F807EC51225BF8F1279
:100AA000E56254FBF56254DFF56222E51D30E0217A
:100AB00054FEF51D751E10F137FF12539D7521036D
:100AC000F15FE0FCA3E0FDECF5228D23E4F524804A
:100AD00076AF1DEFC31330E019EF54FDF51D751E01
:100AE00010F13712539D752104E4F522F523F52406
:100AF0008055AF1CEFC31330E056EF54FDF51CF1E9
:100B000045700F9082BD04F0A37481F0A374B1F01E
:100B1000801DF145D39410500CF1E5A37481F0A32E
:100B200074B6F0800AF1E5A37481F0A374C2F07585
:100B30001E10F13712539D1153F5211153F5221157
:100B400053F5231153F5247F807EC51226D68F12CC
:100B500022F876FF74FB2FF582E43482F58322E4D9
:100B60009082BDF01235B3506AEF75F01CA42410CA
:100B7000F582E43481F583E0FF9082A4E0FEEF6E1D
:100B8000704C9082BD121D4F2411F582E43481F522
:100B900083E0FE9082A5E0FDEE6D7032EF12532EE1
:100BA0009082A6E0FEEF6E70259082BDE01252CEDC
:100BB0009082A7E0FEEFB506159082BDE0FF24FB12
:100BC0007157E04402F0D119E04404F0800512347A
:100BD0002180911253967048FFD119E020E00790D0
:100BE00082BDEFF080050FEFB406EE125396703021
:100BF000E54A30E024E4FF908103E0FEE49082BD0A
:100C0000F0EF124C1CFDEED39D4007AE059082BD67
:100C1000EFF00FEFB406EA800790834D7401F022E5
:100C20001253967002A139E490834DF0F567F56890
:100C3000908296E020E00281D8124AAE9080FCE0DB
:100C4000FF9082BD12524EEFF09080FDB1401252E3
:100C50007EEFF09080FEB140F1ECEFF09080FFB1BC
:100C6000401252DEEFF0908291B1401252E8EFF064
:100C7000908292B14012528BEFF012525D7488F064
:100C8000EE1252957402F09082A0B1401252F2EF2F
:100C9000F09082A1B1401252FCEFF09082A2B140DC
:100CA0001252A5EFF09082A3B140125306EFF090DC
:100CB000829CB140125310EFF090829DB1401252CD
:100CC000B2EFF090829EB14012531AEFF090829FE3
:100CD000B140125324EFB14790828FE0908102F02F
:100CE000124FA09082BDE0FF7D011236577D0212A7
:100CF00036577D031235D0E56354FEF5639082BD0F
:100D0000E0FF247DD11CE04402F0744C2FF8E4F69F
:100D1000E56230E0179082BDE024FB7157E04401AA
:100D2000F0E490828AF0E51C4440F51C123082E029
:100D3000600D7154E04404F022123CE87403F02288
:100D4000E0FFEEC454F022F0124AD0E49082CEF0DC
:100D50009082CEE0FDC394064002C1187E827FBE21
:100D6000124A7E9082C5E0FF9082CE12524EEFF082
:100D70009082BFE0F4FFEE12527BEFF09082BEB1A2
:100D800040F1ECEFF09082C1B1401252DEEFF090F2
:100D900082C8B1401252E8EFF09082C0E0F4FFEE5A
:100DA000125288EFF09082C7E06455FF12525DEF57
:100DB000F09082CCB140125298EFF09082C6B140D0
:100DC0001252F2EFF09082C4B1401252FCEFF09058
:100DD00082CAE0F4FFEE1252A2EFF09082C3B1405B
:100DE000125306EFF09082CBB140125310EFF09007
:100DF00082CDE06455FFEE1252AFEFF09082C2B1A7
:100E00004012531AEFF09082C9B140125324EFF010
:100E10009082CEE004F0A15022747D2FF582E4345C
:100E200082F58322E49082BEF0E56FF4600CE56FFA
:100E30006403702712542930E0217E817FAC122B8D
:100E40007AEF7002E123F145FFBF0F02F17EF14519
:100E5000641F6002E123123DDFE123E56F6403704C
:100E60001CF145FFBF0F07A3E0B40702E123908107
:100E7000ACE0FF124C2B9082BDEFF08002F1E590C8
:100E800082BDE07002E1237E817FAC122B7AEF708D
:100E900002E123E56FC394034002E12312309590F1
:100EA00082BE1235BC1313540130E02CF137F14CE3
:100EB000ECF0A3EDF0E54130E10DF137F1D7740727
:100EC000F0A374D0F0800CF137FFF160F1D1ECF0B9
:100ED000A3EDF0434101800CF137FFF160F1D1EC5B
:100EE000F0A3EDF0F1371253D24019EF6016F1374D
:100EF000FF247DD11CE030E00BE56230E006715448
:100F0000E04401F0F1371253D24011EF600EF13797
:100F1000123086E060067154E04404F0F137244C4E
:100F2000F8E4F69082BEE0FF229081B0E0240CFF4E
:100F30009081AFE03400FE7456256FF582E4348270
:100F4000F583E022F09081ADE0541F22FF75F01C84
:100F5000A42418F582E43481F583E0FCA3E0FDEFDE
:100F600075F01CA4241AF582E43481F58322908262
:100F7000C0E004F0229082C0E0FFC394062290817A
:100F8000AEE024FD602724FD603924067042F1297B
:100F9000F160EEF0A3EFF0F129F1D7EEF0A31235F6
:100FA000BC540730E02AE51D4401F51D22F137F15C
:100FB000D7E4F0A31235BD540730E014E51D440218
:100FC000F51D229081AFE0B40106756702756804D3
:100FD00022E0FCA3E0FDEF75F01CA4241CF582E4E4
:100FE0003481F583229082BD7401F02224E2F582DF
:100FF000E43481F5832275A380C2B9C290C2B8756A
:10100000E610D29222D2919180D290229082C2EFA9
:10101000F0A3EDF0D29131BA7D3CE4FF11897D015E
:101020007F01F1C7FD7F0511897D0F1173F1C17D2E
:101030003F7F041189C2917F303195D291C2917F57
:101040002A319580C011597FFF11597FFF11597FB7
:10105000FF11597FFF11597FFF7E0030AF027E01E3
:10106000C2AFC2918FE5C2C030C0FDAFE5EE6002F5
:10107000D2AF227F0611897D707F0711897FE2112F
:10108000D97FE111D97D037F039082C9ED123D2004
:101090009082C9E0FF1159D291D2902231BA7D726B
:1010A000F186118912392D1173C2917F301145D209
:1010B00091F1BB9082C77401F07FFF1159121D2579
:1010C000E0C3942140F3F1D751C8EF20E5051200A9
:1010D0001580F5F1B5D2907FE3C290C29180B63110
:1010E000BA7D73F1861189F1C1908349E04409FD0D
:1010F0001173C2917F2A1145D291D2902231BAF157
:10110000E27D1F7F01118990834DE060047D1F8087
:10111000027D1E7F0211891185E4FD7F04118990F3
:101120008100E0FF123D6F1189E56E30E0047D091A
:1011300080027D0F7F061189755DBB755E0A755F44
:10114000DC7560A57561757D5D7B057F0A1239C40C
:10115000123D2E908256124C1BF5611239BE9082C0
:1011600057124C1BFD7F0C1189908258124C1BFDAD
:101170007F0D1189E4FD7F0E11897D067F1D118988
:101180007D1F7F1C11897FE211D97FE111D9F1B553
:101190009180D2902211599082C2E0FF1159908023
:1011A000FFE0FF11599080FEE0FF11599080FDE0B3
:1011B000FF11599080FCE0FF0159C2907F019168B6
:1011C000A2C1E433FFBF01087FFA91687FFA9168FA
:1011D000229082C0EEF0A3EFF0E49082C4F0A2C1AE
:1011E000336401600BAF62EFC4540F20E00241C2D0
:1011F0009178E0FF540EFEC3139082C5F0EF20E615
:1012000005E06407605E9082C5E0D3940450557D8C
:10121000407F0711891250D09082C3EFF070028096
:10122000149082C3E0D3941A4011741AF01253DB65
:101230007D1A12508C7FE211D9800B1253DB908201
:10124000C3E0FD12508C9082C5E0700574FFF08001
:10125000069082C5E014F09082C5E0F56F9082C4DC
:10126000E04401F09082C2E030E5077D20F1CE44F9
:1012700002F09082C2E030E4077D10F1CE4404F029
:10128000A2C1E4337F0070027F019082C6EFF0912B
:1012900078A2C1E4337F0070027F019082C6E06FC4
:1012A000600291789082C2E0540EC3139082C5F020
:1012B00064076008E5624410F5628006E56254EF59
:1012C000F5629082C4E0FF22C291125071D2912245
:1012D000908322E024FE605E147002615D1470024F
:1012E000619F2403600261E57E827FBD7D01125112
:1012F000606060122AC09081ADE020E40261E512D6
:1013000035C9A37481F0A374ADF0124A77F07B0164
:101310007A83792591B39080FCE0B4DE14A3E0B425
:10132000AD0FA3E0B4DF0AA3E0B40A0512511F61B8
:10133000DF12511461C57E827FBDE4FD12516060F1
:1013400012122AC0908336E0FFC31320E00312512B
:10135000148072908335E0FF124D64010CE56965DD
:101360006B602B51C8EF20E0259083377406F01294
:1013700050EA9081CAE0240F600C240F7067124D70
:1013800076EF706180599081CBE0FF024E2451C806
:10139000EF20E051908324E0D3944840488040906F
:1013A0008321E0C3941550028001C3501F90833500
:1013B000E0FF124D64110C121FE420E028124F7C54
:1013C0006023124DC69083227403F02212001D1276
:1013D0004DE47F09124DEB124F87124D6A110C90AC
:1013E00083227402F0229082C01250BEA374C8F00F
:1013F000E4A3F0A3F031BA7FE111D9F1BB9082C22E
:10140000E060199082C01252339082C2E014F090D2
:1014100082C1E004F07003120F6E80E1F1D751C871
:101420009082C4EFF09082C3E014F07F6491681260
:1014300000151220209082C4E020E50920E40690E7
:1014400082C3E070D97D307F07F1C7600BA3E03025
:10145000E606A37401F08005E49082C5F0E4908371
:1014600024F09082C5E0FF22E4FEEEC39F50080006
:10147000000000000E80F32251C89082C2EFF022DB
:10148000E4FF124A04EF4402FDE4FF1189C2842202
:101490009082C1E0FEA3E0AA06F99082D27401F026
:1014A000A3EAF0A3E9F0A3E4F0A37410F07B017ABF
:1014B0008379389082CF80419082D5E07002A3E09A
:1014C000603C9082D6E024FFF09082D5E034FFF0BB
:1014D0009082D2B102F9120085FF9082CFB102F959
:1014E000EF1200CB9082CFB102F17F9082CFEBF16F
:1014F000ADA3B102F17F9082D2EBF1AD80BA229020
:1015000082C2E0FBA3E0FAA3E022906C00E0B43FCB
:1015100005123CDE800A906E00E0B43F0A123CF2F5
:101520007F7F1207D5800C12078D7D007C6C7F3F7A
:101530000207D57F01F12760049190D1EE7F02F17F
:101540002760049190D1EE7F03F12760049190D140
:10155000EE7F7CF12760049190D1EE906C00E0B4B6
:101560007F071207CF7F01800A906E00E0B47F06EC
:10157000123D06120793229082CCEFF0E4F56CF551
:101580006DFF906C00E0FEB43F047F108006EEB467
:101590007F027F20906E00E0FEB43F06EF4401FF23
:1015A0008008EEB47F04EF4402FFEF1201A1161B86
:1015B0000015D90115F90215CD1015DB111603120E
:1015C00015CF2015E721162E2200001643804090EB
:1015D00082CCE0FDF4706C803C80179082CCE0FD02
:1015E000E4FF12504D800B9082CCE0FDB4FF03E489
:1015F00080239082CCE0FD80129082CCE0FDF470DC
:101600004280089082CCE0FDB4FF047F0180079007
:1016100082CCE0FDE4FF12504D8028E4FF120793D6
:101620001253C01207CF12534DF47017800F1207D8
:101630008D1253C01207CF12534DB4FF06756C6C58
:10164000756D10AE6CAF6D22908338E09082C9F05A
:10165000906C00E0643F7005123CDE800B906E00E1
:10166000E0643F700F123CF37F7F1207D5D1DAF0B0
:10167000F10380081207C7D1DAF0E1039082C87441
:1016800001F09082C8E0FFD3944F5020A3E0FEEF1A
:101690006E60149082C8E0D1E4F04E600A9082CA75
:1016A0009193D1E2F0F103121D2C80D67F7CD1E41E
:1016B000F04E600A9082CA9193D1E2F0F103906CEF
:1016C00000E0B47F071207CF7F01800A906E00E030
:1016D000B47F06123D06120793229082C9E09083E0
:1016E00038F07FFFB1779082CAEEF0A3EF227FFF40
:1016F000B1779082C6F12C7002C1489082C6E0FE9C
:10170000A3E0FF9082CCEEF0A3EFF0908338E044AA
:101710008012538C7D101207E0908338E0547F12C2
:10172000538C7D010207E0B1779082C1EEF0A3EF08
:10173000F04E229082D880419082DEE07002A3E0D9
:10174000603C9082DFE024FFF09082DEE034FFF026
:101750009082DBB102F9120085FF9082D8B102F9C4
:10176000EF1200CB9082D8B102F17F9082D8EBF1DA
:10177000ADA3B102F17F9082DBEBF1AD80BA222400
:1017800001F9E43AFA22E4FF1189E4FD7F011189AD
:1017900090834BE0FD7F0522C2AFE56975F015A48B
:1017A0002401F9748035F0FA9082D27401F0A3EA32
:1017B000F0A3E9F0227D707F070189C2917FA0012B
:1017C000597D017F02018911899082C3E0227F0740
:1017D00011899082C4E022D291D2907F0A9168C28E
:1017E00090227D1DE4FF0189908336E054FDF04492
:1017F00001F0227F002085027F0122E5281201A14D
:10180000183700184601185702186B031878D018BB
:1018100081D418F2E41902E61822F0190CF1000044
:10182000194D31531250E0EF7002215275294C7559
:101830002A5490832301C13153E5625401422AAFF7
:1018400063EF131380063153AF4AEFC313540133D0
:10185000333354F8422A223153F52AFF120E19E08D
:1018600030E002052A0FEFB406F222315390826C69
:10187000E0F529A3E0F52A223153E56E5401F5295C
:101880002212526B852929852A2AC3E0941090825E
:10189000BDE0940050177F7C121577EF4E70022147
:1018A000491254212FF582EE3CF5838014315BEE12
:1018B000946C4011D3EF94FFEE946F50088F828E9A
:1018C00083E0F52B22315BEE94FE4024D3EF94FFAE
:1018D000EE94FF501BE02400F09082BDE03402F053
:1018E000D2FBE0FEA3E0F5828E83E0F52BC2FB2263
:1018F0008057E56E30E0561217F38F29E4F52AF58C
:101900002B223153E564F52985652A22E52924FE39
:10191000600F24FE60122403702F752A12752B01AC
:1019200022E4F52A752B1922907FB0740193B46DCF
:1019300016E493B40411907FB4740193F52A907F58
:10194000B6740193F52B2280007F0380027F021280
:10195000002522E4F529F52AF52B229082BDE0FE30
:10196000A3E0FFC322E5281201A1198C0019B401DC
:1019700019C90219EE0319FAB21A92D01ABED11A75
:10198000CCD41B2AD71B60F000001BB3E52A30E043
:1019900008E5624401F5628006E56254FEF562E501
:1019A0002A30E308E5634408F56361B8E56354F75A
:1019B000F56361B8E52A30E308E54A4402F54A6177
:1019C000B8E54A54FDF54A61B8E52920E10261B85D
:1019D000E56220E00261B8E4FF120E19E030E00792
:1019E000120B54E04401F00FEFB406ED61B89082A1
:1019F0006CE529F0A3E52AF061B8E56E30E002411C
:101A00008EE5296401702E9081ABE0C394064005F9
:101A1000E54A30E01CE52B90834D6005E52BF08016
:101A200003741EF0E4908259F01224B790828A80E9
:101A30000C7F0561B5E529B4020890834D7401F06F
:101A400061B8E52964037042E52AD394065004E5A1
:101A50002A70047F0361B5E52A14FF12276EAF2AAE
:101A6000123C0671C11249E3AF2A74FA2FF582E4E1
:101A70003482F583E04402F0AF2A747C2FF582E4CF
:101A80003482F583E04404F061B87F0361B57F02DE
:101A900061B5E52964017021E56E4401F56EE4F558
:101AA00067F5687FE11210D990834DE0700261B84C
:101AB000E41252401227E761B812384E6149E56ED0
:101AC00030E00512385561B87F0261B5E56E30E04F
:101AD0005512526B315B9410EE94005045EF940018
:101AE000EE9400403D7F7C1215779082BF12172C38
:101AF00070147B017A8379387D10FC12064A90833A
:101B000038747CF080069082BF1214939082BDA33B
:101B1000E02438F582E43483F583E52BF01216EEE9
:101B200061B87F0361B57F0261B5E56E30E02DE5F8
:101B300029700261B824FC600D24FE601624057033
:101B40001712078D80721206D871C11230611249C6
:101B5000BE806512150A80607F0380597F02805520
:101B6000E529B44912E52AB4430DE52BB45008E544
:101B70006E4410F56E8041E529B44C1FE52AB4543B
:101B80001AE52BD394004007E52BD394064005E5D6
:101B90002BB47507AF2B124CA1801DE529B4580F4B
:101BA000E52AB4490AE52BB4540512219E80097F29
:101BB0000380027F02120025E527648F6002315303
:101BC000227F03B13312172C700C9082C77403F07C
:101BD000A374F3F08006B12C7002B125B13A12174C
:101BE000A8A3E4F0A37407F07B017A8079FC1214B7
:101BF000B3E49081ABF09082C97420F09082C9E088
:101C0000FFC39426400281BBB13312172C7023A36B
:101C1000E0FD75F010A42403F582740235F0AF8264
:101C20009082C7F0A3EFF0745D2D1253ED54FEF0D7
:101C30008018B12C7002B1259082C9E0245D125346
:101C4000ED4401F09081ABE004F01253E42483F9F9
:101C5000747D35F0FA7B01C003C002C001B13A9037
:101C600082D2EB1217ADA3E4F0A3740DF0D001D033
:101C700002D0031214B3B14C2484F582E5F0347D14
:101C8000F583E0240CFDE433FC75F01CEFA4125343
:101C9000AEB1451253AE12535A1253B7B145125357
:101CA000B712535A249CF582E5F0347DF583ECF0AD
:101CB000A3EDF09082C9E004F061FC9082C9743019
:101CC000F09082C9E0FFC394365049B13312172C0B
:101CD000700C9082C77404F0A37463F08006B12C7A
:101CE0007002B1251253E424D0F9747B35F0FA7BED
:101CF00001C003C002C001B13A9082D2EB1217AD0D
:101D00001243A0D001D002D0031214B39082C9E0D4
:101D100004F080AD908100E0FF123935EF7005903E
:101D2000810004F0229082C7E004F0229082C8E093
:101D300004F0221215779082C7229082C7E0FEA39A
:101D4000E0AA06F922F583ECF0A3EDF09082C9E059
:101D5000FF75F01CA422E51C54F3F51CE51B441090
:101D6000F51B22E527247F600C24FE600D24037000
:101D70000C316580031217FB80DC024A207F0102D0
:101D80000025AF1CEFC4540F20E002C178124DE4CF
:101D90009082E8E0F4704AF1E430E002C175F1DDD0
:101DA000AF62EF1313543F30E00BF1A5F1B87F079A
:101DB000120025C1759082E7E0B41008F1A5F1B8D2
:101DC000B163C1759082E7E064116002C1757B0167
:101DD0009082D204F1AA7414F01BF1BD12503FC1DD
:101DE00075122E5E4006E0D3940640089082E8E02B
:101DF0006475707D1253F6600F90833612538530F0
:101E0000E06BEFC31330E065E56A705DF1DD908251
:101E1000E7E0B41013122F03C003C002C001908288
:101E2000D2EBF1AA740780189082E7E0B4111D127A
:101E30002F03C003C002C0019082D2EBF1AA741438
:101E4000F0D001D002D0031214B380028027124FC9
:101E50004A2400D180F1EB940C4003E4F56B124F5F
:101E600056B56B11756A01800C7F0780067F09806B
:101E7000027F08F1C4124DF422F0AF040C74002F5D
:101E8000F582E43480F58322AD07E56A6002E1A4BF
:101E9000EDC394034002E1A4124F4FFC74562D127F
:101EA0000F3B1253FFD180EFD179740FD1797405B4
:101EB000F0ED1253FFD180EFF0ED14601414601CAC
:101EC00024026002E1A4D17A7427D17974D4F0801D
:101ED00014D17A7436D17974E4F08009D17A7445DA
:101EE000D17974F4F01246EA30E00A74002CD18003
:101EF0007401F0800774002CD180E4F074562D1228
:101F00000F3B1253C98005C333CE33CED8F9FF90AF
:101F10008240E0F9FBEF5B601E74562D120F3B12FE
:101F200042F38002C333D8FCF459908240F074002D
:101F30002CD180E04402F074562D120F3B1253C98D
:101F40008005C333CE33CED8F9FF90826CE0F9FB25
:101F5000EF5B601E74562D120F3B1242F38002C3DA
:101F600033D8FCF45990826CF074002CD180E0449A
:101F700003F00C74562D120F3B12532E74002CD10B
:101F800080EFF00C74562D120F3B1252CE74002CC1
:101F9000D180F1EB940C4003E4F56B124F56B56B16
:101FA00003756A01229082D27401F0A37482F0A3B7
:101FB00074E7F0A3E4F0A3227407F07B007A0079C1
:101FC000250214B39082BDEFF0F1E420E00EF1DDC4
:101FD000F1A5F1B89082BDE0FF12002522E51C5466
:101FE000EFF51C22AF1BEFC4540F22EFF0056BE599
:101FF0006BC3221217F3EF600E90834EE0D3941F51
:102000005010E004F0800B90834EE0D39400400227
:10201000E4F090834EE0C3941F7F0040027F0122D2
:10202000120015AF8CEFFCAF8AEFFDECFFEFB58C23
:10203000F2C3ED9554FDEC9553FC31875002218697
:1020400012283D74CB2DFD74FA3CFCE555D3940069
:1020500040021555E54120E132E49082C6F09082BD
:10206000C6E0FFC39403502374562F120F3BFF1298
:102070000FD7E0FAA3E04A600A120FD674FFF5F01A
:102080001201449082C6E004F080D3E54B60021553
:102090004BE55A6002155AE49082C6F09082C6E081
:1020A000FFC394065014744C2FF8E6FF6004F460EC
:1020B00001069082C6E004F080E2908324E004F000
:1020C000318740020140E5557045755504E5569449
:1020D0000040021556121FF3EF601D90834DE07013
:1020E0001790834CE07011E56E20E00CA3741EF095
:1020F000E54A4401F54A91B77F01EF60121F74452C
:102100002FF8E660F574462FF8E660EE1680EBE5F2
:10211000567014755619E557D39400400215579020
:10212000834CE0600214F0E557705B75570A9083AA
:102130004AE030E008E56E30E00312498590834DB7
:10214000E0602214F0B283E0701BE54A54FEF54AC9
:10215000E56230E006E51C4440F51C125247E4F508
:1021600067F568F1E790834DE07002D28390828931
:10217000E0D394014003E014F0908337E06007144B
:10218000F0E07002319E22D3ED9400EC64809480E4
:102190002291A412491712492312485E0120121BF2
:1021A000C11237DF1249BEE4908337F00217E8E529
:1021B0004130E10930E00831915341FE2231C02223
:1021C000AF6EEFC4540F30E00F121FE420E009E5BA
:1021D0006E54EFF56E1206BA7F815147EF6012E53B
:1021E00010700312434CE510600790C7B7F0E4F598
:1021F000107F825147EF602BE51170031243BDE55C
:10220000436015E5117003124655E511700312463F
:10221000C6E51170031246F3E511600790C7B9F0E7
:10222000E4F5117F835147EF601CE544600DE51232
:102230007003120866E512700291CEE512600790F5
:10224000C7BBF0E4F5122291AB4019EFD3940550CF
:1022500013ED20E7075167600B1C80089100516D5A
:102260006002E4FCAF042275F002A424C4FFE5F090
:1022700034C78F82F583E022AD07ED547FFF701DD8
:1022800090C7ACE04401F090C7DEE04401F090C795
:10229000ADE04401F090C7DFE04401F022EFD394B9
:1022A000055054ED20E72490C7DFC083C08251F869
:1022B0008002C333D8FC4FD082D083F0ED516754F5
:1022C000FEF090C7D7EDF02420F022ED547FFD9072
:1022D000C7DEC083C08251F88002C333D8FC4FD020
:1022E00082D083F0ED9103516D54FEF0ED241090F7
:1022F000C7D7F0ED2430F022E0FF7401A8050822D2
:1023000074422FF8A63CEF2481FF517871BE908271
:10231000D7E004F022F1DD5033E54130E52EE53C15
:10232000600464017026E539541FFFBF010FE4907B
:1023300082D7F071C894035016710080F6E4908241
:10234000D7F071C894035007710080F6120045223F
:10235000E539541F700BE53B7007E53CD394014011
:1023600003020045E53C603A71CF71C89404500AFD
:10237000EF2480FF5178710E80F075412075457D06
:1023800075467D91A44402F56E71CF9082D7E0FF2F
:10239000D39405502990C7D7EFF0EF2440F0710E89
:1023A00080E971CF71C89404500BEF2480FF12486C
:1023B0002F710E80EF754110E56E4404F56E755B6C
:1023C0000590C7B47412F0229082D7E0FFC3229028
:1023D00082D77401F02290C7B47411F022EF547FB9
:1023E000FE700280F1EED394055014EF20E70875DB
:1023F000F002A424C48003EF9101516D4401F02246
:10240000ED547F75F002A424B42291AB401BEFD3AE
:1024100094055015ED20E708516720E00C1C800959
:102420009100516D20E002E4FCAF0422E539541F15
:1024300024FE602124027069E53C6401453B706123
:10244000E53AB40108E54954FEF5498052E54944AE
:1024500001F549804AE53D7048E53C453B7042E561
:102460003A6401701FE53E547F70028032E54130CE
:10247000E52FE53E30E72A547FC394045023AF3E56
:102480005178801BE53E547FFF6016E54130E51131
:10249000E53E30E70CEFC394045006AF3E71DD61BA
:1024A000BE020045E56E4408F56E22AD077C01EDE5
:1024B000547FFFD39400221211BA7D1F7F02F1EBEB
:1024C000D290E56230E006E51C4420F51C22AF1DE9
:1024D000EFC4540F30E00DEF54EFF51D7F807EC543
:1024E00091E58F1222F132120F37F156908270E08F
:1024F000D1CFF0908271E0D1CFA3F0908272E0FD55
:10250000EF2404B1B8EDF0908273E0FDEF2405B143
:10251000B8EDF0908274E0FDB1B5EDF0908275E019
:10252000FDEF2407B1B8EDF0908276E0FDEF2408CE
:10253000B1B8EDF0908277E0FDEF2409B1B8EDF08D
:10254000908278E0FDEF240AB1B8EDF0908279E056
:10255000FDEF240BB1B8EDF090827AE0FDEF240C92
:10256000B1B8EDF090827BE0FDEF240DB1B8EDF055
:1025700090827CE0FDEF240EB1B8EDF07F0F228F4A
:10258000828E83E525F0A3E526F08F828E83A3A3B8
:10259000E527F08F828E83A3A3A3E528F0EF240420
:1025A000F582E43EF583E529F0EF2405F582E43E6B
:1025B000F583E52AF0EF2406F582E43EF5832275E3
:1025C0002511B17FE52BF0EF2407B1B8E52CF0EF32
:1025D0002408B1B8E52DF0EF2409B1B8E52EF0EFED
:1025E000240AB1B8E52FF0EF240BB1B8E530F0EFD5
:1025F000240CB1B8E531F0EF240DB1B8E532F0EFBD
:10260000240EB1B8E533F0EF240FB1B8E534F0EFA4
:102610002410B1B8E535F0EF2411B1B8E536F0EF8C
:102620002412B1B8E537F0EF2413B1B8E538F0E57E
:102630001C54F3F51CE51B54EFF51B7F1422A90570
:10264000E4FDEF2DB1B8E4F00DEDB40FF5F132A3D8
:10265000A37441F0E9D39406400E8F828E83A3E4E5
:10266000D1CEA37402F08063E9F156E56330E0084F
:10267000D1CFA37401F08005D1CFA3E4F0E91253C8
:102680003EFDEF2404B1B8F10112536FFDEF2405B4
:10269000B1B8EDF0E9F15FFDB1B5EDF0E9F1C5FDDF
:1026A000EF2407B1B8F1012416F582E43481F583F3
:1026B000E0FDEF2408B1B8F1012417F582E434817C
:1026C000F583E0FDEF2409B1B8EDF07F0F22F08F24
:1026D000828E83A3A3228F828E83E51EF0A3E51F43
:1026E000D1CEE520D1CEA3E521F0EF2404B1B8E5A9
:1026F00022F0EF2405B1B8E523B1B4E524F07F075B
:1027000022EDF0E975F01CA422A905E4FDEF2DB13E
:10271000B8E4F00DEDB40FF5F132E904A3D1CE74B5
:1027200042F0744C29F8E66006D1CFA37401F07F23
:102730000F228F828E837420F022A905E4FDEF2DF5
:10274000B1B8E4F00DEDB40FF5F132E904A3D1CE48
:102750007440F07F0F22048F828E83A3F022EF75E6
:10276000F01CA42414F582E43481F583E022F15EA8
:1027700030E206F1A94402F51BF15E30E108F1D424
:10278000F1BD4401F51BF15EFE30E306E51B440498
:10279000F51BEE30E406E51B4408F51BEFF1C530F0
:1027A000E006E51D4408F51D22745A2FF582E43435
:1027B00082F583E4F074602FF582E43482F583E4DB
:1027C000F0E51B22FE75F01CA42415F582E434818B
:1027D000F583E02274662FF582E4348222C3E53E5D
:1027E0009402E53D9400227D1E7F029082C7EFF0A7
:1027F000A3EDF01211BA9082C7E0FFA3E0FD021032
:102800008975891175885575C81075CD0075CC010D
:1028100075CB0075CA01D2C8755503755618755722
:1028200009AF8CEF755400F553AF8AEF4254E5536E
:10283000FFEFB58CEC113DE490834DF0227435250B
:1028400054F55474053553F5532275B5FF75A5201D
:10285000D2BDE4F5AB75AC0475AD0A221207BF53C7
:1028600041FE1193E56254DFF562E51C54FDF51C51
:10287000E51D54EFF51D54FEF51D54FDF51DE4F561
:1028800067F56875D901C292114A75A52A75A40128
:10289000D29222E56654FEF56622E567B4051BE593
:1028A000686403600221387F07124A04EF20E602C1
:1028B00021381217B57FE20210D9123333E56724AD
:1028C000FE605F14605E14605F2404706651876070
:1028D0000D1193120E24EF6005E4F567F568E569C4
:1028E000656B60261212C8EF20E01F121798125174
:1028F00004E56975F015A42400121E80E0FFF1754F
:102900001250F94003E4F569D2AF908256313A4053
:102910000F3139400B31394007E56E20E002F1DD1F
:102920008021418E31436107E56E30E004E4F567B4
:1029300022414EE4F567F56822A3E0244CF8E6D383
:1029400094C822E56E30E00221EE908256E0FF123C
:102950000FD7E0FCA3E04C7027744C2FF8E67020F2
:10296000E56764036010908256A3E0FDA3E0FB31AD
:10297000EFBF01025139908256E0FF120F605140C3
:10298000908257E0FF120FD7E0FCA3E04C70287450
:102990004C2FF8E67021E56764036011908256E0E1
:1029A000FD908258E0FB31EFBF0102513990825710
:1029B000E0FF120F605140908258E0FF120FD7E005
:1029C000FCA3E04C7028744C2FF8E67021E5676496
:1029D000036011908257E0FD908256E0FB31EFBF1B
:1029E00001025139908258E0FF120F60514022A934
:1029F00007AC03EB120F60E0FEA3E0FFED120F60E7
:102A0000E0FAA3E0FBC39FEA9E500A9082BDEAF081
:102A1000A3EBF0800BEC120F60E0FFA3E012527208
:102A2000E9120F60E0FEA3E0FF125421FDC3EF9D09
:102A3000EE9C7F0050027F012275670375680122BA
:102A40007407F0A374D0F0744C2FF8760122E56877
:102A500024FE600804702771660568225187600EA5
:102A60001193120E24EF6016E4F567F56822E54B2A
:102A7000700C7166908100E0B552031210FD229037
:102A8000C7D6E04408F02251C0120055EF22E56895
:102A90001460161460161460151460142404701F5A
:102AA0005187601B1193020E240239ED811481C8F5
:102AB000120B5F125241121BC1120D4B1249BE2262
:102AC000AF62EFC413540720E01AAF1CEFC313200A
:102AD000E012AF1DEFC4540F20E009EF20E005C362
:102AE0001330E004E544701E7B017A8179AC7D1AD5
:102AF0007C0012064A7E817FAC1211D1EF30E006D5
:102B0000E5664401F56622E568B4010C908100E0B9
:102B1000FFF55271580568225187601711937E8125
:102B20007FAC717AEF6020120E24EF601AE4F56733
:102B3000F56822E54B70100568E568B40602E1DD32
:102B4000908100E0FF715822E4F5ABF5AC75AD0B58
:102B500022EF9004CE93FF227151908100EFF0128A
:102B6000004D754B0C22908100E09004E793FF909C
:102B70008100F012004D754B18229082BFD1F554A0
:102B80001FF9700CFD71B62CFC0DEDB405F7801E1D
:102B9000E9D39410500DE4FD71B62CFC0DEDB40A90
:102BA000F7800BE4FD71B62CFC0DEDB416F7EC7F4D
:102BB0000070027F01229082BFE475F00112015A79
:102BC00085F082F583E022F1E4A3D1F5541FF9707A
:102BD0000DFD9082C371B9910CB404F68020E9D345
:102BE0009410500EE4FD9082C371B9910CB409F6B3
:102BF000800CE4FD9082C371B9910CB415F69082FB
:102C0000C3E0FAA3E0F5828A83ECF022FFC3EC9FD5
:102C1000FC0DED221227E7E4FF74AF2FF582E434B8
:102C200081F583E0FE74A02FF582E4348291C1B473
:102C300004E7123D4190829CD1CBA3D1CBE4FF7439
:102C40009C2FF582E43482F583E0FE74C92FF5826F
:102C5000E4348191C1B404E7E4FFD1E874A42FF512
:102C600082E43482F583EEF0D1E874CD2FF582E46E
:102C7000348191C1B404E3E4FFD1DB74A82FF58261
:102C8000E43482F583EEF0D1DB74D12FF582E434A5
:102C90008191C1B404E39081BBE09082ACF0123D1D
:102CA000127402F09082ACE09081D5F07E817FC6F4
:102CB00071C77E817FC67D04F114756702E4F568F3
:102CC00022F583EEF00FEF229081B0E09082AEF01B
:102CD000E4FF74B12FF582E43481F583E0FE74AF34
:102CE0002FF582E4348291C1B40EE79081ACE0907C
:102CF00081C6F0A3740FF0A37406F0A37402F0A3CE
:102D000004F07E817FC671C77E817FC67D04F11489
:102D100080A890C6C0E09082D7F0E54714B40900BF
:102D20004002C104902D3275F003A4C58325F0C57F
:102D30008373022D4D022E04022D73022D9A022D53
:102D4000AF022DBC022E04022DD8022DEED14C90E4
:102D500082D7E09082E0F0E4FF9082D7E0FE7483B7
:102D60002FF582E4348291C1B406EEE51C4480F56F
:102D70001CC1049082D7E06410701B7C827DE77FC9
:102D800007D108D156407DE0D394065077D1D320A7
:102D9000E072D166806ED14C806A9082D7E0641177
:102DA00070627C827DE77F08D108754705803C7C96
:102DB000827DEF7F08D108754706802F7C827DF7E2
:102DC0007F04D108754707D156403CE0D3940650A4
:102DD00036D1D320E031C1669082D7E064207024E0
:102DE0007C827D417F08D108754709023FCB7C82F8
:102DF0007D497F07D10875470BD14CE5634402F547
:102E0000630231FAE4F547229082D874C6F0A374C5
:102E1000C0F0EF24FFFBE434FFFAEB2DFDEA3CFCAD
:102E2000EFD3940040259082D8E0FAA3E02F12451A
:102E300026E58224FFF582E58334FFF583E08D8269
:102E40008C83F0ED1D70011C1F80D522755B0590F1
:102E5000C7B47410F022D14CE51C4410F51C9082CC
:102E6000E8E0C39401221253F6705FE56A705B12CA
:102E70001FDD9082E7E0B41013F103C003C002C06D
:102E8000019082DBEB121FAA740780199082E7E0A1
:102E900064117036F103C003C002C0019082DBEB05
:102EA000121FAA7414F0D001D002D00312173312EB
:102EB0004F4A2400121E80121FEB940C4003E4F5CD
:102EC0006B124F56B56B03756A0122E5F3F0A3E56B
:102ED000F3F022AF1DEFC41354072274B72FF5820D
:102EE000E43481F583E0FE2274B32FF582E434816B
:102EF000F583E0FE22EEF0A3EFF0E4FC8F828E83F8
:102F0000A3E022E56B75F015A42401F9748035F077
:102F1000FA7B01229082C3EDF0F1E4F5828E83A367
:102F2000E0541FFF1249AAAD079082C1E0FEA3E062
:102F3000FFA3E0FB9082C41250BEA3EBF01211BAC3
:102F4000C2919082C7E0540744A8FF1210599082A2
:102F5000C6E0601C9082C41252339082C6E014F026
:102F60009082C5E004F070069082C4E004F080DE38
:102F7000D291D290229082BDEFF0E014F0E0244C88
:102F8000F8E670589081C6F0A3E054BFF0E4908258
:102F9000BEF09082BEE0FFC39403504074562F12DF
:102FA0000F3BFF9082BDE0FEEF6E702B9081C7E07B
:102FB000541F64106007E0541FFEBE1108EF124C4E
:102FC0001C9081C8F07E817FC671C77E817FC690CC
:102FD00082BEE004FDE114124B0880B6227567043E
:102FE000756801229082C1EEF0A3EFF022C0E0C02C
:102FF00083C0827148E54920E00690834F740CF04D
:1030000090834FE0700B740CF0755A181224A48052
:103010000690834FE014F0D082D083D0E032124883
:103020006E1207BF121BC1F1DF123D76120D4B115C
:10303000611249BE12065DE56354F7F563E562541B
:10304000DFF56254FEF562E490826CF0A3F09082AA
:1030500040743FF0E56254F7F56290834C740FF0D2
:1030600022E4FF74562F124EDCEFF00FEFB403F39F
:10307000E4FFEF1187E4F00FEFB406F6E4908289E5
:10308000F0229082BDE0FF75F01CA4241EF582E4BE
:103090003481F583229082BF7401120F441201A182
:1030A00030C80030CC0130DE0230F0033102043190
:1030B000150831280E312D0F313810313D113147AF
:1030C0001331421F00003181D15F2190AF6F31C1B8
:1030D000120F371187E06002217DF1C12190AF6F9F
:1030E00031C1120F371187E06002217DD1A32190F9
:1030F000AF6F31C1120F371187E06002807FD13787
:103100002190AF6F31C1120F371187E06002806DDF
:10311000124FDF807BAF6F31C1120F371187E06034
:1031200002805A124FEE80681200098063120F7EEF
:1031300012542930E05A8053124DFB8053124E6EC8
:10314000804E123DDF8044AF6F31C151F5120F3711
:103150001187E0603B1243A830E035EF54DFF51BE8
:103160009081ADE054E04401F0E49081B5F0A31209
:10317000017000000000E49081BA123FD551C78071
:103180000F120F371187E0600251C7E49082BFF041
:10319000B1BE540730E006E51C4402F51C120F4591
:1031A0006019E0541F640F6012E0541F641F600B2D
:1031B000120F372450124A18E004F09082BFE0FF4B
:1031C0002231EFE064016026E4FEEEB50709248BAE
:1031D00031F27401F08012748B2E31F2E0640360DE
:1031E00008748B2E31F2E004F00EEEB403DC22748E
:1031F0008B2FF582E43482F58322AF63EFC3132073
:10320000E00241C6EF54FDF563908242E0F46002B3
:103210004198A3E0247F605704600241C690824534
:10322000E0FFF46003EF7007908289EFF08006EF13
:1032300004908289F0E4FB74017E00A803088005F5
:10324000C333CE33CED8F9FF908244E0FDEF5D600A
:1032500013EB1187E07012EB11877401F0AF0312CA
:103260004FFD8005EB1187E4F00BEBB406C922E5B6
:10327000634401F563E4FB747D2B120E1CE0FF3008
:10328000E00A747D2B120E1CEF4402F00BEBB40627
:10329000E6E5624480F56222908243E024F27026E3
:1032A000908242E014FB908244E0FF74832B124F23
:1032B00037EFF0E4FF74562F120F3BB50303024EB5
:1032C000F50FEFB403EF22120F45908270120F44F6
:1032D000FF1249AAEF24FDFEE434FF9082D5F0A34B
:1032E000CEB1C8D14E7B017A8279711214B3E51D3B
:1032F0004410F51D22120F37124F7235F0FA7B0180
:1033000012516D9081B5E064C9701F120F3711869C
:10331000E070109081AEE0FE1227D4F583EED185E7
:10332000125210E51B4420F51B220565E56570026D
:10333000056422E49082BDF0B1B3504A744C2FF87A
:10334000E6FFC394C8403BEFF46037E0FF247D12F2
:103350000E1CE030E02C744C2FF876FFE56230E074
:103360000D9082BDE024FB120B57E04401F0118266
:10337000E06007120B54E04404F01182E070031285
:10338000276E912180B222AF1C1246A930E025E5BC
:103390006A7021EF547FF51CE49082BDF0912850B3
:1033A0001374562F120F3B244CF8E67003124B2473
:1033B000912180E9E49082BDF09128503274562F1B
:1033C000120F3BFF244CF8E67021047E00A807088A
:1033D0008005C333CE33CED8F9FF908240E0FDEFB5
:1033E0005D60089082BDE0FF121E88912180CA9026
:1033F0008289E0B40111E4F09082BDF0B1B35007CE
:10340000EF1187911F80F5E56A60131212C8EF3043
:10341000E00C7FE11210D9E4F56BF569F56A22E45E
:10342000F09082BDE004F0229082BDE0FFC39403DF
:1034300022E528242F7002A188241C6002A196E5B1
:103440006E20E002A184E529D3947F501AE5296417
:103450000260149082D2E4F0A37400F0A3742912E5
:1034600014A51216EEA19BE529C394F05002A18089
:10347000E529D394F54002A180124AAEE529540F04
:103480009082BDF0E0FF125250E52AF0EF12527B1D
:10349000E52BF0EFC454F0120FECE52CF0EFC45420
:1034A000F01252DEE52DF0EFC454F01252E8E52E92
:1034B000F0EF125288E52FF0EF12525E7488F0EFB1
:1034C0001252957402F0EFC454F01252F2E530F04B
:1034D000EFC454F01252FCE531F0EF1252A2E53283
:1034E000F0EFC454F0125306E533F0EFC454F01279
:1034F0005310E534F0EF1252AFE535F0EFC454F05D
:1035000012531AE536F0EFC454F0125324E5371283
:103510000D479082BDE0FD124B18AB07FA0BEBAEE6
:103520000270010A14F5828E83E06D6002804912F8
:103530000FE59082BDE0FFC3940750180BEBAC027F
:1035400070010AB1A7E66E60077F091200258004AA
:10355000912180DE74022BFBE43AFA9082BD74075D
:10356000F09082BDE0FFC3940F50300BEBAC0270C3
:10357000010AB1A7E66E60047F09801C912180E1F9
:103580007F0380147F028010E56E30E0051239441D
:1035900080097F0280027F02120025E527648F6088
:1035A00003121953021D5C14F5828C83E0FE74290A
:1035B0002FF8229082BDE0FFC3940622EFF09081A5
:1035C000ADE0C41322908338F09082D27401F022CF
:1035D0009082BEEFF0A3EDF0124F939082BFE024F3
:1035E000FE601F1460342402704C9082BEE02420E0
:1035F000B1C5A37482F0A3748FF0A3E4F0A3740D9B
:10360000802E9082BEE02430B1C5A37482F0A374F2
:10361000A4F0A3E4F0A3740980169082BEE02440D5
:10362000B1C5A37482F0A374AEF0A3E4F0A3740F49
:10363000124F681216EE22B1C9D14E1246B17B016B
:103640007A8279E21214B3E51B4480F51B22A3743D
:1036500081F0A374AEF022B1D09082BDE0FF22D100
:103660007A120F33120F60EEF0A3EFF0D17A120F3F
:1036700033120FD7EEF0A3EFF0229081AFE0240CCD
:10368000FF9081AE22F0908267E0FF908266E04F6B
:10369000FF908268E04FFFA3E04FFFA3E04FFFA33E
:1036A000E04F229081AEE0FF120F37245AF582E4FA
:1036B0003482F583EFF01245DDD194F5099081AFA6
:1036C000E0FF120F372460F582E43482F583EFF0D7
:1036D0001245CED194F5089081B1E0540FFE90814F
:1036E000B0E07C002400FFEC3EAD07FC30E3034477
:1036F000F0FC7F0CF1539081B1E054F0C4540FFD05
:103700007C00A3E075F010A42DFDEC35F0FC30E357
:103710000344F0FC7F0EF1537F0A9081B3E0FDF18A
:10372000290FA3E0FDF129E1BAED30E711A807E682
:10373000FEC374819DFCD3F1884014768122A807D2
:10374000E6FEC3747F9DFCC3F1885003767F22EDB3
:1037500026F622EC30E714C374019DFB74F8F19354
:10376000D3F19F401A76F808760122C374FF9DFBBF
:103770007407F193C3F19F500676070876FF22087D
:10378000ED26F618EC36F622EE6480F8EC648098AC
:10379000A807229CFAA807E6F58308E6F58222EB43
:1037A0009582E5836480F8EA648098A80722A807D8
:1037B00008740126F61874F836F6E51B4440F51B2C
:1037C000229081AEE0FF120F372466F582E4348246
:1037D000F583EFD185125210E51B4420F51B22E43E
:1037E00090834D125240908336E054FBF0E4908376
:1037F00022F0F56BF569F56AF56FF54B908100E005
:10380000F552E4F510F511F51290828B04F0A30443
:10381000F0A304114D54FDF56E54FBF56E54F7F50D
:103820006E54EFF56E54DFF56EE4FF744C2F120BFF
:1038300051E054FEF00FEFB406F1E56654FDF56675
:1038400054F7F56654FBF56654FEF56622F0E56E16
:1038500054FEF56E22E52A14607014700201E6141D
:103860007002211C24036002212CE52B7013756764
:103870000575680190834AE054FEF054FDF0021192
:10388000BAE52BB4011075670575680290834AE0AC
:1038900054FDF002109CE52BB402107567057568A5
:1038A0000390834AE04402F00210DFE52B640370CA
:1038B0007BF567F56890811AE0FFA3E0A3CFF0A342
:1038C000EFF0E4F54C9082568083E52B90834AB468
:1038D000FF05E04401F022E054FEF0A3E52BF0E008
:1038E000FD7F050227EBE52B7006908349F08025CC
:1038F000E52BB401089083497402F08018E52BB4DD
:1039000002089083497404F0800BE52BB403069001
:1039100083497406F0312D7F06021089AF2B3135B3
:10392000EF70047F018002AF2B12004D229083497B
:10393000E04419FD22EFD394185006EF60037F0195
:10394000227F0022E52924FC70679080FCE52AF0A4
:10395000A3E52BF0A3E52CF0A3E52DF0908103E582
:103960002EF01211BA7D2A7B057F0B31C4D290AFA5
:103970002F7E007C007DFF1200DDAD3031B29081E2
:1039800018F0A3EFF0AF317E007DFF1200DDAD3205
:1039900031B2A3F0A3EFF0908100E533F0E0FF3106
:1039A00035EF700590810004F0908100E0FF120077
:1039B0004D22EF2DFFEC3ECF240CCF3400227D5D55
:1039C0007B057F0B9082C7EDF0A3EBB1209082C8FE
:1039D000E0601514FF9082C7E02FF8E6FF1210593F
:1039E0009082C8E014F080E5D291D29022E5634441
:1039F00004F5637B017A82798E7D2F7C0012064A62
:103A00009081BAE030E2109081B7E0B4040990816F
:103A1000B4E0C39408500AAF4AEFC31320E0026138
:103A2000F990834D7402F090828A14F07F0391C75D
:103A30009082BE1217AB9082BE12150271FE700802
:103A4000E965827003EA6583600241FCB1A6908259
:103A5000BDEFF0C2FB6023D2FB90000BE09080FC36
:103A6000F090000CE09080FD91FC9080FEF09000C2
:103A70000EE09080FFF0C2FB8018B141E5F390802A
:103A8000FCF0E5F3A3F0E5F3540F4490A3F0E5F365
:103A9000A3F0B12E75610131BE8061908102E0FF1B
:103AA00064756058EF605564016051EF6402604CCA
:103AB000EF64036047EF64046042EF6405603DEF2C
:103AC00064066038A3E0FF908102E0FE6F602D90F5
:103AD000811FE0FFEE6F602490813BE0FFEE6F609E
:103AE0001B908157E0FFEE6F6012908173E0FFEE54
:103AF0006F600990818FE0FFEEB50708908102E0CA
:103B000004F080979081ACE090828EF0A3EEF0906C
:103B100081B4E0908290F09081B5E0908291F09035
:103B200081B6E0908292F09081B7E0908293F0901D
:103B300081B8E0908294F09081B9E0908295F0E4B1
:103B40009082BDF09082BDE0FF24BAF582E434811A
:103B5000F583E0FE74962FF582E43482F583EE124D
:103B60003420E0B406DEB1127401F09080FCE090E5
:103B700081C9F09080FDE09081CAF09080FEE090D5
:103B800081CBF09080FFE09081CCF090828FE0902C
:103B900081CDF0908290E09081CEF0A37488F0A364
:103BA0007402F0A37404F0E4A3F0908295E0908195
:103BB000D3F0908296E054079081D4F0120FE51272
:103BC00035B3500F74D42FF582E43481F583123469
:103BD0001F80EC7E817FC6122BC7908259E0FD7E4C
:103BE000817FC660028002E4FD122F1490828FE074
:103BF000FD7F0E1227EB022CBA91E804F022F97433
:103C0000019000006B229082C1EFF0906C00E0B454
:103C10003F0491DE8009906E00E0B43F0991F27F8D
:103C20007F1207D5800C12078D7D007C6C7F3F02D0
:103C300007D59082C57401F09082C5E0FFD3944F00
:103C400050479082C1E0FE241F6F6035EE242FFEA6
:103C50009082C5E06E602A9082C1E0243F6F6021AF
:103C600091C79082C21217AB1214FF71FE7008E95F
:103C700065827003EA6583600891CF12149F121663
:103C8000EE9082C5E004F080AF7F7C91C79082C245
:103C90001217AB1214FF71FE7008E965827003EA17
:103CA0006583600891CF12149F1216EE906C00E0AD
:103CB000B47F071207CF7F018009906E00E0B47FC8
:103CC00005B10612079322121577AA06A9072290BA
:103CD00082C2E0F9A3E0FAA3E09082D2C9227F0178
:103CE0001207937D007C6E2290834D7401F09082C8
:103CF0008A22E4FF1207937D007C6C22F090000D75
:103D0000E0540F4490227D007C6E7F3F1207D5E483
:103D1000FF229081ACE09081C6F0A3741FF0A32233
:103D2000F0C290C291EF541F4420FF0210599080BE
:103D3000FCE0F55DA3E0F55EA3E0F55FA3E0F560D0
:103D40002275E810D2E8858CF3858AF385CDF3855A
:103D5000CCF320E8FD229082C7EFF03135EF7005FB
:103D60009082C704F09082C7E09004B593FF22B11F
:103D700056AD077F05229083117404F0A37414F0EC
:103D8000A3741DB1197427F0A304F0A3740DF0906F
:103D9000831C740AF0A3740DF0A37413F0A37426AB
:103DA000F0A3740EF022D2FB7F0BFE122EFCFD8FCF
:103DB000828E83E04DFDA3A3E0FC4DFD1226CFA330
:103DC000E0FB4D6017122EFCFD8F828E83E05DFDBF
:103DD000EC5DFDEB5DF460047F0180027F002290CA
:103DE00081AEE014600F1460221460262403702852
:103DF00091E804F022E56FB4FF03E48003E56F046B
:103E0000908259F0756702756801227567027568BE
:103E100002227567027568032290C700E4F0A3F0E0
:103E2000E539541F14601214602024027047E549DC
:103E3000540125E090C7008037F17B4003D3800117
:103E4000C34032E54130E52D8027E53D7027E53E52
:103E5000547F7002801BE54130E51AE53E30E715DE
:103E6000547FC39404500EAF3E12240A90C700EF53
:103E7000F07F0280030200458F5CE53F6006E4F5B9
:103E80003F7540FFAF40EFC3955C50028F5CE55C2F
:103E9000C394084005755B018003755B0390C7B54B
:103EA000E55CD1A8E4F55C22F090C7B47402F0227E
:103EB0008F5CAE04AF058E588F59E53F6006E4F580
:103EC0003F7540FFAF40EFC3955C50028F5CE55CEF
:103ED000C394085005755B038003755B0112430EA4
:103EE00080C7F17B4003D38001C35002E178E541F4
:103EF00020E502E17890C700E53CF0A3E4F1D5E5C8
:103F00003B6401705EE53E70051247468068E53E01
:103F10006401702FE5436026E53CB403047F05800F
:103F200055E53CB404047F02804CE53CB408047FB2
:103F3000028043E53C6402702A1244C28038124574
:103F4000EC8033E53E6402701AE5446016E53CB44B
:103F500010047F078020E53CB411087C047DA27F1B
:103F600014C1B0E53BB40210E53E700C9082E0E075
:103F700090C700F07F01C178020045C3E53E94037D
:103F8000E53D940022F1C47018F17B4003D3800119
:103F9000C3400EE54130E50990C700E4F07F01C160
:103FA00078020045F17B4003D38001C34013E54113
:103FB00030E50EE53E700A90C700E545F07F01C18F
:103FC00078020045E539541F640122755B0490C7EF
:103FD000C574FFC1A8F0A3F0A3F0A3F0A3F0A3F071
:103FE000A3F022E539541F701DD3E53C947FE53BD7
:103FF00094004003D38001C3400CE54130E50475D3
:1040000041202275411022E539541F704DE53B24B3
:10401000FE600F1460142402600201B77C037D7CF3
:1040200080247C037D8E7F5401B4E53C146013141E
:10403000601824FE601C2404707D7C017DCD7F040B
:1040400080727C017DD17F12806A7C017DE37F1AC2
:1040500080627C017DFD7F1E805A123FC47058E54E
:104060003D7054E53B64217021E53EC39403400359
:10407000D38001C34041E53E75F019A424A0F58228
:10408000E43403AD82FC7F09802AE53B642270277B
:10409000E53E70087C027D4B7F3B8018E53EB40115
:1040A000087C027D867F94800BE53EB402097C0388
:1040B0007D1A7F62023EB0020045E539541F70143C
:1040C000E54190C70030E5057401F08002E4F07F1F
:1040D00001023E78020045123FC47025E53C453B95
:1040E000701F123F7B4003D38001C34014E5413071
:1040F000E50FE540700BE53E2481FF122278022394
:10410000BE020045E4F547E539546024E06025240B
:10411000207059E53A54F07053E53A90023B93FF12
:10412000E53954806F7045E53A25E0241BF582E4BB
:104130003402802AE53A54F07032E53A90049293C2
:10414000FFE5395480B50724E539541FFFBF011C32
:1041500075F002E53AA42472F582E5F03404F583A3
:10416000E493FE740193AA06F90201C7020045C058
:10417000E0C0F0C083C082C0D075D000C000C001D4
:10418000C002C003C004C005C006C007C2C490C7B7
:10419000A8E01201A141CC0041FB04420508420DF8
:1041A0000C424C10425D18427C1C42A02042BD24AF
:1041B00042A02842BD2C42A03042BD3442A0384229
:1041C000BD3C42A04042BD44000042D890C7E8E058
:1041D000F539A3E0F53AA3E0F53CA3E0F53BA3E015
:1041E000F53EA3E0F53DA3E0F540A3E0F53F755BA8
:1041F0000090C7AB7401F0310441D8710354FDF055
:104200005341FB41D890C7AB7404F041D890C7AB81
:104210007408F0E54120E21330E510E56E90834F1D
:1042200020E005745EF08003740CF0E54120E10CA1
:1042300030E509755A00E56E4402F56E5341FE43C0
:10424000410243410471034402F041D890C7AB746A
:1042500010F0E56E4420F56E754110807B90C7A983
:104260007401F0E55B24FD60082402702B710E8060
:1042700067755B0090C7B47410F0805C90C7AA7437
:1042800001F0E55B24FC600B14700D122D12122E50
:104290004C8045122D128040755B001223D6803869
:1042A00090C7A8E024E851FACEC313CE13D8F95131
:1042B000F38002C333D8FC90C7A9F0801B90C7A835
:1042C000E024E451FACEC313CE13D8F951F380029F
:1042D000C333D8FC90C7AAF0D007D006D005D004CD
:1042E000D003D002D001D000D0D0D082D083D0F083
:1042F000D0E032FF7401A8070822FFE434FFFEEF8C
:1043000078032290C7AB7402F090C7AEE022E4FFBE
:10431000E55C60260559E559AC587002055814F55E
:10432000828C83E493FEEF2400FDE434C78D82F594
:1043300083EEF0155C0FEFB408D690C7B5EFF0E54B
:104340005C7008EF64086003755B0322E51B30E0D6
:104350000D54FEF51B71B0123686F513800D71A851
:1043600020E008E545600CE54670087F807EC67158
:10437000748F1022E51B54DFF51BAA06A9077B01E9
:10438000C0031B9082D2EBF0A37400F0A37413F06F
:1043900071A0D0031214B3E5456002F5467F0822F0
:1043A000A3E4F0A37408F022AF1BEFC41354072258
:1043B0007B007A0079137D087C0002064AAF1BEF70
:1043C000C31330E019EF54FDF51BB1DD123694F53F
:1043D00009B1CE123694F508E5437019800FAF1B72
:1043E000EFC41313540330E014E5437008FF7EC696
:1043F00071FE8F11227F007EC6915D8F1122AD0765
:10440000AC06E51B54BFF51B8D828C83E509F0AF2C
:104410000DAE0C9140A3EFF0AF0FAE0E91408D8228
:104420008C83A3A3EFF08D828C83A3A3A3E50AF072
:10443000E4F50CF50DF50EF50FF50AF50B7F0422EA
:10444000D3EF947FEE6480948040037F7F22C3EF9C
:104450009481EE6480947F50037F812222AB07AA6F
:104460000691AAE508F07F0CB12D9082BDB181B113
:104470002DA3EEF0A3EFF09082BDA3E091BBA3F0DB
:104480009082C0B1B09082BDB1A5B126EFF090820C
:10449000BFE0FEA3E07804CEA2E713CE13D8F8B1B4
:1044A00008E50BF0E4F50B7F0822E51B54BFF51B74
:1044B0008B828A837402F0A3E509F08B828A83A33E
:1044C000A3227B007AC791AAE508F07F0CB15E9029
:1044D00082D7B181B15EA3EEF0A3EFF09082D7A3B3
:1044E000E091BBA3F09082DAB1B09082D7B1A5B1D0
:1044F00026EFF09082D9E0FEA3E07804CEA2E71385
:10450000CE13D8F8B1088099FFEB2405F582E43A80
:10451000F583EFF0EB2406F582E43AF583E50AF043
:10452000E4F50AEB2407F582E43AF58322B19270B0
:1045300003FEFF22B19B40081237AE7E077FFF22A9
:10454000B1BD500AB1891237B87EF87F0122E6FC6E
:1045500008E6FDA807E4F608F6AE04AF0522B1921E
:104560007003FEFF22B19B40081237AE7E077FFF2B
:1045700022B1BD500AB1891237B87EF87F0122807E
:10458000CDEEF0A3EFF07F0E220874FF26F618742C
:104590000722A807E6FC08E6FD4C22D3ED94FFECC9
:1045A0006480948722E0540FFFEF4DFFEB24042238
:1045B000E0540FC4F8540FC868FFAD0722A807E6FF
:1045C000FC08E6C39401EC64809478A807229082EA
:1045D00061E0FF908260E04FFF9082622290825BF8
:1045E000E0FF90825AE04FFF90825C22E51B54BFAF
:1045F000F51B90C700E509F0D3E50D947FE50C6449
:104600008094804006A3747FF08018C3E50D9481E8
:10461000E50C6480947F90C70150057481F080039D
:10462000E50DF0D3E50F947FE50E6480948040089B
:1046300090C702747FF08018C3E50F9481E50E6483
:1046400080947F90C70250057481F08003E50FF0DD
:1046500090C703812DAF1BEF1313543F30E009EFD8
:1046600054FBF51BD1B98007AF1BD1A930E0087FFF
:10467000007EC6D1788F11228F828E83E51B547FF6
:10468000F51B7403F0EF2401FFE43EFAA9077B0158
:10469000C0039082D2EBF0A37482F0A374E2F0D155
:1046A000B1D0031214B37F0522EFC41313135401C6
:1046B00022A3E4F0A37404F0227B017A8279E27DE4
:1046C000047C0002064AAF1DD1EC30E00AEF54F73B
:1046D000F51D120640800AAF1DEF1313543F30E062
:1046E000087F007EC6F1188F1122AF63EF131313FA
:1046F000541F22AF1BD1EC30E010EF54F7F51B7BB9
:10470000017A8279E11206468005E51C30E0087FD7
:10471000007EC6F12F8F1122E51D54FBF51D8F82FF
:104720008E837408F09082E6E01227577F0222E51C
:104730001C54FEF51C8F828E837404F09082E1E09D
:104740001227577F0222E51B54DFF51B90C700E5B7
:1047500013F0A3E514F0A3E515F0A3E516F0A3E527
:1047600017F0A3E518F0A3E519F0A3E51AF07F0808
:104770002275251012257FE52BF07F07221227DDF9
:104780005014E54130E50F7442253EF8E690C7002D
:10479000F07F01023E78020045123F7B4003D38048
:1047A00001C34065E54130E560E53E7012E53BB48C
:1047B000020DE5406401453F70057547018044E501
:1047C0003E64027044E53B6402703EE544603AE5B5
:1047D0003CB4100DE5406407453F70057547038004
:1047E00022E53CB4110DE5406414453F7005754762
:1047F000048010E53CB42011E540640F453F70098A
:10480000754708854048023FCBE4F5470200451252
:104810003F7B4003D38001C34012E54130E50DE505
:104820003E7009853B45853B460223BE020045EFAD
:10483000547FFE7401A806088002C333D8FC543E9E
:10484000F4FEEF20E70B90C7ADE05EF090C7DF808D
:104850000990C7ACE05EF090C7DEE05EF0227F0119
:1048600090C7D7EFF02440F00FEFB406F322E4FE38
:1048700074412EF8E4F60EEEB409F5E4F545F5467C
:10488000FE74422EF876010EEEB403F5EF6005E4F7
:10489000F541800FE541C394105005754108800330
:1048A000754110E4F55B311790C7AE741DF090C7E9
:1048B000E0E4F0A3F090C7DDF090C7AC04F090C73F
:1048C000DEF090C7ADF090C7DFF090C7A9743FF05D
:1048D000A3F090C781310390C7887430F0A33103EF
:1048E00090C7E27418F090C7F0E4F090C7F874082D
:1048F000F090C7E37404F0D2BBD2BC90C7AB741F76
:10490000F0015E7410F0A37420F0A37430F0A3746F
:1049100040F0A37450F02275A0407F01120604E419
:10492000F5A02290C7D67402F0000014F07F0712A1
:10493000060490C7D6E4F022C0E0C0F0C083C08275
:10494000C0D075D000C000C001C002C003C004C008
:1049500005C006C00775A040122B485341FE5341C5
:10496000FD755A001224A475A000D007D006D0050A
:10497000D004D003D002D001D000D0D0D082D083D8
:10498000D0F0D0E03290834BE0C3940550057451D1
:10499000F0800790834BE024FBF090834AE0FFC354
:1049A0001330E0030210DF02109CEF70047E0580DC
:1049B0000AEFD394107E1650027E0AAF0622122F01
:1049C000DDE4FF744C2FF876FF120F5F7407F0A33D
:1049D00074D0F0120FD6E4F0A3F05115E4F00FEF0D
:1049E000B406E01211BAD2911217E2E4FF5104BFEB
:1049F0001D08E5624408F5628007E56254F7F56238
:104A0000220210FD510C125071D29122C291EF542A
:104A10001FFF02105974502FF582E43482F583226F
:104A2000E528244D602F24FE7048E529D3947F505B
:104A300020AF29121577EF4E70028015AA06A9073C
:104A40001217A85177F07B007A0079291214B380ED
:104A50001A7F03801F7B007A007929F199E4FF51C6
:104A6000151235ACA6060FEFB406F4E51C440C0293
:104A70001D5A7F02020025A3E4F0A3741022AB07A5
:104A8000AA06ED7118FE0FBF00010EAD03A9057B4C
:104A900001C003C002C001AA06A9079082D2EB128E
:104AA00017AD5177F0D001D002D0030214B3E490D7
:104AB00082BEF09082BEE0FDC454F024E0F582E4B2
:104AC0003481AF82FE517E7108E0C3940640E42237
:104AD00012005EE49082BEF07B017A8379387D110A
:104AE0007C0012064A9082BEE0FF908338F0EFF11E
:104AF000721217A55177F1689082BEE0FF710F71B5
:104B000008E0C3940640D1229082BEE004F022EF78
:104B10007118FE7D110207E075F020A42400FFE566
:104B2000F034702274562F120F3B1227C430E63334
:104B3000F14FF13F121E80D1EC121E80740EF07402
:104B4000562F120F3BF135E0FFAE0574002E121EFA
:104B500080121FEB940C4003E4F56BF156B56B0328
:104B6000756A01229082C0EFF0F1CD9082C1EFF022
:104B7000E0FE2456120F3B120F607403F0A374E89A
:104B8000F074562E120F3B120FD7E4F0A3F0908270
:104B9000C1E0FE2456120F3B244CF876019082C0EF
:104BA000E0FD74562ED1DCEDF0ED75F01CA4241858
:104BB000F582E43481F583E0FCA3E0FD9082C0E05F
:104BC000FE120F60ECF0A3EDF0EE120F60E0FCA31C
:104BD000E0FDEE120FD7ECF0A3EDF0EF7008EE91D0
:104BE0001CFD7F0B801A9082C1E0B401079118FD73
:104BF0007F0C800C9082C1E0B402089118FD7F0DFB
:104C00001227EB9082C1E0FF121E889082C1E0FF64
:104C100071249082C1E0FF229082C0E075F01CA454
:104C20002403F582E43481F583E0229082BFEFF023
:104C3000E4FA74562A120F3BFF911C9198703512BA
:104C40000E19E030E02E8A6F74562A120F3B120FB5
:104C50004CECF0A3EDF074562A120F3BFF120F60DC
:104C6000120FD1ECF0A3EDF0AF02121E88AF02716B
:104C7000247F01220AEA640370B8E4FFEF911C91DB
:104C80009860050FEFB406F4EFC394065007716403
:104C90008F6F7F01227F0022FE9082BFE0FDEE6DCC
:104CA00022AD079083377406F0908322E06002A162
:104CB00063908336E04404F054FDF0908323EFF0DA
:104CC000BF751C9083357475F09080FC74DEF0A382
:104CD00074ADF0A374DFF0A3740AF0D1E4800B90FC
:104CE0008323E014911C908335F0E49082C1F0900E
:104CF00082C1E0FFC394065049908323E0146F60A3
:104D0000399082C1E0244CF8E6702F120E19E03081
:104D1000E0289082C1E0244C120B51E04401F09055
:104D200082C1123085E0700512276E800D9082C11D
:104D3000E024FB120B57E04404F09082C1E004F041
:104D400080ADE4FF74252FF582E43483F58374FF8E
:104D5000F00FEFB410EEF187B16A12100C908322BD
:104D60007401F022908321E004F075F00384E5F0F3
:104D700090000693FD229082BF7401F0908323E09F
:104D8000FF9081C8E06F701F121FE420E032F17CB9
:104D90006004B1C6802A908321E075F00384E5F0B9
:104DA000F0A37404F08019B1E47F03B1EB90833574
:104DB000E0FF908321E0B16A12100CE49082BFF012
:104DC0009082BFE0FF22122AC0B1E4D1BA752782D7
:104DD0009081ACE0F528A3E0F529E4F52AF52B1243
:104DE0001D56800AE51D4420F51D22120025E562AE
:104DF0004404F562E51D54DFF51D229081AFE0B457
:104E00004B05E56230E01CB1E49081ADE0F5251280
:104E10000F37D1C4F52B121D56E5624404F56244E8
:104E200020B1F222B1E4D1BA7527817528F18F291A
:104E3000EF24FE601014601B2402702B908328E086
:104E4000F52AA3801490832AE0FCA3E0FDECF52A68
:104E5000ED8007E4F52A908327E0F52B121D56E537
:104E6000624404F56280057F031200258086B1E468
:104E70009081ADE0F525120F37D1C4F52BA3E0F5F5
:104E80002CA3E0F52DA3E0F52EA3E0F52FA3E0F58C
:104E900030A3E0F531A3E0F532A3E0F533A3E0F56C
:104EA00034A3E0F535A3E0F536A3E0F537A3E0F54C
:104EB00038E51C440C121D5AA1EE75251090832371
:104EC000E0F5262204F5269081AFE0F527A3E0F572
:104ED00028A3E0F529A3E0F52AA3E022F582E43433
:104EE00082F58322E490832EF0A3F022EEF0AE054B
:104EF0000D74002E2274562F120F3B1227C430E679
:104F000033F14FF13F121E80D1EC121E80740EF06F
:104F100074562F120F3BF135E0FFAE0574002E12D0
:104F20001E80121FEB940C4003E4F56BF156B56B39
:104F300003756A01222483F582E43482F58322FD1D
:104F4000EE04FEAC050D74002C229082E8E0FFE533
:104F50006B75F015A422E56924FFFFE434FFFE7CA5
:104F6000007D0C1200EFED22F07B017A837939028B
:104F700014B375F010A424E0F97481227E817FCAF5
:104F80007D151213E6EF22E4908321F0908335E043
:104F9000FFE4227B017A8379387D107C0002064A87
:104FA000F19390833874031235C8A37480F0A3740E
:104FB000FCF0A3E4F0A37407F1680216EEE4FF51DD
:104FC00004EF54FDFDE4FF121089D28422E4FF12A5
:104FD00031EFE0B40301220FEFB403F37F0022901E
:104FE00081AEE09082E1F0E51C4401F51C22908145
:104FF000AEE09082E6F0E51D4404F51D2212275E26
:1050000030E2071227A94402F51B12275E30E10A9D
:105010001227D41227BD4401F51B12275EFE30E390
:1050200006E51B4404F51BEE30E406E51B4408F5D9
:105030001BEF1227C530E006E51D4408F51D22E5EB
:1050400027247E70030234317F01020025EF7A6C41
:1050500060027A6E7B007F1F74102BFBE43AFA8BA0
:1050600082F583E0B505078A6C8B6DF46002DFE89A
:10507000227F0030AF027F01C2AFC29175E5FFC24F
:10508000C030C0FDEF6002D2AFAFE5229082C71101
:10509000BED3942040037420F0C2917F6112105956
:1050A0009082C9E0601514F011719082C711C7EFAA
:1050B000F0121D2C7003121D2580E5D29122EEF016
:1050C000A3EFF0A3EDF022E0FCA3E0F5828C8322B5
:1050D000C290C2917F601210591171D291D2902268
:1050E000908322E07F017001FF2212179831041192
:1050F000F94003E4F569D2AF22E4F56A0569E56990
:10510000C3940C22A3E4F0A37414F07B017A817998
:10511000C70214B3908336E04402F04401F02290B9
:105120008330E09080FCF0908331E09080FDF0903F
:105130008332E09080FEF0908333E09080FFF09027
:105140008334E0FFA3F0124D6402100C8F828E8333
:1051500074E2F0ED7F0060027F10EF4408A3F022BC
:10516000314C7E827FBD7D021213E6EF229082C019
:10517000EB1217AD9081B6E0908318F09081B7E004
:10518000908319F09081B8E090831AF09081B9E093
:1051900090831BF075E810E4F5F5F5F67F10EFD37A
:1051A000940040211F9082C0121502F98F827583EE
:1051B0000012009EF5F174112FF582E43483F5831B
:1051C000E0F5F380D9D2E820E8FD5107510790813E
:1051D000B5E065F3F09081B4E065F3F09081B3E061
:1051E00065F3F09081B2E065F3F09081B1E065F392
:1051F000F09081B0E065F3F09081AFE065F3F0905E
:1052000081AEE065F3F022AFF3AFF3AFF3AFF3227B
:10521000F513E4F5147B019082D204F0A37481F0BD
:10522000A374AFF0A3E4F0A37406F01B7A00791521
:105230000214B3E0FEA3E0F5828E83E0FF02105972
:10524000F0E54A54FEF54AE56354FBF56322E0FEBF
:10525000C454F024E0F582E43481F58322EEC45492
:10526000F024E6F582E43481F58322AF2AEFFFAD26
:1052700029ED9082BDCFF0A3EFF022C454F024E1D9
:10528000F582E43481F58322C454F024E5F582E408
:105290003481F58322C454F024E7F582E43481F5A7
:1052A0008322C454F024EAF582E43481F58322C4D5
:1052B00054F024EDF582E43481F58322E4F52B8F5C
:1052C0002A85282985272875251075278F2275F0AE
:1052D0001CA42413F582E43481F583E0FF2224E347
:1052E000F582E43481F5832224E4F582E43481F507
:1052F000832224E8F582E43481F5832224E9F582CF
:10530000E43481F5832224EBF582E43481F58322B1
:1053100024ECF582E43481F5832224EEF582E43432
:1053200081F5832224EFF582E43481F5832275F040
:105330001CA42412F582E43481F583E0FF2275F089
:105340001CA42406F582E43481F583E0229082CD0A
:10535000E0908338F09082CCE022F583E0FCA3E07B
:10536000FD75F01CEFA4229082C0E0FE24FB2224F5
:1053700005F582E43481F583E022C2AF75FAAA759F
:10538000FA55D2FD22E0FF1313543F22F09082CC55
:10539000E0FEA3E0FF229082BDE064062204F51F38
:1053A00075204922751E10751FFF75204A2224980A
:1053B000F582E5F0347D22249AF582E5F0347D22F1
:1053C000908338E09082CDF022FF74017E00A80720
:1053D0000822244CF8E6FFC39430229082C0E0FEFD
:1053E000A3E0FF229082C9E075F01CA422F582E4BC
:1053F0003482F583E0229082E8E0244BF8E6220430
:10540000FFAE040C74002E22F0751E10EE04F51F82
:10541000227C0012064A7B00229082D274FFF0A305
:10542000229082BDE0FCA3E022AF63EF1313543F50
:1054300022AF1CEF13135403229082C0E0FD247DA1
:1054400022FFFFFFFFFFFFFFFFFFFFFFFFFFFFFF49
:10545000FFFFFFFFFFFFFFFFFFFFFFFFFFFFFFFF5C
:10546000FFFFFFFFFFFFFFFFFFFFFFFFFFFFFFFF4C
:10547000FFFFFFFFFFFFFFFFFFFFFFFFFFFFFFFF3C
:10548000FFFFFFFFFFFFFFFFFFFFFFFFFFFFFFFF2C
:1067F000FFFFFFFFFFFFFFFFFFFFFFFFFFFF8257CE
:10680000FFFFFFFFFFFFFFFFFFFFFFFFFFFFFFFF98
:10681000FFFFFFFFFFFFFFFFFFFFFFFFFFFFFFFF88
:10682000FFFFFFFFFFFFFFFFFFFFFFFFFFFFFFFF78
:10683000FFFFFFFFFFFFFFFFFFFFFFFFFFFFFFFF68
:106BF000FFFFFFFFFFFFFFFFFFFFFFFFFFFF77EB41
:106C0000FFFFFFFFFFFFFFFFFFFFFFFFFFFFFFFF94
:106C1000FFFFFFFFFFFFFFFFFFFFFFFFFFFFFFFF84
:106C2000FFFFFFFFFFFFFFFFFFFFFFFFFFFFFFFF74
:106C3000FFFFFFFFFFFFFFFFFFFFFFFFFFFFFFFF64
:106C4000FFFFFFFFFFFFFFFFFFFFFFFFFFFFFFFF54
:106C5000FFFFFFFFFFFFFFFFFFFFFFFFFFFFFFFF44
:106C6000FFFFFFFFFFFFFFFFFFFFFFFFFFFFFFFF34
:106C7000FFFFFFFFFFFFFFFFFFFFFFFFFFFFFFFF24
:106C8000FFFFFFFFFFFFFFFFFFFFFFFFFFFFFFFF14
:106C9000FFFFFFFFFFFFFFFFFFFFFFFFFFFFFFFF04
:106CA000FFFFFFFFFFFFFFFFFFFFFFFFFFFFFFFFF4
:106CB000FFFFFFFFFFFFFFFFFFFFFFFFFFFFFFFFE4
:106CC000FFFFFFFFFFFFFFFFFFFFFFFFFFFFFFFFD4
:106CD000FFFFFFFFFFFFFFFFFFFFFFFFFFFFFFFFC4
:106CE000FFFFFFFFFFFFFFFFFFFFFFFFFFFFFFFFB4
:106CF000FFFFFFFFFFFFFFFFFFFFFFFFFFFFFFFFA4
:106D0000FFFFFFFFFFFFFFFFFFFFFFFFFFFFFFFF93
:106D1000FFFFFFFFFFFFFFFFFFFFFFFFFFFFFFFF83
:106D2000FFFFFFFFFFFFFFFFFFFFFFFFFFFFFFFF73
:106D3000FFFFFFFFFFFFFFFFFFFFFFFFFFFFFFFF63
:106D4000FFFFFFFFFFFFFFFFFFFFFFFFFFFFFFFF53
:106D5000FFFFFFFFFFFFFFFFFFFFFFFFFFFFFFFF43
:106D6000FFFFFFFFFFFFFFFFFFFFFFFFFFFFFFFF33
:106D7000FFFFFFFFFFFFFFFFFFFFFFFFFFFFFFFF23
:106D8000FFFFFFFFFFFFFFFFFFFFFFFFFFFFFFFF13
:106D9000FFFFFFFFFFFFFFFFFFFFFFFFFFFFFFFF03
:106DA000FFFFFFFFFFFFFFFFFFFFFFFFFFFFFFFFF3
:106DB000FFFFFFFFFFFFFFFFFFFFFFFFFFFFFFFFE3
:106DC000FFFFFFFFFFFFFFFFFFFFFFFFFFFFFFFFD3
:106DD000FFFFFFFFFFFFFFFFFFFFFFFFFFFFFFFFC3
:106DE000FFFFFFFFFFFFFFFFFFFFFFFFFFFFFFFFB3
:106DF000FFFFFFFFFFFFFFFFFFFFFFFFFFFFFFFFA3
:106E00003FFFFFFFFFFFFFFFFFFFFFFFFFFFFFFF52
:106E100002120100198802040000000000000000B6
:106E20000309F09D7001060600000000000000004C
:106E30007C140617098904221100000000000000DC
:106E40000309F09D7001060700000000000000002B
:106E500020070840090400020600000000000000AE
:106E60003052DAAF0B040000000100000000000007
:106E700040094D3331352F4D3233350000000000CD
:106E8000FFFFFFFFFFFFFFFFFFFFFFFFFFFFFFFF12
:106E9000FFFFFFFFFFFFFFFFFFFFFFFFFFFFFFFF02
:106EA000FFFFFFFFFFFFFFFFFFFFFFFFFFFFFFFFF2
:106EB000FFFFFFFFFFFFFFFFFFFFFFFFFFFFFFFFE2
:107200003FFFFFFFFFFFFFFFFFFFFFFFFFFFFFFF4E
:1072100002120100198802040000000000000000B2
:107220000309F09D70010606000000000000000048
:107230007C140617098904221100000000000000D8
:107240000309F09D70010607000000000000000027
:1072500020070840090400020600000000000000AA
:107260003052DAAF0B040000000100000000000003
:1072700040094D3331352F4D3233350000000000C9
:10728000FFFFFFFFFFFFFFFFFFFFFFFFFFFFFFFF0E
:10729000FFFFFFFFFFFFFFFFFFFFFFFFFFFFFFFFFE
:1072A000FFFFFFFFFFFFFFFFFFFFFFFFFFFFFFFFEE
:1072B000FFFFFFFFFFFFFFFFFFFFFFFFFFFFFFFFDE
:1072C000FFFFFFFFFFFFFFFFFFFFFFFFFFFFFFFFCE
:1072D000FFFFFFFFFFFFFFFFFFFFFFFFFFFFFFFFBE
:1072E000FFFFFFFFFFFFFFFFFFFFFFFFFFFFFFFFAE
:1072F000FFFFFFFFFFFFFFFFFFFFFFFFFFFFFFFF9E
:10730000FFFFFFFFFFFFFFFFFFFFFFFFFFFFFFFF8D
:10731000FFFFFFFFFFFFFFFFFFFFFFFFFFFFFFFF7D
:10732000FFFFFFFFFFFFFFFFFFFFFFFFFFFFFFFF6D
:10733000FFFFFFFFFFFFFFFFFFFFFFFFFFFFFFFF5D
:10734000FFFFFFFFFFFFFFFFFFFFFFFFFFFFFFFF4D
:10735000FFFFFFFFFFFFFFFFFFFFFFFFFFFFFFFF3D
:10736000FFFFFFFFFFFFFFFFFFFFFFFFFFFFFFFF2D
:10737000FFFFFFFFFFFFFFFFFFFFFFFFFFFFFFFF1D
:10738000FFFFFFFFFFFFFFFFFFFFFFFFFFFFFFFF0D
:10739000FFFFFFFFFFFFFFFFFFFFFFFFFFFFFFFFFD
:1073A000FFFFFFFFFFFFFFFFFFFFFFFFFFFFFFFFED
:1073B000FFFFFFFFFFFFFFFFFFFFFFFFFFFFFFFFDD
:1073C000FFFFFFFFFFFFFFFFFFFFFFFFFFFFFFFFCD
:1073D000FFFFFFFFFFFFFFFFFFFFFFFFFFFFFFFFBD
:1073E000FFFFFFFFFFFFFFFFFFFFFFFFFFFFFFFFAD
:1073F000FFFFFFFFFFFFFFFFFFFFFFFFFFFFFFFF9D
:1074000002756EBB010689828A83E0225002E72260
:10741000BBFE02E32289828A83E49322BB010689B0
:10742000828A83F0225002F722BBFE01F322C2D5EA
:10743000EC30E709B2D5E4C39DFDE49CFCEE30E7F7
:1074400015B2D5E4C39FFFE49EFE12749CC3E49D75
:10745000FDE49CFC800312749C30D507C3E49FFFBD
:10746000E49EFE22A42582F582E5F03583F5832291
:10747000D083D082F8E4937012740193700DA3A3AB
:1074800093F8740193F5828883E4737402936860BF
:10749000EFA3A3A380DF8A838982E473BC000BBEC1
:1074A0000029EF8DF084FFADF022E4CCF875F008F0
:1074B000EF2FFFEE33FEEC33FCEE9DEC984005FC25
:1074C000EE9DFE0FD5F0E9E4CEFD22EDF8F5F0EEED
:1074D0008420D21CFEADF075F008EF2FFFED33FDD8
:1074E0004007985006D5F0F222C398FD0FD5F0EA78
:1074F00022EFF87FFF900000E87908C36F548060A6
:1075000007EF33648DFF8003EF33FFC3E833F8D90F
:10751000EAA3E0F8E583B468DF22EFF87EFF7FFF9F
:10752000900000E87908C36E5480600CEF3364214A
